:100000000C940A010C9427010C9427010C942701ED
:100010000C9427010C9427010C9427010C942701C0
:100020000C9427010C9427010C9427010C942701B0
:100030000C9427010C9463020C9427010C94270163
:100040000C9427010C9427010C9427010C94B10502
:100050000C94A2030C9427010C94FA020C9427012F
:100060000C94ED040C9427010C9427010C942701A7
:100070000C9427010C9427010C9427010800000020
:10008000BE922449123EABAAAA2ABECDCCCC4C3E8D
:1000900000000080BEABAAAAAA3E00000000BF007C
:1000A0000000803F0000000000084178D3BB438778
:1000B000D1133D190E3CC3BD4282AD2B3E68EC828C
:1000C00076BED98FE1A93E4C80EFFFBE01C4FF7F11
:1000D0003F00000000006E616E00696E6600004027
:1000E0007A10F35A00A0724E18090010A5D4E80047
:1000F00000E87648170000E40B54020000CA9A3B5F
:10010000000000E1F50500008096980000004042E4
:100110000F000000A0860100000010270000000072
:10012000E803000000006400000000000A00000076
:1001300000000100000000002C76D888DC674F0822
:1001400023DFC1DFAE59E1B1B796E5E3E453C63A28
:10015000E651997696E8E6C28426EB898C9B62ED9F
:10016000407C6FFCEFBC9C9F40F2BAA56FA5F49059
:10017000055A2AF75C936B6CF9676DC11BFCE0E4D0
:100180000D47FEF520E6B500D0ED902E0300943526
:1001900077050080841E080000204E0A000000C879
:1001A0000C333333330F986E12831141EF8D2114CA
:1001B000893BE65516CFFEE6DB18D1844B381BF79A
:1001C0007C1D901DA4BBE424203284725E22810039
:1001D000C9F124ECA1E53D274E414E494E49545901
:1001E000494E46CDCCCC3D0AD7233C17B7D1387702
:1001F000CC2B329595E6241FB14F0A000020410018
:1002000000C84200401C4620BCBE4CCA1B0E5AAE61
:10021000C59D740011241FBECFEFD0E1DEBFCDBF5E
:1002200016E0A0E0B1E0EEE3FCE202C005900D9222
:10023000A83CB107D9F71FE0A8ECB6E001C01D92B9
:10024000A339B107E1F70E94DD0D0C941D160C9443
:100250000000DC011496ED91FC9115972FEF20839F
:100260001296ED91FC91139710820895DC0112967D
:10027000ED91FC91139710820895DC011296ED9197
:10028000FC9113978FEF80830895DC011296ED9116
:10029000FC9113978081809580830895DC011296EC
:1002A000ED91FC91139760830895CF93DF9300D075
:1002B00000D000D0CDB7DEB79B018B839C83E1E0FB
:1002C000F0E002C0EE0FFF1F6A95E2F7FE83ED83B8
:1002D000AC016E2F7E8180E090E026960FB6F894F8
:1002E000DEBF0FBECDBFDF91CF910895DC01129626
:1002F000ED91FC9113970190F081E02D208130E089
:100300000C9002C0369527950A94E2F7C9018170D6
:1003100099270895DC011296ED91FC9113970280C4
:10032000F381E02D208114968C91282B2083089551
:10033000DC011296ED91FC9113970280F381E02D80
:10034000208114968C918095822380830895672B59
:1003500011F00C948A010C949801DC011296ED9135
:10036000FC9113970190F081E02D14968C9180837D
:100370000895CF93DF93EC0188EE93E00E94F4019F
:10038000CE010E94AD0188EE93E00E94F401CE01FF
:100390000E94AD0188EE93E0DF91CF910C94F401BF
:1003A000CF93DF93EC010E949801EA81FB810480E6
:1003B000F581E02D80819C81892B8083DF91CF9115
:1003C0000895CF93DF93EC010E949801EA81FB81AD
:1003D0000480F581E02D90818C8180958923808334
:1003E000DF91CF91089508950895CF92DF92EF9213
:1003F000FF920F931F93CF93DF936C017B018A01D0
:1004000086E090E00E943211EC01D982C882FB8222
:10041000EA821D830C83C6010E949801C7010E94D5
:100420008A01C8010E949801C6010E94D001C7013B
:100430000E94D001C8010E94D001E091CA06F0914B
:10044000CB06EE0FFF1FE658F04FD183C08380919B
:10045000CA069091CB0601969093CB068093CA066C
:10046000CE01DF91CF911F910F91FF90EF90DF9020
:10047000CF900895E1E8F0E0808188608083AFE666
:10048000B0E08C9182608C938091D8019091D901D9
:100490009093890080938800808183608083789422
:1004A0000895CF93DF93EC01888199810E948A019E
:1004B00088819981DF91CF910C949801FC01828110
:1004C00093810C94A7011F920F920FB60F921124E3
:1004D0002F933F934F935F936F937F938F939F934C
:1004E000AF93BF93EF93FF938091600F9091610F53
:1004F000181619060CF06DC08091660F9091670F69
:1005000001969093670F8093660F8091640F90918E
:10051000650F01969093650F8093640F8091620F31
:100520009091630F01969093630F8093620F2091D7
:10053000660F3091670F80916C0F90916D0F2817A7
:10054000390764F0E0917A0FF0917B0F80819181FF
:100550000E94AD011092670F1092660F2091640FF8
:100560003091650F80916A0F90916B0F28173907B2
:1005700064F0E0917C0FF0917D0F808191810E9469
:10058000AD011092650F1092640F2091620F3091AF
:10059000630F8091680F9091690F2817390764F0F5
:1005A000E0917E0FF0917F0F808191810E94AD01DB
:1005B0001092630F1092620F86E391E00E94AD01EA
:1005C0008091600F9091610F01979093610F8093DC
:1005D000600FFF91EF91BF91AF919F918F917F91AC
:1005E0006F915F914F913F912F910F900FBE0F90A0
:1005F0001F9018951F920F920FB60F9211242F93F0
:100600003F934F935F936F937F938F939F93AF939A
:10061000BF93EF93FF93E091820FF091830F82815C
:1006200093810E94D00481110AC0E091820FF09161
:10063000830F828193810E9463048093C6008CE3C0
:1006400091E00E94AD01FF91EF91BF91AF919F9119
:100650008F917F916F915F914F913F912F910F906B
:100660000FBE0F901F901895CF93DF9385E090E019
:100670000E943211EC0180E290E00E941004998304
:10068000888380E890E00E9410049B838A831C8208
:100690008FE08093C4001092C50088ED8093C10064
:1006A0007894D093830FC093820FCE01DF91CF91C6
:1006B0000895E091820FF091830F808191810E94D3
:1006C00063048A3011F0811106C0E091820FF0912D
:1006D000830F148280E00895E091820FF091830FE0
:1006E000BC01828193810E9451048091C00085FFEA
:1006F0000AC0E091820FF091830F828193810E9462
:1007000063048093C6000895E091820FF091830FF7
:1007100084810895E091820FF091830F682F828188
:1007200093810E9432048091C00085FF0AC0E0914D
:10073000820FF091830F828193810E9463048093E2
:10074000C60008951F920F920FB60F9211242F9397
:100750003F934F935F936F937F938F939F93AF9349
:10076000BF93EF93FF938091C6008093840F809195
:10077000840FE091820FF091830F8F3759F48081BD
:1007800091810E94B804882339F18FE096E00E949D
:100790006C0322C08091840F8D3011F41092840F6D
:1007A0006091840F808191810E9432048091840F36
:1007B0000E948A038091840F81110AC08BE696E023
:1007C0000E946C03E091820FF091830F81E084839B
:1007D00086E391E00E94AD01FF91EF91BF91AF914F
:1007E0009F918F917F916F915F914F913F912F9149
:1007F0000F900FBE0F901F901895CF93C82F8A307F
:1008000019F48DE00E948A038C2FCF910C948A03F7
:100810008091C00087FFFCCF8091C60090E00895D2
:100820000F931F93CF93DF93EC010E9432118C0141
:10083000FC018C0F9D1FE817F90711F01192FBCFF7
:1008400088E090E00E943211FC0111830083138242
:10085000128215821482D783C683DF91CF911F91B4
:100860000F910895FC01A081B18184819581A80F29
:10087000B91F6C9326813781848195810196B901D6
:100880000E946C0E958384834281538148175907D7
:1008900039F4CA010196B9010E946C0E93838283D8
:1008A00008950F931F93CF93DF938C01EB01699110
:1008B000662321F0C8010E943204F9CFDF91CF9165
:1008C0001F910F910895FC018281938124813581CC
:1008D0008217930771F0A081B181A80FB91F2C91E5
:1008E0000196668177810E946C0E93838283822FAA
:1008F000089580E00895FC01CB0122813381820FAD
:10090000931F668177810E946C0E0190F081E02D2B
:10091000E80FF91F80810895FC01CB01228133810A
:10092000820F931F668177810E946C0E0190F08187
:10093000E02DE80FF91F40830895CF93DF93FC016A
:10094000EB012681378182819381860F971FB90140
:100950000E946C0E93838283848195818C0F9D1FEE
:10096000B9010E946C0E95838483DF91CF91089525
:10097000FC0184819581228133812817390771F028
:100980000197A081B181A80FB91F2C916681778151
:100990000E946C0E95838483822F089580E00895D1
:1009A000FC0181E042815381248135814217530744
:1009B00009F080E00895ECE7F0E0808185648083B1
:1009C000EAE7F0E08FEA8083ABE7B0E08C918074D7
:1009D0008C9380818064808308951F920F920FB65C
:1009E0000F9211242F933F938F939F93EF93FF9335
:1009F0008091CE069091CF062091780030917900B9
:100A0000FC01EE0FFF1FE053F94F31832083019665
:100A1000883E23E0920729F09093CF068093CE067C
:100A200004C01092CF061092CE06FF91EF919F91D5
:100A30008F913F912F910F900FBE0F901F9018959F
:100A40008F929F92AF92BF92CF92DF92EF92FF92DE
:100A5000A12CB12CC12CD12C7601F501EE0FFF1F7A
:100A6000E053F94F60817181882777FD8095982F39
:100A70000E94CB0F9B01AC01C701B6010E94CC0EB6
:100A80006B017C018FEFA81AB80A88EEA81683E0E4
:100A9000B80619F720E030E04AE754E4C701B60190
:100AA0000E94300F20E030E040EA50E40E949C10A9
:100AB00020E030E040E85AE30E949C106B017C018A
:100AC00020E030EE42E955E40E949C104B015C01AD
:100AD000A701960160E070E080EA90E40E94CB0EEE
:100AE0009B01AC01C501B4010E94300F20E030E54C
:100AF00043EC57E40E94300F0E945C109B01AC0154
:100B000060E070E080E89FE30E94300F20E030EE6C
:100B100046E755E40E949C109B01AC0160E070E048
:100B200080E89FE30E94300F2FE03FEC4BE55BE352
:100B30000E94CC0E9B01AC0160E070E080E89FE376
:100B40000E94300F23E333E948E853E40E94CB0EC0
:100B5000FF90EF90DF90CF90BF90AF909F908F90DD
:100B600008951F920F920FB60F9211242F933F9367
:100B70004F935F936F937F938F939F93AF93BF93A5
:100B8000EF93FF938EB58093840FE091850FF091E2
:100B9000860F828193810E94D004E091850FF091AD
:100BA000860F811106C0828193810E9463048EBDED
:100BB00002C081E08483FF91EF91BF91AF919F913B
:100BC0008F917F916F915F914F913F912F910F90F6
:100BD0000FBE0F901F901895CF93DF9385E090E0A4
:100BE0000E943211EC0180E190E00E941004998390
:100BF000888380E190E00E9410049B838A8381E0D7
:100C00008C838EE791E00E94D0018AE891E00E94F7
:100C1000D00184E891E00E94E10188E791E00E9420
:100C2000D0018CB580618CBD8CB583608CBD8CB5DA
:100C300080688CBD8CB580648CBDD093860FC093CA
:100C4000850FCE01DF91CF910895E091850FF0914E
:100C5000860F682F828193810E943204E091850F74
:100C6000F091860F8481882331F0148282819381F0
:100C70000E9463048EBD0895FF920F931F93CF933C
:100C8000DF93EC01F62E2E813F818AE0681769F030
:100C90008DE0681322C0C9016EE070E00E94800EF2
:100CA000281B390B3F832E8347C0273431052CF096
:100CB00084E590E09F838E833FC0EEE0F0E0C901C1
:100CC000BF010E94800E0097B9F1BF01681B790B2C
:100CD000620F731F7F836E832FC02435310589F027
:100CE0006E817F819B012F5F3F4F3F832E834F2D6E
:100CF0008E859F85DF91CF911F910F91FF900C946E
:100D00008C0486E490E09F838E836EE070E08E8595
:100D10009F850E949D0400E010E06E817F81600F3E
:100D2000711F40E28E859F850E948C040F5F1F4FCC
:100D30000E30110591F7D4CFDF91CF911F910F9114
:100D4000FF900895CF93DF93C8EFD1E080E00E9439
:100D5000250689EF90E00197F1F700C00000219788
:100D60002097A1F7DF91CF9108950F931F93CF9311
:100D7000DF9300D0CDB7DEB78C01FC01848595856B
:100D80004A8369830E949801F801828593850E94B5
:100D900098016981862F80680E94250689EF90E07E
:100DA0000197F1F700C000004A81842F80640E94FF
:100DB0002506E9EFF0E03197F1F700C00000F801F7
:100DC000848595850E948A01F801828593850F901C
:100DD0000F90DF91CF911F910F910C948A01CF92C8
:100DE000DF92EF92FF920F931F93CF93DF938C01CB
:100DF0007B016A0180E190E00E943211EC010E94C7
:100E0000EC05998388831B870A87F986E886DD8647
:100E1000CC868EE090E09B838A8386E090E09D8381
:100E20008C831F821E8280E890E00E9410049F87BE
:100E30008E87C8010E94D001C7010E94D001C6015F
:100E40000E94D001C6010E949801C7010E948A0138
:100E5000C7010E94B901C8010E94980189EF90E082
:100E60000197F1F700C0000081E20E94250689EF9A
:100E700090E00197F1F700C0000080EA0E9425068B
:100E800089EF90E00197F1F700C0000084E00E9434
:100E9000250689EF90E00197F1F700C0000084E19A
:100EA0000E94250689EF90E00197F1F700C000004D
:100EB00080E20E94250689EF90E00197F1F700C0DB
:100EC00000008CE00E94250689EF90E00197F1F781
:100ED00000C00000C8010E948A01CE010E94A20643
:100EE00040E060E0CE010E94B506C6010E948A0182
:100EF000CE01DF91CF911F910F91FF90EF90DF9086
:100F0000CF900895BF92CF92DF92EF92FF920F930E
:100F10001F93CF93DF936C0140E060E00E94B50621
:100F2000C0E0D0E08AE0B82EBE01F6018685978544
:100F30000E947B04282F332727FD3095203231056E
:100F400014F420E230E020523109B29E7001B39EC9
:100F5000F00C1124C7018A5B9D4F7C0100E010E07A
:100F6000F701E00FF11F80810E942506E9EFF0E014
:100F70003197F1F700C000000E5F1F4F0A301105D6
:100F800079F780E00E94250689EF90E00197F1F75C
:100F900000C000002196C435D10531F6DF91CF9114
:100FA0001F910F91FF90EF90DF90CF90BF90089529
:100FB000EF92FF920F931F93CF93DF9300D0CDB7A3
:100FC000DEB77C01FC018485958569837A830E9464
:100FD0009801F701828593850E948A016981062F15
:100FE0007A81172FF80161918F01C701662319F0EB
:100FF0000E943C06F7CF0E948207F7018485958501
:101000000F900F90DF91CF911F910F91FF90EF9074
:101010000C948A01CF93DF93CDB7DEB79E01275F93
:101020003F4F4F8158856FE170E080EA9EE00E945B
:10103000C71360EA7EE08D819E810E94D807DF9110
:10104000CF9108950E9420059F938F937F936F9374
:1010500083E196E09F938F930E9486130F900F90E9
:101060000F900F900F900F90089580EE9EE09F9349
:101070008F9380EC9EE09F938F938FE196E09F93F8
:101080008F930E9486130F900F900F900F900F90E8
:101090000F90089580EE9EE00E9459120E94980FD2
:1010A0007093790F6093780F80E09FE00E9459124F
:1010B0000E94980F7093770F6093760F80E29FE005
:1010C0000E9459120E94980F7093750F6093740FCD
:1010D0000C9404098091E00E811103C08FE296E028
:1010E0001AC06AE476E080EE9EE00E944013892BED
:1010F00021F48EE491E00C948A016DE476E080EEB8
:101100009EE00E944013892B21F48EE491E00C9420
:10111000980181E596E00C949A1382E392E0909313
:101120008E0F80938D0F88E596E00E946C038EE60B
:1011300096E00C946C030F931F93CF93DF9320ECF6
:101140003EE08FE02036380709F044C000E010E0B0
:10115000C0E0D0E00E945903811105C00AED11E002
:10116000C0E0D0E012C0803219F40F5F1F4FF0CF03
:10117000F80195E0EE0FFF1F9A95E1F7EC0FFD1FC8
:10118000E054F14F80832196E5CF60EC7EE0C8010A
:101190000E9440130A5E1F4F892B81F486E18C9FC9
:1011A000F0018D9FF00D1124E652FE4F0488F58961
:1011B000E02DDF91CF911F910F9109942196C430BA
:1011C000D10519F781E896E0DF91CF911F910F913A
:1011D0000C949A1380E090E0F901E80FF91F108257
:1011E000019680329105C1F7205E3F4FAACF84E976
:1011F00096E00E946C030E9484038823E1F30C9420
:101200009B080E94F708FDCFEF92FF920F931F9368
:10121000CF93DF93E090720FF090730F8091780F6F
:101220009091790FE81AF90A0091700F1091710FDF
:101230008091760F9091770F081B190BC0916E0F5C
:10124000D0916F0F8091740F9091750FC81BD90BBF
:101250008091780F9091790F9093730F8093720F14
:101260008091760F9091770F9093710F8093700F0C
:101270008091740F9091750F90936F0F80936E0F04
:10128000E0917A0FF0917B0F828193811E141F04ED
:101290001CF40E94980102C00E948A01E0917C0F18
:1012A000F0917D0F82819381101611061CF40E942B
:1012B000980102C00E948A01E0917E0FF0917F0F99
:1012C000828193811C161D061CF40E94980102C0A5
:1012D0000E948A011092670F1092660F1092650F9C
:1012E0001092640F1092630F1092620F9701F7FE35
:1012F00004C0222733272E193F09C80117FF04C055
:1013000088279927801B910B8217930784F5AE01DC
:10131000D7FF04C0442755274C1B5D0B42175307CA
:1013200034F581E090E090936D0F80936C0FC801CD
:10133000B7010E94800E77FF03C071956195710916
:1013400070936B0F60936A0FCE01B7010E94800EFD
:1013500077FF03C07195619571097093690F609370
:10136000680FC701880F991FF6FE69C065C028176E
:10137000390784F5AE01D7FF04C0442755274C1B1D
:101380005D0B4817590734F581E090E090936B0F9F
:1013900080936A0FC701B8010E94800E77FF03C0D7
:1013A00071956195710970936D0F60936C0FCE010B
:1013B000B8010E94800E77FF03C071956195710995
:1013C0007093690F6093680FC801880F991F16FF0B
:1013D00036C032C0AE01D7FF04C0442755274C1B8E
:1013E0005D0B241735077CF58417950764F581E0BC
:1013F00090E09093690F8093680FC701BE010E942F
:10140000800E77FF03C071956195710970936D0F20
:1014100060936C0FC801BE010E94800E77FF03C06D
:1014200071956195710970936B0F60936A0FCE018E
:10143000880F991FD6FF03C09195819591099093CC
:10144000610F8093600F80916C0F90916D0F9F934F
:101450008F9386E996E09F938F930E9486138091E5
:101460006A0F90916B0F9F938F9382EA96E09F9300
:101470008F930E9486138091680F9091690F9F93BC
:101480008F938EEA96E09F938F930E9486138091AC
:10149000600F9091610F9F938F938AEB96E09F93DB
:1014A0008F930E9486138DB79EB740960FB6F8941F
:1014B0009EBF0FBE8DBFDF91CF911F910F91FF9007
:1014C000EF900895A3E1B0E0E8E6FAE00C94940E02
:1014D0007C011B016A01FC0117821682838181FF56
:1014E00066C3BE016F5F7F4F4B01F7019381F1012E
:1014F00093FD859193FF81911F01882309F453C3C4
:10150000853239F493FD859193FF81911F018532D6
:1015100039F4B70190E00E94541356016501E5CFFC
:1015200010E0512C20E02032A0F48B3269F030F42E
:10153000803259F0833269F420612CC08D3239F049
:10154000803339F4216026C02260246023C02860E3
:1015500021C027FD27C030ED380F3A3078F426FF40
:1015600006C0FAE01F9F300D1124132F13C06AE04C
:10157000569E300D1124532E20620CC08E3221F461
:1015800026FD11C3206406C08C3611F4206802C009
:10159000883641F4F10193FD859193FF81911F01FC
:1015A0008111C1CF9BEB980F933018F42061805EBE
:1015B00006C09BE9980F933008F0AAC12F7E26FF42
:1015C00016E02F73722E853621F4F22FF0647F2EF1
:1015D00008C0863621F4622F6068762E02C0111191
:1015E000115077FE07C01C3348F444244394410E45
:1015F00027E00BC0183030F4212F06C027E04CE361
:10160000442E03C027E017E0412C560174E0A70EDA
:10161000B11CF6016081718182819381042DA40146
:101620000E945D126C01098100FF02C003FF06C029
:1016300071FC07C072FC08C0612C08C03DE2632E3B
:1016400005C02BE2622E02C090E2692E802F8C70C2
:1016500099F1662011F084E001C083E0851510F057
:10166000512C0BC0581A73FC08C0B70180E290E0FF
:101670000E9454135A94C9F7F3CF662029F0B7019A
:10168000862D90E00E94541303FD03C00AED10E084
:1016900002C006ED10E0F72DF0717F2EF801849165
:1016A000882309F476C271108052B70190E00E943D
:1016B00054130F5F1F4FF2CF77FE0FC04C0C04FF87
:1016C00004C08A81813309F44A94141474F5F8E053
:1016D000F41578F588E0482E2CC076FC2AC0812FBE
:1016E00090E08C159D059CF06CEFC6166FEFD6064A
:1016F00074F0772D7068772E0AC0E2E0F0E0EC0F0E
:10170000FD1FE10FF11D8081803319F4115011117B
:10171000F4CF77FE0EC044244394410E812F90E015
:10172000C816D9062CF41C1904C04424439401C0E3
:1017300010E077FE07C01C141D043CF496012F5FD7
:101740003F4F05C025E030E002C021E030E06620D8
:1017500011F02F5F3F4F112331F0412F50E04F5FC9
:101760005F4F240F351F452D50E02417350714F423
:10177000521A01C0512C872D897049F4552039F037
:10178000B70180E290E00E9454135A94F7CF66208C
:1017900029F0B701862D90E00E94541373FC09C014
:1017A000552039F0B70180E390E00E9454135A9419
:1017B000F7CF77FE5FC09C2D8D2DD7FE02C090E045
:1017C00080E0692E782E40E050E0C601841991092E
:1017D0009D878C87960126193709280D391D812F81
:1017E00090E0EE27FF27E81BF90BFF87EE87FFEF5E
:1017F0006F167F0669F4B7018EE290E02B8B3A8B6F
:10180000488B598B0E945413598948893A892B89EE
:10181000C614D70454F06C857D85661577052CF4C5
:10182000F901E40FF51F818101C080E371E0671ABF
:1018300071084F5F5F4FEE85FF856E167F066CF077
:10184000B70190E02B8B3A8B488B598B0E94541335
:101850002B893A8948895989CACF6C147D0439F497
:101860009A81963318F4953311F404FF81E3B7019C
:1018700090E04BC08A81813309F00F7EB70190E080
:101880000E945413111105C074FE18C085E490E045
:1018900017C0B7018EE290E00E94541382E06624E4
:1018A0006394680EF401E80FF11D8081B70190E0A8
:1018B0000E945413115041F3862DF1CF85E690E03C
:1018C000B7010E945413D7FC05C0C114D10439F4E8
:1018D00004FF05C0D194C194D1088DE201C08BE210
:1018E000B70190E00E94541380E36AE0C616D10469
:1018F0002CF08F5FFAE0CF1AD108F7CFB70190E054
:101900000E945413B701C601C0960E94541341C1EE
:10191000833631F0833779F0833509F058C021C020
:10192000560172E0A70EB11CF6018081898301E0A7
:1019300010E0640114C05601F2E0AF0EB11CF601D4
:10194000C080D18026FF03C0612F70E002C06FEF1E
:101950007FEFC6012B8B0E9449138C012B892F77B7
:1019600015C05601F2E0AF0EB11CF601C080D18067
:1019700026FF03C0612F70E002C06FEF7FEFC6014A
:101980002B8B0E9435138C012B892068722E23FD2E
:101990001AC0852D90E008171907A8F4B70180E256
:1019A00090E00E9454135A94F4CFF60177FC85918D
:1019B00077FE81916F01B70190E00E94541351109E
:1019C0005A94015011090115110579F7E2C08436C6
:1019D00011F0893651F5560127FF09C0F4E0AF0E2A
:1019E000B11CF60160817181828193810AC0F2E0AD
:1019F000AF0EB11CF60160817181882777FD80955B
:101A0000982F022F0F7697FF08C0909580957095BC
:101A100061957F4F8F4F9F4F00682AE030E0A4010F
:101A20000E94F313C82EC8183EC0022F853721F438
:101A30000F7E2AE030E01DC0097F8F3691F018F448
:101A4000883559F0B0C0803719F0883711F0ABC035
:101A5000006104FF09C0046007C024FF08C00660DD
:101A600006C028E030E005C020E130E002C020E1FF
:101A700032E0560107FF09C0F4E0AF0EB11CF601D9
:101A8000608171818281938108C0F2E0AF0EB11C48
:101A9000F6016081718180E090E0A4010E94F3135F
:101AA000C82EC8180F7706FF0BC0202F2E7FC11637
:101AB00050F404FF0AC002FD08C0202F2E7E05C08E
:101AC000DC2C202F03C0DC2C01C0D12E24FF0DC044
:101AD000FE01EC0DF11D8081803311F4297E09C0D7
:101AE00022FF06C0D394D39404C0822F867809F0D5
:101AF000D39423FD13C020FF06C01C2DD51418F469
:101B0000150D1D19D52CD51468F4B70180E290E0AD
:101B10002B8B0E945413D3942B89F5CFD51410F43A
:101B20005D1801C0512C24FF12C0B70180E390E082
:101B30002B8B0E9454132B8922FF17C021FF03C057
:101B400088E590E002C088E790E0B7010CC0822FE2
:101B5000867859F021FD02C080E201C08BE227FDAA
:101B60008DE2B70190E00E945413C11638F4B7011A
:101B700080E390E00E9454131150F7CFCA94F4010F
:101B8000EC0DF11D8081B70190E00E945413C1104B
:101B9000F5CF552009F4C2CCB70180E290E00E9455
:101BA00054135A94F6CFF7018681978102C08FEFC4
:101BB0009FEF6396E2E10C94B00E8CE391E00E94FB
:101BC000D00186E391E00E94D0018EE491E00E9472
:101BD000D00184E591E00E94D00180E391E00E9471
:101BE000D00180E391E00E9498014CE951E066E960
:101BF00071E082EA91E00E94F5018C014CE951E02C
:101C000060E671E080E991E00E94F5017C014CE919
:101C100051E068E771E082E791E00E94F5016C0114
:101C20000E9434030E948D080E94DB0488EA91E040
:101C30000E94E10186E391E00E948A01C0E0D0E0C9
:101C40007724739486E0882E86E0982EA72CBB24F8
:101C5000A7FCB094B501C8010E945E02B501C7019E
:101C60000E945E02B501C6010E945E0281E0781208
:101C70001FC088EA91E00E947601892B59F4C801BF
:101C80000E945102C7010E945102C6010E945102E6
:101C900021961DC0DF93CF939F928F920E9486134F
:101CA0008AE096E00E949A130F900F900F900F9089
:101CB000C8010E945102C7010E945102C6010E9440
:101CC0005102219777247394209709F0712C81E2B7
:101CD0008A95F1F70000BACFAA1BBB1B51E107C0E0
:101CE000AA1FBB1FA617B70710F0A61BB70B881FAC
:101CF000991F5A95A9F780959095BC01CD0108953B
:101D000097FB072E16F4009407D077FD09D00E94A8
:101D10006C0E07FC05D03EF4909581959F4F089579
:101D2000709561957F4F08952F923F924F925F92E9
:101D30006F927F928F929F92AF92BF92CF92DF92DB
:101D4000EF92FF920F931F93CF93DF93CDB7DEB740
:101D5000CA1BDB0B0FB6F894DEBF0FBECDBF0994D4
:101D60002A88398848885F846E847D848C849B842B
:101D7000AA84B984C884DF80EE80FD800C811B8139
:101D8000AA81B981CE0FD11D0FB6F894DEBF0FBE68
:101D9000CDBFED0108955058BB27AA270ED04DC1E5
:101DA0003ED130F043D120F031F49F3F11F41EF4C6
:101DB00033C10EF4E095E7FB29C1E92F4FD180F341
:101DC000BA17620773078407950718F071F49EF538
:101DD00067C10EF4E0950B2EBA2FA02D0B01B901AF
:101DE00090010C01CA01A0011124FF27591B99F091
:101DF000593F50F4503E68F11A16F040A22F232F9D
:101E0000342F4427585FF3CF469537952795A795EC
:101E1000F0405395C9F77EF41F16BA0B620B730B93
:101E2000840BBAF09150A1F0FF0FBB1F661F771F04
:101E3000881FC2F70EC0BA0F621F731F841F48F4B9
:101E4000879577956795B795F7959E3F08F0B3CF3F
:101E50009395880F08F09927EE0F97958795089529
:101E60000CD0EBC0E3D040F0DAD030F021F45F3F8B
:101E700019F0CCC0511115C1CFC0F0D098F39923FF
:101E8000C9F35523B1F3951B550BBB27AA2762173E
:101E90007307840738F09F5F5F4F220F331F441F83
:101EA000AA1FA9F333D00E2E3AF0E0E830D09150BB
:101EB0005040E695001CCAF729D0FE2F27D0660FA8
:101EC000771F881FBB1F261737074807AB07B0E8E7
:101ED00009F0BB0B802DBF01FF2793585F4F2AF0FD
:101EE0009E3F510568F092C0DCC05F3FECF3983E26
:101EF000DCF3869577956795B795F7959F5FC9F75A
:101F0000880F911D9695879597F90895E1E0660FE2
:101F1000771F881FBB1F621773078407BA0720F05B
:101F2000621B730B840BBA0BEE1F88F7E0950895C4
:101F300004D06894B111B5C0089598D088F09F5727
:101F400090F0B92F9927B751A0F0D1F0660F771F05
:101F5000881F991F1AF0BA95C9F712C0B13081F0E5
:101F60009FD0B1E008959CC0672F782F8827B85F75
:101F700039F0B93FCCF3869577956795B395D9F746
:101F80003EF490958095709561957F4F8F4F9F4F50
:101F90000895E89409C097FB3EF49095809570955C
:101FA00061957F4F8F4F9F4F9923A9F0F92F96E9A5
:101FB000BB279395F695879577956795B795F1111A
:101FC000F8CFFAF4BB0F11F460FF1BC06F5F7F4FB7
:101FD0008F4F9F4F16C0882311F096E911C07723C9
:101FE00021F09EE8872F762F05C0662371F096E8D2
:101FF000862F70E060E02AF09A95660F771F881FA1
:10200000DAF7880F9695879597F9089597F99F675E
:1020100080E870E060E008959FEF80EC0895002470
:102020000A941616170618060906089500240A943D
:1020300012161306140605060895092E0394000CC3
:1020400011F4882352F0BB0F40F4BF2B11F460FF52
:1020500004C06F5F7F4F8F4F9F4F089557FD90587B
:10206000440F551F59F05F3F71F04795880F97FB5C
:10207000991F61F09F3F79F0879508951216130616
:102080001406551FF2CF4695F1DF08C01616170645
:102090001806991FF1CF869571056105089408957A
:1020A000E894BB2766277727CB0197F908950EF0B0
:1020B000A6C0B2CF6894AACFD9DFC8F39923D1F3D1
:1020C000C6F3DF93CF931F930F93FF92C92FDD27A2
:1020D00088232AF02197660F771F881FDAF720E000
:1020E00030E040E85FEB9FE3883920F0803E30F03D
:1020F00021968F7751DEECE7F0E003C04DDEE9EA90
:10210000F0E08BD08B01BE01EC01FB2E6F57710903
:102110007595771F880B990B3EDF28E132E741E385
:102120005FE316D0AF2D9801AE01FF900F911F9184
:10213000CF91DF9142DE81CF0BD07FCF70DF28F0CF
:1021400075DF18F0952309F061CF66CF1124A9CF70
:1021500085DFA0F3959FD1F3950F50E0551F629F47
:10216000F001729FBB27F00DB11D639FAA27F00DF0
:10217000B11DAA1F649F6627B00DA11D661F829F17
:102180002227B00DA11D621F739FB00DA11D621FFC
:10219000839FA00D611D221F749F3327A00D611D19
:1021A000231F849F600D211D822F762F6A2F1124FB
:1021B0009F5750408AF0E1F088234AF0EE0FFF1F4E
:1021C000BB1F661F771F881F91505040A9F79E3F85
:1021D000510570F01BCF65CF5F3FECF3983EDCF309
:1021E000869577956795B795F795E7959F5FC1F7C2
:1021F000FE2B880F911D9695879597F908959F3F1F
:1022000031F0915020F4879577956795B795880FB1
:10221000911D9695879597F90895DF93CF931F9316
:102220000F93FF92EF92DF927B018C01689405C0BF
:10223000DA2EEF018DDFFE01E894A591259135910D
:1022400045915591AEF3EF01B8DDFE019701A8016C
:10225000DA9479F7DF90EF90FF900F911F91CF9173
:10226000DF910895CF93DF938230910510F482E0DF
:1022700090E0E091890FF0918A0F20E030E0A0E03B
:10228000B0E0309739F14081518148175907B8F0D3
:102290004817590771F482819381109729F013969A
:1022A0009C938E9312972CC090938A0F8093890FE2
:1022B00027C02115310531F04217530718F0A90145
:1022C000DB0101C0EF019A01BD01DF010280F38152
:1022D000E02DD7CF21153105F9F0281B390B24301B
:1022E000310580F48A819B816115710521F0FB0124
:1022F0009383828304C090938A0F8093890FFE0199
:10230000329644C0FE01E20FF31F81939193225055
:102310003109398328833AC02091870F3091880F83
:10232000232B41F420914202309143023093880FD5
:102330002093870F209140023091410221153105F1
:1023400041F42DB73EB74091440250914502241B01
:10235000350BE091870FF091880FE217F307A0F497
:102360002E1B3F0B2817390778F0AC014E5F5F4FEB
:102370002417350748F04E0F5F1F5093880F409386
:10238000870F8193919302C0E0E0F0E0CF01DF91ED
:10239000CF910895CF93DF93009709F487C0FC0194
:1023A000329713821282C091890FD0918A0F2097A1
:1023B00081F420813181280F391F8091870F9091FE
:1023C000880F8217930779F5F093880FE093870FB2
:1023D0006DC0DE0120E030E0AE17BF0750F412966A
:1023E0004D915C9113979D014115510509F1DA0159
:1023F000F3CFB383A28340815181840F951F8A1745
:102400009B0771F48D919C911197840F951F0296F3
:102410009183808312968D919C91139793838283ED
:102420002115310529F4F0938A0FE093890F3EC0FE
:10243000D9011396FC93EE9312974D915D91A40FE1
:10244000B51FEA17FB0779F480819181840F951FEE
:102450000296D90111969C938E9382819381139653
:102460009C938E931297E0E0F0E08A819B81009725
:1024700019F0FE01EC01F9CFCE01029628813981D5
:10248000820F931F2091870F3091880F28173907EB
:1024900069F4309729F410928A0F1092890F02C0C4
:1024A00013821282D093880FC093870FDF91CF9150
:1024B0000895662777270C945114283008F027E0F8
:1024C0003327DA01990F311D87FD91600096610570
:1024D000710539F432602E5F3D9330E32A95E1F7C0
:1024E00008959F3F30F080387105610509F03C5F29
:1024F0003C5F3D93913008F08068911DDF93CF934E
:102500001F930F93FF92EF92192F987F9695E92FC3
:1025100096959695E90FFF27E85CFE4F992733279C
:10252000EE24FF24A701E70105900894079428F4FE
:10253000360FE71EF81E491F511D660F771F881FB3
:10254000991F0694A1F70590079428F4E70EF81E4A
:10255000491F561FC11D770F881F991F661F0694BC
:10256000A1F70590079428F4F80E491F561FC71FBE
:10257000D11D880F991F661F771F0694A1F705903C
:10258000079420F4490F561FC71FD81F990F661FC5
:10259000771F881F0694A9F784911095177041F052
:1025A000D695C79557954795F794E7941A95C1F72F
:1025B000EEEDF0E068941590159135916591959147
:1025C00005907FE27395E118F10A430B560BC90B96
:1025D000D009C0F7E10CF11E431F561FC91FD01DC3
:1025E0007EF4703311F48A95E6CFE894015030F010
:1025F000080F0AF40027021708F4202F2395022F52
:102600007A3328F079E37D932A95E9F710C07D931A
:102610002A9589F606949795679537951795179497
:10262000E118F10A430B560BC90BD00998F023951A
:102630007E9173957A3308F070E37C932013B8F79A
:102640007E9170617D9330F0839571E37D9370E3AB
:102650002A95E1F71124EF90FF900F911F91CF91F0
:10266000DF91992787FD90950895FC0105906150B1
:1026700070400110D8F7809590958E0F9F1F089598
:10268000FB01DC018D91019080190110D9F3990BA8
:102690000895FC016150704001900110D8F78095B9
:1026A00090958E0F9F1F08950F931F93CF93DF93E5
:1026B000182F092FEB018B8181FD03C08FEF9FEF56
:1026C00020C082FF10C04E815F812C813D81421766
:1026D00053077CF4E881F9819F012F5F3F4F3983D5
:1026E0002883108306C0E885F985812F0995892BF9
:1026F00029F72E813F812F5F3F4F3F832E83812F0C
:10270000902FDF91CF911F910F910895A0E0B0E03D
:10271000ECE8F3E10C94A40EFE0135966191719101
:10272000AF0180918D0F90918E0F0E94620AE2E0BE
:102730000C94C00E0F931F93CF93DF93E0918D0FF6
:10274000F0918E0F238121FF1BC0EC0100E010E00F
:10275000899160918D0F70918E0FDB011896ED912C
:10276000FC911997882331F00995892B89F30FEF94
:102770001FEFEECF8AE00995892B11F4C80102C042
:102780008FEF9FEFDF91CF911F910F910895AEE0F2
:10279000B0E0EDECF3E10C94A20E8C01CA0146E02E
:1027A0004C831A83098377FF02C060E070E86150B0
:1027B00071097E836D83A901BC01CE0101960E943F
:1027C000620A4D815E8157FD0AC02F81388542170C
:1027D00053070CF49A01F801E20FF31F10822E96B2
:1027E000E4E00C94BE0EFA01AA27283051F1203102
:1027F00081F1E8946F936E7F6E5F7F4F8F4F9F4F95
:10280000AF4FB1E03ED0B4E03CD0670F781F891FD6
:102810009A1FA11D680F791F8A1F911DA11D6A0FA4
:10282000711D811D911DA11D20D009F468943F9157
:102830002AE0269F11243019305D3193DEF6CF0156
:102840000895462F4770405D4193B3E00FD0C9F71C
:10285000F6CF462F4F70405D4A3318F0495D31FD89
:102860004052419302D0A9F7EACFB4E0A6959795DC
:10287000879577956795BA95C9F7009761057105B2
:1028800008959B01AC010A2E0694579547953795FC
:102890002795BA95C9F7620F731F841F951FA01D56
:1028A0000895A0E0B0E0E7E5F4E10C94960E8B010A
:1028B0006115710521F0DB018C9311969C93EC015D
:1028C0005E01BFEFAB1ABB0A7501C8808C2D90E08A
:1028D0000E94B815892B11F0E501F2CFEDE2CE127E
:1028E00008C07E01F2E0EF0EF11CC980DD24D39414
:1028F00009C02BE2C21205C07E0142E0E40EF11CC9
:10290000C980D12CE701219743E050E060EE71E0EF
:10291000CE010E94C015892BD1F4E701229645E033
:1029200050E06BED71E0CE010E94C015892B11F4CF
:10293000E70127960115110519F0D801CD93DC9315
:10294000D11008C160E070E080E89FE70CC143E06F
:1029500050E068ED71E0CE010E94C015892B59F45A
:102960000115110509F4FBC0B2E0EB0EF11CF801F2
:10297000F182E082F4C0F70160E070E0CB01C0E0DA
:10298000D0E07F01A0EDAA2EAC0C29E02A1530F191
:102990004D2D4260B42E2D2D2870D2FE04C0211181
:1029A00025C0219623C021112197A5E0B0E09B010D
:1029B000AC010E940316660F771F881F991F6A0DCE
:1029C000711D811D911D6839A9E97A078A07A9E15E
:1029D0009A0760F0BD2DB660BB2E08C02EEFA21284
:1029E0000AC0D3FC50C04D2D4860B42E3196D7019B
:1029F000CC90DB2CC6CF2C2D2F7D253409F043C085
:102A0000A081AD3241F4BD2DB061DB2E7F0122E00B
:102A1000E20EF11C0CC07F01AB3231F04FEFE41A33
:102A2000F40A21E030E006C0A2E0EA0EF11CA18128
:102A300022E030E0A053AA3018F0E21AF30A23C0D3
:102A4000F70120E030E02038BCE03B075CF4A9014E
:102A5000440F551F440F551F240F351F220F331FDE
:102A60002A0F311DAF014F5F5F4F7A01A081A05344
:102A7000AA3010F4FA01E7CFD4FE03C031952195B6
:102A80003109C20FD31FD1FE09C00115110531F064
:102A9000E1E0EE1AF108D801ED92FC920E94C90F14
:102AA0002D2D2370233019F06B017C0106C06B01C2
:102AB0007C01F7FAF094F7F8F09420E030E0A901F7
:102AC000C701B6010E94D815882309F440C0D7FF7A
:102AD00006C0D195C195D10907EF11E002C00FE002
:102AE00012E04801B8E18B1A910890E2A92EB12CAE
:102AF000F8014590559065907490CA15DB055CF01F
:102B0000A3019201C701B6010E949C106B017C01D8
:102B1000CA19DB09F2CF04501109B594A79408151E
:102B2000190531F78E2D880F8F2D881F8F3F49F0A3
:102B300020E030E0A901C701B6010E94D81581113B
:102B400006C082E290E09093920F8093910FC701AC
:102B5000B60109C060E070E080E89FEF04C060E06B
:102B600070E080EC9FE7CDB7DEB7E0E10C94B20EE9
:102B7000911146C0803219F089508550D0F70895E0
:102B8000FB01DC014150504088F08D9181341CF0F4
:102B90008B350CF4805E659161341CF06B350CF460
:102BA000605E861B611171F3990B0895881BFCCF41
:102BB00003D008F481E00895990F0008550FAA0B7F
:102BC000E0E8FEEF16161706E807F907C0F0121640
:102BD0001306E407F50798F0621B730B840B950B43
:102BE00039F40A2661F0232B242B252B21F4089598
:102BF0000A2609F4A140A6958FEF811D811D089535
:102C00009927882708950E940E16A59F900DB49FBE
:102C1000900DA49F800D911D11240895A29FB001D5
:102C2000B39FC001A39F700D811D1124911DB29F00
:0E2C3000700D811D1124911D0895F894FFCFA1
:102C3E000000D20101000100D20102000200D20107
:102C4E0004000300D20108000400D20110000500A8
:102C5E00D20120000600D20140000700D201800000
:102C6E000000CC0101000100CC0102000200CC01E9
:102C7E0004000300CC0108000400CC011000050084
:102C8E00CC0120000600CC0140000700CC018000E2
:102C9E000000C60101000100C60102000200C601CB
:102CAE0004000300C60108000400C6011000050060
:102CBE00C60120000600C60140000700C6018000C4
:102CCE000000C00101000100C00102000200C001AD
:102CDE0004000300C00108000400C001100005003C
:102CEE00C00120000600C00140000700C0018000A6
:102CFE0020002200210023002500240026002800A9
:102D0E00270029002B002A00280074656D70000032
:102D1E00000000000000000000000000000022087B
:102D2E006563686F000000000000000000000000F6
:102D3E0000000000350868656174000000000000A6
:102D4E00000000000000000000006A0847000000BC
:102D5E000000000000000000000000000000000065
:102D6E004A080000000200000000FD030000000001
:102D7E000000930F20000000000000000000000083
:102D8E00000000005F0000000000000007000000CF
:102D9E000700000014007F0014007F0014002400C0
:102DAE002A007F002A00120023001300080064008E
:102DBE006200360049005500220050000000050058
:102DCE0003000000000000001C0022004100000073
:102DDE000000410022001C000000140008003E000C
:102DEE0008001400080008003E000800080000005B
:102DFE005000300000000000080008000800080025
:102E0E0008000000600060000000000020001000BC
:102E1E000800040002003E005100490045003E003B
:102E2E00000042007F00400000004200610051009F
:102E3E00490046002100410045004B0031001800BA
:102E4E00140012007F0010002700450045004500C9
:102E5E0039003C004A004900490030000100710071
:102E6E0009000500030036004900490049003600FC
:102E7E0006004900490029001E00000036003600F9
:102E8E0000000000000056003600000000000800A0
:102E9E00140022004100000014001400140014005D
:102EAE00140000004100220014000800020001007E
:102EBE0051000900060032004900790041003E0031
:102ECE007E001100110011007E007F0049004900B4
:102EDE00490036003E0041004100410022007F00C3
:102EEE004100410022001C007F00490049004900BA
:102EFE0041007F0009000900090001003E00410069
:102F0E00490049007A007F000800080008007F0091
:102F1E00000041007F004100000020004000410001
:102F2E003F0001007F0008001400220041007F00D6
:102F3E0040004000400040007F0002000C000200F4
:102F4E007F007F000400080010007F003E0041005B
:102F5E00410041003E007F00090009000900060003
:102F6E003E004100510021005E007F000900190063
:102F7E002900460046004900490049003100010081
:102F8E0001007F00010001003F00400040004000B2
:102F9E003F001F002000400020001F003F004000A7
:102FAE00380040003F006300140008001400630066
:102FBE00070008007000080007006100510049007A
:102FCE004500430000007F00410041000000020068
:102FDE0004000800100020000000410041007F00A6
:102FEE000000040002000100020004004000400046
:102FFE0040004000400000000100020004000000FC
:10300E00200054005400540078007F004800440013
:10301E0044003800380044004400440020003800CA
:10302E004400440048007F0038005400540054000F
:10303E00180008007E000900010002000C0052007A
:10304E00520052003E007F00080004000400780089
:10305E00000044007D0040000000200040004400BD
:10306E003D0000007F00100028004400000000001A
:10307E0041007F00400000007C00040018000400A6
:10308E0078007C000800040004007800380044003A
:10309E004400440038007C001400140014000800A2
:1030AE0008001400140018007C007C0008000400C6
:1030BE00040008004800540054005400200004008E
:1030CE003F004400400020003C0040004000200033
:1030DE007C001C002000400020001C003C00400032
:1030EE00300040003C00440028001000280044003E
:1030FE000C005000500050003C004400640054008E
:10310E004C004400000008003600410000000000A2
:10311E0000007F00000000000000410036000800A3
:10312E000000100008000800100008000000060053
:10313E0006000000000025690A00484954210008D5
:10314E0020080074656D703D25302E32660A0065CC
:10315E0063686F205B25735D205B25735D0A0068D5
:10316E00656174207265717569726573206F6E6525
:10317E0020617267756D656E74006F6E006F6666A6
:10318E00006572726F7221002D3D2064656C746152
:10319E00626F742076302E31203D2D0D0A00436F64
:1031AE006E736F6C6520537461727465642E0D0AB4
:1031BE0000436F6D6D616E64206E6F7420666F7567
:1031CE006E6421003E0061315F737465703A256450
:1031DE000A0061325F737465703A25640A006133C8
:1031EE005F737465703A25640A0064697374616E66
:0831FE0063653A25640A000034
:00000001FF
