:100000000C943E000C945B000C945B000C945B0021
:100010000C945B000C945B000C945B000C945B00F4
:100020000C945B000C945B000C945B000C945B00E4
:100030000C945B000C94B0010C945B000C945B007E
:100040000C945B000C945B000C945B000C945B00C4
:100050000C94C5020C945B000C942E020C945B0073
:100060000C945B000C945B000C945B000C945B00A4
:100070000C945B000C945B000C945B0011241FBE7D
:10008000CFEFD0E1DEBFCDBF12E0A0E0B1E0ECEDFC
:10009000F9E002C005900D92A831B107D9F712E03E
:1000A000A8E1B2E001C01D92AD32B107E1F70E94B4
:1000B000A4030C94EC040C940000DC011496ED9164
:1000C000FC9115972FEF30E0318320831296ED914C
:1000D000FC911397118210820895DC011296ED9124
:1000E000FC911397118210820895DC011296ED9114
:1000F000FC911397808191818095918380830895ED
:10010000DC011296ED91FC91139771836083089541
:10011000CF93DF9300D000D000D0CDB7DEB79B01E6
:100120008B839C83E1E0F0E002C0EE0FFF1F6A9535
:10013000E2F7FE83ED83AC016E2F7E8180E090E0DC
:1001400026960FB6F894DEBF0FBECDBFDF91CF91DC
:100150000895DC011296ED91FC9113970190F081C6
:10016000E02D208131810C9002C0369527950A94AC
:10017000E2F7C901817099270895DC011296ED918B
:10018000FC9113970280F381E02D20813181149638
:100190008D919C911597282B392B318320830895BD
:1001A000DC011296ED91FC9113970280F381E02D12
:1001B00014962D913C9115972095309580819181D1
:1001C00082239323918380830895672B11F00C94ED
:1001D000BD000C94D000DC011296ED91FC911397B8
:1001E0000280F381E02D2081318114968D919C91C4
:1001F000159728273927318320830895CF93DF93DC
:10020000EC0188EE93E00E944201CE010E94EB00D7
:1002100088EE93E00E944201CE010E94EB0088EE3E
:1002200093E0DF91CF910C944201CF93DF93EC01E7
:100230000E94D000EA81FB810480F581E02D80815D
:1002400091812C813D81822B932B91838083DF913F
:10025000CF910895CF93DF93EC010E94D000EA8103
:10026000FB810480F581E02D2C813D812095309526
:10027000808191818223932391838083DF91CF9129
:10028000089508950895CF92DF92EF92FF920F9311
:100290001F93CF93DF936C017B018A0186E090E08E
:1002A0000E94C503EC01D982C882FB82EA821D83C9
:1002B0000C83C6010E94D000C7010E94BD00C80186
:1002C0000E94D000C6010E941501C7010E941501BD
:1002D000C8010E94150180911A0290911B02FC0135
:1002E000EE0FFF1FE25EFD4FD183C0830196909316
:1002F0001B0280931A02CE01DF91CF911F910F91C3
:10030000FF90EF90DF90CF900895E1E8F0E08081DA
:1003100088608083EFE6F0E080818260808378945B
:100320008091D8019091D9019093890080938800A1
:10033000E1E8F0E08081836080830895CF93DF93CC
:10034000EC01888199810E94BD0088819981DF91AB
:10035000CF910C94D000FC01828193810C94E50034
:100360001F920F920FB60F9211242F933F934F932A
:100370005F936F937F938F939F93AF93BF93EF930D
:10038000FF9380911C0290911D02019690931D0293
:1003900080931C02E0911802F0911902EE0FFF1FEA
:1003A000E25EFD4F0190F081E02D808191810E94FD
:1003B000EB0080911C0290911D02803D974079F4E2
:1003C000E0911802F0911902EE0FFF1FE25EFD4F5F
:1003D0000190F081E02D828193810E94EB00809159
:1003E0001C0290911D02803A9F4039F5E09118025D
:1003F000F0911902EE0FFF1FE25EFD4F0190F081B8
:10040000E02D828193810E94EB00809118029091EF
:1004100019020196909319028093180220911A02F2
:1004200030911B028217930721F410921902109247
:10043000180210921D0210921C02FF91EF91BF91C1
:10044000AF919F918F917F916F915F914F913F916C
:100450002F910F900FBE0F901F9018951F920F9223
:100460000FB60F9211242F933F934F935F936F9387
:100470007F938F939F93AF93BF93EF93FF93E091FD
:100480002602F0912702828193810E9480038111CC
:100490000AC0E0912602F0912702828193810E9496
:1004A00068038093C600FF91EF91BF91AF919F9138
:1004B0008F917F916F915F914F913F912F910F900D
:1004C0000FBE0F901F901895CF93DF9385E090E0BB
:1004D0000E94C503EC0180E490E00E94150399831B
:1004E000888380E490E00E9415039B838A831C82AA
:1004F00089E18093C4001092C50088ED8093C1000B
:100500007894D0932702C0932602CE01DF91CF9139
:100510000895E0912602F091270214820895E09157
:100520002602F0912702BC01828193810E9456032A
:100530008091C00085FF0AC0E0912602F091270259
:10054000828193810E9468038093C6000895E091A0
:100550002602F091270284810895E0912602F0910D
:100560002702682F828193810E9437038091C00007
:1005700085FF0AC0E0912602F091270282819381D3
:100580000E9468038093C60008951F920F920FB6D1
:100590000F9211242F933F934F935F936F937F9309
:1005A0008F939F93AF93BF93EF93FF938091C60078
:1005B00080932802809128028D3011F41092280235
:1005C00060912802E0912602F091270280819181BA
:1005D0000E943703809128020E94AD028091280278
:1005E00081110AC081E092E00E948F02E091260210
:1005F000F091270281E08483FF91EF91BF91AF9149
:100600009F918F917F916F915F914F913F912F912A
:100610000F900FBE0F901F9018958091C00087FF1C
:10062000FCCF8091C60090E008950F931F93CF9365
:10063000DF93EC010E94C5038C01FC018C0F9D1F10
:10064000E817F90711F01192FBCF88E090E00E94C3
:10065000C503FC0111830083138212821582148268
:10066000D783C683DF91CF911F910F910895FC012D
:10067000A081B18184819581A80FB91F6C932681D7
:100680003781848195810196B9010E94B1039583D8
:100690008483428153814817590739F4CA0101966E
:1006A000B9010E94B1039383828308950F931F932E
:1006B000CF93DF938C01EB016991662321F0C80190
:1006C0000E943703F9CFDF91CF911F910F910895C9
:1006D000FC0182819381248135818217930771F017
:1006E000A081B181A80FB91F2C91019666817781F5
:1006F0000E94B10393838283822F089580E008953E
:10070000FC0181E0428153812481358142175307E6
:1007100009F080E0089580EE91E00E948F020E942F
:10072000A7028823E1F382EE91E00E948F020C94ED
:1007300089028EEE91E00E948F0284E092E00E9496
:100740008F020E948B03FDCF0E94640284E291E03D
:100750000E94150184E291E00E94D0000E9499035A
:10076000FFCFAA1BBB1B51E107C0AA1FBB1FA617C7
:10077000B70710F0A61BB70B881F991F5A95A9F74A
:1007800080959095BC01CD010895CF93DF93823081
:10079000910510F482E090E0E0912B02F0912C02A0
:1007A00020E030E0A0E0B0E0309739F140815181A5
:1007B00048175907B8F04817590771F48281938197
:1007C000109729F013969C938E9312972CC09093B8
:1007D0002C0280932B0227C02115310531F04217DE
:1007E000530718F0A901DB0101C0EF019A01BD0117
:1007F000DF010280F381E02DD7CF21153105F9F01B
:10080000281B390B2430310580F48A819B816115C6
:10081000710521F0FB019383828304C090932C0225
:1008200080932B02FE01329644C0FE01E20FF31FBB
:100830008193919322503109398328833AC02091C2
:10084000290230912A02232B41F42091DC013091BE
:10085000DD0130932A02209329022091DA013091A0
:10086000DB012115310541F42DB73EB74091DE0182
:100870005091DF01241B350BE0912902F0912A02EF
:10088000E217F307A0F42E1B3F0B2817390778F067
:10089000AC014E5F5F4F2417350748F04E0F5F1FC6
:1008A00050932A02409329028193919302C0E0E081
:1008B000F0E0CF01DF91CF910895CF93DF930097C0
:1008C00009F487C0FC01329713821282C0912B0277
:1008D000D0912C02209781F420813181280F391F7B
:1008E0008091290290912A028217930779F5F0935B
:1008F0002A02E09329026DC0DE0120E030E0AE174D
:10090000BF0750F412964D915C9113979D014115CC
:10091000510509F1DA01F3CFB383A28340815181FC
:10092000840F951F8A179B0771F48D919C911197E5
:10093000840F951F02969183808312968D919C91CE
:100940001397938382832115310529F4F0932C02A8
:10095000E0932B023EC0D9011396FC93EE931297BD
:100960004D915D91A40FB51FEA17FB0779F48081C3
:100970009181840F951F0296D90111969C938E93B5
:100980008281938113969C938E931297E0E0F0E01E
:100990008A819B81009719F0FE01EC01F9CFCE010D
:1009A000029628813981820F931F2091290230916C
:1009B0002A022817390769F4309729F410922C027B
:1009C00010922B0202C013821282D0932A02C0938B
:0C09D0002902DF91CF910895F894FFCF29
:1009DC000000D20101000100D20102000200D2018C
:1009EC0004000300D20108000400D201100005002D
:1009FC00D20120000600D20140000700D201800085
:100A0C000000CC0101000100CC0102000200CC016D
:100A1C0004000300CC0108000400CC011000050008
:100A2C00CC0120000600CC0140000700CC01800066
:100A3C000000C60101000100C60102000200C6014F
:100A4C0004000300C60108000400C60110000500E4
:100A5C00C60120000600C60140000700C601800048
:100A6C000000C00101000100C00102000200C00131
:100A7C0004000300C00108000400C00110000500C0
:100A8C00C00120000600C00140000700C00180002A
:100A9C00200022002100230025002400260028002D
:100AAC00270029002B002A00280000002D0220001E
:100ABC003E00476F742073747566660D0A002D3DF9
:100ACC002064656C7461626F742076302E31203D29
:100ADC002D0D0A00436F6E736F6C65205374617239
:080AEC007465642E0D0A000080
:00000001FF
