:100000000C94DD000C94FA000C94FA000C94FA00A5
:100010000C94FA000C94FA000C94FA000C94FA0078
:100020000C94FA000C94FA000C94FA000C94FA0068
:100030000C94FA000C9493090C94FA000C94FA00B6
:100040000C94FA000C94FA000C94FA000C94FA0048
:100050000C9460020C94FA000C94C8010C94FA0001
:100060000C94FA000C94FA000C94FA000C94FA0028
:100070000C94FA000C94FA000C94FA006E616E0075
:10008000696E660000407A10F35A00A0724E18099B
:100090000010A5D4E80000E87648170000E40B54EF
:1000A000020000CA9A3B000000E1F50500008096BE
:1000B0009800000040420F000000A08601000000F0
:1000C000102700000000E8030000000064000000AA
:1000D00000000A00000000000100000000002C7673
:1000E000D888DC674F0823DFC1DFAE59E1B1B7968E
:1000F000E5E3E453C63AE651997696E8E6C28426EB
:10010000EB898C9B62ED407C6FFCEFBC9C9F40F2C6
:10011000BAA56FA5F490055A2AF75C936B6CF96742
:100120006DC11BFCE0E40D47FEF520E6B500D0ED07
:10013000902E0300943577050080841E080000206F
:100140004E0A000000C80C333333330F986E12830D
:100150001141EF8D2114893BE65516CFFEE6DB18E1
:10016000D1844B381BF77C1D901DA4BBE4242032A6
:1001700084725E228100C9F124ECA1E53D274E4145
:100180004E494E495459494E46CDCCCC3D0AD72311
:100190003C17B7D13877CC2B329595E6241FB14F59
:1001A0000A000020410000C84200401C4620BCBE9E
:1001B0004CCA1B0E5AAEC59D740011241FBECFEF52
:1001C000D0E1DEBFCDBF13E0A0E0B1E0EAE7FBE2A3
:1001D00002C005900D92A237B107D9F71BE0A2E744
:1001E000B3E001C01D92A63FB107E1F70E943D0EAA
:1001F0000C94BB150C940000DC011496ED91FC915D
:1002000015972FEF20831296ED91FC911397108292
:100210000895DC011296ED91FC91139710820895D8
:10022000DC011296ED91FC9113978FEF8083089576
:10023000DC011296ED91FC9113978081809580836B
:100240000895DC011296ED91FC9113976083089557
:10025000CF93DF9300D000D000D0CDB7DEB79B01A5
:100260008B839C83E1E0F0E002C0EE0FFF1F6A95F4
:10027000E2F7FE83ED83AC016E2F7E8180E090E09B
:1002800026960FB6F894DEBF0FBECDBFDF91CF919B
:100290000895DC011296ED91FC9113970190F08185
:1002A000E02D208130E00C9002C0369527950A940D
:1002B000E2F7C901817099270895DC011296ED914A
:1002C000FC9113970280F381E02D208114968C918C
:1002D000282B20830895DC011296ED91FC91139751
:1002E0000280F381E02D208114968C9180958223E9
:1002F00080830895672B11F00C945D010C946B01C1
:10030000DC011296ED91FC9113970190F081E02DA4
:1003100014968C9180830895CF93DF93EC0188EE3F
:1003200093E00E94C701CE010E94800188EE93E015
:100330000E94C701CE010E94800188EE93E0DF9108
:10034000CF910C94C701CF93DF93EC010E946B0116
:10035000EA81FB810480F581E02D80819C81892BDD
:100360008083DF91CF910895CF93DF93EC010E94BA
:100370006B01EA81FB810480F581E02D90818C8105
:10038000809589238083DF91CF9108950895089502
:100390001F920F920FB60F9211242F933F934F93FA
:1003A0005F936F937F938F939F93AF93BF93EF93DD
:1003B000FF93E0911F06F0912006828193810E94B5
:1003C000B30381110AC0E0911F06F09120068281DB
:1003D00093810E9446038093C6008CE391E00E94C3
:1003E0008001FF91EF91BF91AF919F918F917F918C
:1003F0006F915F914F913F912F910F900FBE0F9092
:100400001F901895CF93DF9385E090E00E94BA107B
:10041000EC0180E890E00E94E1029983888380E803
:1004200090E00E94E1029B838A831C828FE080938C
:10043000C4001092C50088ED8093C1007894D093D9
:100440002006C0931F06CE01DF91CF910895E1EC05
:10045000F0E08081886D80830895E1ECF0E0808198
:10046000877280830895E0911F06F09120068081B5
:1004700091810E9446038A3011F0811108C0E091F9
:100480001F06F091200684818150848380E00895C6
:10049000E0911F06F0912006BC01828193810E94A9
:1004A00034038091C00085FF0AC0E0911F06F091DF
:1004B0002006828193810E9446038093C60008959E
:1004C0001F920F920FB60F9211242F933F934F93C9
:1004D0005F936F937F938F939F93AF93BF93EF93AC
:1004E000FF938091C6008093210680912106E091C0
:1004F0001F06F09120068F3759F4808191810E9468
:100500009B038823E1F086ED92E00E94480217C029
:10051000809121068D3011F4109221066091210600
:10052000808191810E94150380912106811107C06D
:10053000E0911F06F091200684818F5F8483FF91F4
:10054000EF91BF91AF919F918F917F916F915F914B
:100550004F913F912F910F900FBE0F901F901895C4
:10056000E0911F06F091200684810895E0911F0616
:10057000F0912006682F828193810E94150380915B
:10058000C00085FF0AC0E0911F06F091200682811D
:1005900093810E9446038093C6000895CF93C82F8D
:1005A0008A3019F48DE00E94B6028C2FCF910C9402
:1005B000B6028091C00087FFFCCF8091C60090E01A
:1005C00008950F931F93CF93DF93009172031091BF
:1005D000730398012F5F3F4F30937303209372038F
:1005E000102F00270A581C4F1093750300937403B3
:1005F000C0E0D0E0C817D90731F0F801EC0FFD1FBB
:1006000010822196F7CF88E090E00E94BA10FC019A
:10061000118300831382128215821482D783C683CA
:10062000DF91CF911F910F910895FC01A081B181BD
:1006300084819581A80FB91F6C93268137818481AD
:1006400095810196B9010E948E0E95838483428123
:1006500053814817590739F4CA010196B9010E941C
:100660008E0E9383828308950F931F93CF93DF930E
:100670008C01EB016991662321F0C8010E941503EA
:10068000F9CFDF91CF911F910F910895FC018281E5
:100690009381248135818217930771F0A081B18104
:1006A000A80FB91F2C910196668177810E948E0E4A
:1006B00093838283822F089580E00895FC01CB010B
:1006C00022813381820F931F668177810E948E0E73
:1006D0000190F081E02DE80FF91F80810895FC0161
:1006E000CB0122813381820F931F668177810E9423
:1006F0008E0E0190F081E02DE80FF91F40830895E0
:10070000CF93DF93FC01EB012681378182819381B6
:10071000860F971FB9010E948E0E93838283848176
:1007200095818C0F9D1FB9010E948E0E9583848345
:10073000DF91CF910895FC018481958122813381DD
:100740002817390771F00197A081B181A80FB91F4F
:100750002C91668177810E948E0E95838483822FEF
:10076000089580E00895FC0181E042815381248155
:1007700035814217530709F080E0089508950895E0
:10078000EAE7F5E081818F9380818F93E8E7F5E0D8
:1007900081818F9380818F938AED92E09F938F93D5
:1007A0000E9434130F900F900F900F900F900F90A6
:1007B0000895CF93DF93C0917A05D0917B0588810E
:1007C000811103C08AEE92E01CC065E073E0CE01A7
:1007D0000E94E612892B31F48EE491E0DF91CF91F3
:1007E0000C945D0168E073E0CE010E94E612892B53
:1007F00031F48EE491E0DF91CF910C946B018CE0A9
:1008000093E0DF91CF910C944F1388E491E00E9424
:1008100049019F938F9383E193E09F938F930E946D
:1008200034130F900F900F900F900895CF93DF9394
:10083000C0E6DAEE80E391E00E94800123E02A9591
:10084000F1F7000021972097A9F78FE392E42FE0BA
:10085000815090402040E1F700C00000C0E6DAEE91
:1008600080E391E00E94800183E08A95F1F7000027
:1008700021972097A9F79FE322E48FE09150204031
:100880008040E1F700C00000C0E6DAEE80E391E0CE
:100890000E94800193E09A95F1F70000219720973C
:1008A000A9F72FE382E49FE0215080409040E1F7D8
:1008B00000C00000DF91CF910895CF93DF93E091C6
:1008C000C402F091C502108211821282138280E06C
:1008D00090E0A0E8BFE784839583A683B783108662
:1008E0001586128A6085E091E20BF091E30B82811C
:1008F0009381772767FD70950E947A01E091C40289
:10090000F091C5026585E091E40BF091E50B8281E1
:100910009381772767FD70950E947A01E091C40268
:10092000F091C5026289E091E60BF091E70B8281BC
:100930009381772767FD70950E947A01E091C40248
:10094000F091C50280E090E0A0E8BFE38187928744
:10095000A387B48786879787A08BB18B838B948B73
:10096000A58BB68B8FE193E00E944F1381E090E05E
:1009700090930906809308060E94500988EA91E046
:100980000E944901892B41F4E091C402F091C50213
:1009900011861286138614868EEA91E00E94490120
:1009A000892B41F4E091C402F091C50216861786A6
:1009B000108A118A8AE591E00E944901C091C4021F
:1009C000D091C502892B21F41B8A1C8A1D8A1E8A9C
:1009D00069857A858B859C8520E030E0A9010E949D
:1009E000520F8111CBCF6E857F858889998920E050
:1009F00030E0A9010E94520F8111C0CF6B897C8920
:100A00008D899E8920E030E0A9010E94520F81115A
:100A1000B5CF1092090610920806DF91CF910C9481
:100A20007209E091C402F091C50210821182128213
:100A3000138280E090E0A0E8BFE784839583A683DB
:100A4000B78381E080878587828B6085E091E20BA8
:100A5000F091E30B82819381772767FD70950E9467
:100A60007A01E091C402F091C5026585E091E40B42
:100A7000F091E50B82819381772767FD70950E9445
:100A80007A01E091C402F091C5026289E091E60B1F
:100A9000F091E70B82819381772767FD70950E9423
:100AA0007A01E091C402F091C50280E090E0A0E8F4
:100AB000BFE381879287A387B48786879787A08BB8
:100AC000B18B838B948BA58BB68B88E293E00E94CD
:100AD0004F1381E090E090930906809308060E94EE
:100AE000500988E491E00E9449010197D1F71092E2
:100AF0000906109208060C9472090E945D040E9477
:100B000011050C94F0064F925F926F927F92AF9214
:100B1000BF92CF92DF92EF92FF920F931F93CF93EA
:100B2000DF93CDB7DEB72B970FB6F894DEBF0FBEBD
:100B3000CDBFC0908405D0908505C6010E94E51107
:100B4000E6E8F5E020E030E041E0C41AD108EC1519
:100B5000FD0559F04191411103C0205E3F4FF7CF91
:100B6000240F311D47FD3A95F2CF28173907C1F000
:100B700080E490E02B960FB6F894DEBF0FBECDBF99
:100B8000DF91CF911F910F91FF90EF90DF90CF9069
:100B9000BF90AF907F906F905F904F900C944813F0
:100BA00080917A0590917B050E94E1112B013C0117
:100BB00080918205909183050E94E1119B01AC0117
:100BC00080917C0590917D05288739874A875B87CE
:100BD0000E94E11169837A838B839C8380917E05D7
:100BE00090917F050E94E1115B016C01809180056D
:100BF000909181050E94E111182F5B854A85398506
:100C00002885288739874A875B876D837E839F8302
:100C10000E94E606288539854A855B856D817E813F
:100C20009F818111EECF9F931F937F936F93E980F4
:100C3000FA800B811C81C301B2010E9463070F90EF
:100C40000F900F900F902B960FB6F894DEBF0FBE4B
:100C5000CDBFDF91CF911F910F91FF90EF90DF906B
:100C6000CF90BF90AF907F906F905F904F9008951E
:100C700084EB92E09093F10B8093F00B83E393E08D
:100C80000E944F1387E493E00C944F13EF92FF926E
:100C90000F931F93CF93DF93E6E8F5E086E0E6300D
:100CA000F80711F01192FACF86E895E09093790554
:100CB00080937805EC0100E010E0CE018658954065
:100CC0007C010E943302811111C0F0927705E092FD
:100CD0007605F701EA57FA4F1082E0907805F09018
:100CE000790508ED11E0C0E0D0E013C09E012F5F50
:100CF0003F4F803259F40F5F1F4FF801EE0FFF1F77
:100D0000E858FA4F31832083188201C08883E901B3
:100D1000D4CFB701C8010E94E6120A5E1F4F892B8B
:100D200091F486E18C9FF0018D9FF00D1124E85223
:100D3000FE4F0488F589E02DDF91CF911F910F912F
:100D4000FF90EF9009942196CA30D10511F788E5FC
:100D500093E0DF91CF911F910F91FF90EF900C9452
:100D60004F138EE390E00E9448130E94B002882344
:100D7000E1F30C9446060E94B106FDCF8F929F923C
:100D8000AF92BF92CF92DF92EF92FF9269017A0108
:100D90009B01AC010E9400104B015C01A701960170
:100DA000C701B6010E9400109B01AC01C501B4014E
:100DB0000E94EE0EFF90EF90DF90CF90BF90AF902B
:100DC0009F908F900C9467100895089581E0209172
:100DD0000606309107062034310509F080E00895B9
:100DE0001092C3021092C2021092070610920606D9
:100DF00008958091C2029091C3020895CF9380918B
:100E0000C2029091C302C7E1C89FF001C99FF00DD3
:100E10001124EE5DF94FF093C502E093C4026085A2
:100E2000E091E20BF091E30B82819381772767FDDC
:100E300070950E947A018091C2029091C302C89F6E
:100E4000F001C99FF00D1124EE5DF94F6585E09129
:100E5000E40BF091E50B82819381772767FD709514
:100E60000E947A018091C2029091C302C89FF00152
:100E7000C99FF00D1124EE5DF94F6289E091E60BF8
:100E8000F091E70B82819381772767FD70950E942F
:100E90007A01109212061092130610921406109204
:100EA000150610920E0610920F0610921006109260
:100EB000110610920A0610920B0610920C06109260
:100EC0000D06CF9108954F925F926F927F92AF92ED
:100ED000BF92CF92DF92EF92FF920F931F93CF9327
:100EE000DF93CDB7DEB72C970FB6F894DEBF0FBEF9
:100EF000CDBF6D837E838F83988729873A874B8701
:100F00005C87270138018D8D9E8DAF8DB8A18983B7
:100F10009A83AB83BC8320910606309107068091AB
:100F2000C2029091C302820F931F60E470E00E949E
:100F3000A20E8C012F5F3F4F3093070620930606C9
:100F400087E1809FF001819FF00D1124EE5DF94F44
:100F50008D819E81AF81B88580839183A283B38385
:100F600089859A85AB85BC8584839583A683B78361
:100F7000FF24F39420E030E0A901C301B2010E94F4
:100F8000FC0F18160CF0F12C81E08F2597E1909F53
:100F9000F001919FF00D1124EE5DF94F8087FF2441
:100FA000F39420E030E0A901C601B5010E94FC0FD6
:100FB00018160CF0F12C81E08F2597E1909FF0013D
:100FC000919FF00D1124EE5DF94F8587FF24F39476
:100FD00020E030E0A90169817A818B819C810E94A7
:100FE000FC0F18160CF0F12C81E08F2597E1909FF3
:100FF000F001919FF00D1124EE5DF94F828BE89482
:1010000077F84186528663867486D601C501BF771C
:1010100086879787A08BB18B89819A81AB81BC81B0
:10102000BF77838B948BA58BB68B8091180681112B
:1010300018C00E94FE062C960FB6F894DEBF0FBEB5
:10104000CDBFDF91CF911F910F91FF90EF90DF9077
:10105000CF90BF90AF907F906F905F904F900C9427
:1010600050092C960FB6F894DEBF0FBECDBFDF91AE
:10107000CF911F910F91FF90EF90DF90CF90BF9095
:10108000AF907F906F905F904F9008958091C202D3
:101090009091C302019660E470E00E94A20E9093CA
:1010A000C3028093C20280910606909107060197C1
:1010B00090930706809306061816190614F40C94EC
:1010C000FE060C947209CF92DF92EF92FF920F937B
:1010D0001F93CF93DF936C017B018A0186E090E040
:1010E0000E94BA10EC01D982C882FB82EA821D8379
:1010F0000C83C6010E946B01C7010E945D01C801FB
:101100000E946B01C6010E94A301C7010E94A301B6
:10111000C8010E94A301E0911906F0911A06EE0F92
:10112000FF1FEE51F44FD183C08380911906909137
:101130001A06019690931A0680931906CE01DF9144
:10114000CF911F910F91FF90EF90DF90CF90089576
:10115000F89410928000E1E8F0E010828091CE02D5
:101160009091CF029093890080938800808188605D
:10117000808378940895CF93DF93EC0188819981DF
:101180000E945D0188819981DF91CF910C946B0160
:10119000FC01828193810C947A019093CF02809319
:1011A000CE028091CE029091CF02909389008093DD
:1011B000880008958091CE029091CF020895CF9239
:1011C000DF92EF92FF926B017C0180911D0690915E
:1011D0001E06019690931E0680931D0620911D0603
:1011E00030911E068091C6029091C7028217930724
:1011F0000CF051C010921E0610921D068091CE0276
:101200009091CF029F938F938BE693E09F938F9360
:101210000E9434130F900F900F900F9020E030E059
:1012200040EA51E4C701B6010E94520F2091CE025C
:101230003091CF0287FF12C08091CC029091CD02F5
:101240002817390704F58091CE029091CF022091A2
:10125000C8023091C902820F931F11C08091CA0247
:101260009091CB028217930774F48091CE029091F3
:10127000CF022091C8023091C902821B930B909338
:10128000CF028093CE028091CE029091CF029093B4
:10129000890080938800FF90EF90DF90CF900895B1
:1012A000F894E091E20BF091E30B848195810E9428
:1012B0006B0186E391E00E945D01E1E8F0E080814E
:1012C00084608083EFE6F0E080818260808380919B
:1012D000CC029091CD020E94CD0881E08093180647
:1012E00078940895F894E091E20BF091E30B8481F7
:1012F00095810E945D0186E391E00E946B01E1E827
:10130000F0E080818B7F8083EFE6F0E080818D7F4D
:1013100080838091CC029091CD020E94CD081092E2
:101320001806789408951F920F920FB60F92112409
:10133000CF92DF92EF92FF922F933F934F935F9361
:101340006F937F938F939F93AF93BF93CF93DF93CD
:10135000EF93FF93C091C402D091C5026881798157
:101360008A819B8120E030E0A9010E94FC0F1816C1
:101370003CF08091080690910906019709F0E9C0B8
:1013800060911206709113068091140690911506D3
:1013900029853A854B855C85C0901206D09013064E
:1013A000E0901406F09015060E94EE0E0E94560F73
:1013B000EB01C701B6010E94560FC617D70741F0CF
:1013C000E091E20BF091E30B808191810E9480011A
:1013D00060910E0670910F06809110069091110693
:1013E000E091C402F091C502268537854089518974
:1013F000C0900E06D0900F06E0901006F0901106F7
:101400000E94EE0E0E94560FEB01C701B6010E942A
:10141000560FC617D70741F0E091E40BF091E50BAA
:10142000808191810E94800160910A0670910B0673
:1014300080910C0690910D06E091C402F091C502D6
:101440002389348945895689C0900A06D0900B06B5
:10145000E0900C06F0900D060E94EE0E0E94560FD2
:10146000EB01C701B6010E94560FC617D70741F01E
:10147000E091E60BF091E70B808191810E94800161
:1014800060911206709113068091140690911506D2
:10149000C091C402D091C50229853A854B855C85EF
:1014A0000E94EE0E6093120670931306809314064A
:1014B0009093150660910E0670910F0680911006AC
:1014C000909111062E853F85488959890E94EE0E1C
:1014D00060930E0670930F0680931006909311068A
:1014E00060910A0670910B0680910C0690910D0692
:1014F0002B893C894D895E890E94EE0E60930A0615
:1015000070930B0680930C0690930D066881798189
:101510008A819B8120E030E040E85FE30E94ED0E8D
:10152000688379838A839B836C817D818E819F818F
:1015300020E030E040E85FE30E94ED0E6C837D83A5
:101540008E839F836C817D818E819F810E94DF08C5
:1015500002C00E944608FF91EF91DF91CF91BF91A9
:10156000AF919F918F917F916F915F914F913F913B
:101570002F91FF90EF90DF90CF900F900FBE0F90C4
:101580001F901895A3E1B0E0E8ECFAE00C94B60ED9
:101590007C011B016A01FC0117821682838181FF95
:1015A00066C3BE016F5F7F4F4B01F7019381F1016D
:1015B00093FD859193FF81911F01882309F453C303
:1015C000853239F493FD859193FF81911F01853216
:1015D00039F4B70190E00E94021356016501E5CF8E
:1015E00010E0512C20E02032A0F48B3269F030F46E
:1015F000803259F0833269F420612CC08D3239F089
:10160000803339F4216026C02260246023C0286022
:1016100021C027FD27C030ED380F3A3078F426FF7F
:1016200006C0FAE01F9F300D1124132F13C06AE08B
:10163000569E300D1124532E20620CC08E3221F4A0
:1016400026FD11C3206406C08C3611F4206802C048
:10165000883641F4F10193FD859193FF81911F013B
:101660008111C1CF9BEB980F933018F42061805EFD
:1016700006C09BE9980F933008F0AAC12F7E26FF81
:1016800016E02F73722E853621F4F22FF0647F2E30
:1016900008C0863621F4622F6068762E02C01111D0
:1016A000115077FE07C01C3348F444244394410E84
:1016B00027E00BC0183030F4212F06C027E04CE3A0
:1016C000442E03C027E017E0412C560174E0A70E1A
:1016D000B11CF6016081718182819381042DA40186
:1016E0000E9403126C01098100FF02C003FF06C0C3
:1016F00071FC07C072FC08C0612C08C03DE2632E7B
:1017000005C02BE2622E02C090E2692E802F8C7001
:1017100099F1662011F084E001C083E0851510F096
:10172000512C0BC0581A73FC08C0B70180E290E03E
:101730000E9402135A94C9F7F3CF662029F0B7012B
:10174000862D90E00E94021303FD03C000E810E024
:1017500002C00CE710E0F72DF0717F2EF8018491A4
:10176000882309F476C271108052B70190E00E947C
:1017700002130F5F1F4FF2CF77FE0FC04C0C04FF18
:1017800004C08A81813309F44A94141474F5F8E092
:10179000F41578F588E0482E2CC076FC2AC0812FFD
:1017A00090E08C159D059CF06CEFC6166FEFD60689
:1017B00074F0772D7068772E0AC0E2E0F0E0EC0F4D
:1017C000FD1FE10FF11D8081803319F411501111BB
:1017D000F4CF77FE0EC044244394410E812F90E055
:1017E000C816D9062CF41C1904C04424439401C023
:1017F00010E077FE07C01C141D043CF496012F5F17
:101800003F4F05C025E030E002C021E030E0662017
:1018100011F02F5F3F4F112331F0412F50E04F5F08
:101820005F4F240F351F452D50E02417350714F462
:10183000521A01C0512C872D897049F4552039F076
:10184000B70180E290E00E9402135A94F7CF66201D
:1018500029F0B701862D90E00E94021373FC09C0A5
:10186000552039F0B70180E390E00E9402135A94AA
:10187000F7CF77FE5FC09C2D8D2DD7FE02C090E084
:1018800080E0692E782E40E050E0C601841991096D
:101890009D878C87960126193709280D391D812FC0
:1018A00090E0EE27FF27E81BF90BFF87EE87FFEF9D
:1018B0006F167F0669F4B7018EE290E02B8B3A8BAE
:1018C000488B598B0E940213598948893A892B8980
:1018D000C614D70454F06C857D85661577052CF405
:1018E000F901E40FF51F818101C080E371E0671AFF
:1018F00071084F5F5F4FEE85FF856E167F066CF0B7
:10190000B70190E02B8B3A8B488B598B0E940213C6
:101910002B893A8948895989CACF6C147D0439F4D6
:101920009A81963318F4953311F404FF81E3B701DB
:1019300090E04BC08A81813309F00F7EB70190E0BF
:101940000E940213111105C074FE18C085E490E0D6
:1019500017C0B7018EE290E00E94021382E0662475
:101960006394680EF401E80FF11D8081B70190E0E7
:101970000E940213115041F3862DF1CF85E690E0CD
:10198000B7010E940213D7FC05C0C114D10439F479
:1019900004FF05C0D194C194D1088DE201C08BE24F
:1019A000B70190E00E94021380E36AE0C616D104FA
:1019B0002CF08F5FFAE0CF1AD108F7CFB70190E093
:1019C0000E940213B701C601C0960E94021341C1D2
:1019D000833631F0833779F0833509F058C021C060
:1019E000560172E0A70EB11CF6018081898301E0E7
:1019F00010E0640114C05601F2E0AF0EB11CF60114
:101A0000C080D18026FF03C0612F70E002C06FEF5D
:101A10007FEFC6012B8B0E94EF128C012B892F7751
:101A200015C05601F2E0AF0EB11CF601C080D180A6
:101A300026FF03C0612F70E002C06FEF7FEFC60189
:101A40002B8B0E94DB128C012B892068722E23FDC8
:101A50001AC0852D90E008171907A8F4B70180E295
:101A600090E00E9402135A94F4CFF60177FC85911E
:101A700077FE81916F01B70190E00E94021351102F
:101A80005A94015011090115110579F7E2C0843605
:101A900011F0893651F5560127FF09C0F4E0AF0E69
:101AA000B11CF60160817181828193810AC0F2E0EC
:101AB000AF0EB11CF60160817181882777FD80959A
:101AC000982F022F0F7697FF08C0909580957095FC
:101AD00061957F4F8F4F9F4F00682AE030E0A4014F
:101AE0000E947C13C82EC8183EC0022F853721F4EF
:101AF0000F7E2AE030E01DC0097F8F3691F018F488
:101B0000883559F0B0C0803719F0883711F0ABC074
:101B1000006104FF09C0046007C024FF08C006601C
:101B200006C028E030E005C020E130E002C020E13E
:101B300032E0560107FF09C0F4E0AF0EB11CF60118
:101B4000608171818281938108C0F2E0AF0EB11C87
:101B5000F6016081718180E090E0A4010E947C1315
:101B6000C82EC8180F7706FF0BC0202F2E7FC11676
:101B700050F404FF0AC002FD08C0202F2E7E05C0CD
:101B8000DC2C202F03C0DC2C01C0D12E24FF0DC083
:101B9000FE01EC0DF11D8081803311F4297E09C016
:101BA00022FF06C0D394D39404C0822F867809F014
:101BB000D39423FD13C020FF06C01C2DD51418F4A8
:101BC000150D1D19D52CD51468F4B70180E290E0ED
:101BD0002B8B0E940213D3942B89F5CFD51410F4CC
:101BE0005D1801C0512C24FF12C0B70180E390E0C2
:101BF0002B8B0E9402132B8922FF17C021FF03C0E9
:101C000088E590E002C088E790E0B7010CC0822F21
:101C1000867859F021FD02C080E201C08BE227FDE9
:101C20008DE2B70190E00E940213C11638F4B701AB
:101C300080E390E00E9402131150F7CFCA94F401A0
:101C4000EC0DF11D8081B70190E00E940213C110DC
:101C5000F5CF552009F4C2CCB70180E290E00E9494
:101C600002135A94F6CFF7018681978102C08FEF55
:101C70009FEF6396E2E10C94D20E8CE391E00E9418
:101C8000A30186E391E00E94A3018EE491E00E940B
:101C9000A30184E591E00E94A30180E391E00E940A
:101CA000A30188EA91E00E94B4018EEA91E00E94CB
:101CB000B4018AE591E00E94B40188E491E00E94B9
:101CC000B4018EE491E00E945D0184E591E00E9400
:101CD0005D014CE951E066E971E082EA91E00E9421
:101CE00063084CE951E060E671E080E991E00E9410
:101CF00063084CE951E06CE671E086E691E00E94F1
:101D000063080E94A8080E9472090E9402020E94B1
:101D100038060E94BB0680E090E00895AA1BBB1B1A
:101D200051E107C0AA1FBB1FA617B70710F0A61BDB
:101D3000B70B881F991F5A95A9F780959095BC01FC
:101D4000CD01089597FB072E16F4009407D077FD78
:101D500009D00E948E0E07FC05D03EF49095819527
:101D60009F4F0895709561957F4F08952F923F92F0
:101D70004F925F926F927F928F929F92AF92BF929B
:101D8000CF92DF92EF92FF920F931F93CF93DF9347
:101D9000CDB7DEB7CA1BDB0B0FB6F894DEBF0FBEA4
:101DA000CDBF09942A88398848885F846E847D84F1
:101DB0008C849B84AA84B984C884DF80EE80FD80F3
:101DC0000C811B81AA81B981CE0FD11D0FB6F89469
:101DD000DEBF0FBECDBFED0108955058BB27AA2727
:101DE0000ED0D0C0C1D030F0C6D020F031F49F3F2B
:101DF00011F41EF4B6C00EF4E095E7FBACC0E92F79
:101E0000D2D080F3BA17620773078407950718F0DA
:101E100071F49EF5EAC00EF4E0950B2EBA2FA02DBA
:101E20000B01B90190010C01CA01A0011124FF2787
:101E3000591B99F0593F50F4503E68F11A16F04082
:101E4000A22F232F342F4427585FF3CF4695379581
:101E50002795A795F0405395C9F77EF41F16BA0B46
:101E6000620B730B840BBAF09150A1F0FF0FBB1FF4
:101E7000661F771F881FC2F70EC0BA0F621F731F3D
:101E8000841F48F4879577956795B795F7959E3F9A
:101E900008F0B3CF9395880F08F09927EE0F979528
:101EA0008795089534D008F481E0089504D06894AB
:101EB000B1119CC008957FD088F09F5790F0B92F42
:101EC0009927B751A0F0D1F0660F771F881F991F8F
:101ED0001AF0BA95C9F712C0B13081F086D0B1E0DE
:101EE000089583C0672F782F8827B85F39F0B93FEE
:101EF000CCF3869577956795B395D9F73EF4909591
:101F00008095709561957F4F8F4F9F4F0895990FE2
:101F10000008550FAA0BE0E8FEEF16161706E807B3
:101F2000F907C0F012161306E407F50798F0621BD4
:101F3000730B840B950B39F40A2661F0232B242BA9
:101F4000252B21F408950A2609F4A140A6958FEFC8
:101F5000811D811D089597F99F6780E870E060E01A
:101F600008959FEF80EC089500240A941616170632
:101F700018060906089500240A941216130614067A
:101F800005060895092E0394000C11F4882352F0DD
:101F9000BB0F40F4BF2B11F460FF04C06F5F7F4F95
:101FA0008F4F9F4F089557FD9058440F551F59F07C
:101FB0005F3F71F04795880F97FB991F61F09F3F36
:101FC00079F087950895121613061406551FF2CF5F
:101FD0004695F1DF08C0161617061806991FF1CFAF
:101FE00086957105610508940895E894BB276627D6
:101FF0007727CB0197F908958ADF08F48FEF0895CA
:102000000BD0C0CFB1DF28F0B6DF18F0952309F070
:10201000A2CFA7CF1124EACFC6DFA0F3959FD1F3BB
:10202000950F50E0551F629FF001729FBB27F00D86
:10203000B11D639FAA27F00DB11DAA1F649F6627DB
:10204000B00DA11D661F829F2227B00DA11D621F2A
:10205000739FB00DA11D621F839FA00D611D221FE4
:10206000749F3327A00D611D231F849F600D211DC8
:10207000822F762F6A2F11249F5750408AF0E1F06B
:1020800088234AF0EE0FFF1FBB1F661F771F881FB4
:1020900091505040A9F79E3F510570F05CCFA6CFFC
:1020A0005F3FECF3983EDCF3869577956795B7959F
:1020B000F795E7959F5FC1F7FE2B880F911D9695C9
:1020C000879597F9089511F40EF44BCF3EC073DF56
:1020D000D0F39923D9F3CEF39F57550B87FF43D005
:1020E0000024A0E640EA900180585695979528F480
:1020F000805C660F771F881F20F026173707480778
:1021000030F4621B730B840B202931294A2BA695CE
:1021100017940794202531254A2758F7660F771F13
:10212000881F20F026173707480730F4620B730B1F
:10213000840B200D311D411DA09581F7B901842F1D
:102140009158880F9695879508959F3F31F091504B
:1021500020F4879577956795B795880F911D96958B
:10216000879597F9089591505040660F771F881F03
:10217000D2F70895CF93DF938230910510F482E077
:1021800090E0E091EC0BF091ED0B20E030E0A0E06E
:10219000B0E0309739F14081518148175907B8F0C4
:1021A0004817590771F482819381109729F013968B
:1021B0009C938E9312972CC09093ED0B8093EC0B15
:1021C00027C02115310531F04217530718F0A90136
:1021D000DB0101C0EF019A01BD01DF010280F38143
:1021E000E02DD7CF21153105F9F0281B390B24300C
:1021F000310580F48A819B816115710521F0FB0115
:102200009383828304C09093ED0B8093EC0BFE01CB
:10221000329644C0FE01E20FF31F81939193225046
:102220003109398328833AC02091EA0B3091EB0BB6
:10223000232B41F42091D2023091D3023093EB0B47
:102240002093EA0B2091D0023091D1022115310563
:1022500041F42DB73EB74091D4025091D502241BD2
:10226000350BE091EA0BF091EB0BE217F307A0F4CA
:102270002E1B3F0B2817390778F0AC014E5F5F4FDC
:102280002417350748F04E0F5F1F5093EB0B409318
:10229000EA0B8193919302C0E0E0F0E0CF01DF917F
:1022A000CF910895CF93DF93009709F487C0FC0185
:1022B000329713821282C091EC0BD091ED0B2097D4
:1022C00081F420813181280F391F8091EA0B909190
:1022D000EB0B8217930779F5F093EB0BE093EA0B86
:1022E0006DC0DE0120E030E0AE17BF0750F412965B
:1022F0004D915C9113979D014115510509F1DA014A
:10230000F3CFB383A28340815181840F951F8A1735
:102310009B0771F48D919C911197840F951F0296E4
:102320009183808312968D919C91139793838283DE
:102330002115310529F4F093ED0BE093EC0B3EC031
:10234000D9011396FC93EE9312974D915D91A40FD2
:10235000B51FEA17FB0779F480819181840F951FDF
:102360000296D90111969C938E9382819381139644
:102370009C938E931297E0E0F0E08A819B81009716
:1023800019F0FE01EC01F9CFCE01029628813981C6
:10239000820F931F2091EA0B3091EB0B281739071E
:1023A00069F4309729F41092ED0B1092EC0B02C0F7
:1023B00013821282D093EB0BC093EA0BDF91CF9183
:1023C0000895662777270C94DA13FC01882799274C
:1023D000E89421912032E9F3293010F02E30C8F32F
:1023E0002B3241F02D3239F4689404C00E94FA1265
:1023F000820F911D219120532A30C0F31EF4909535
:1024000081959F4F0895283008F027E03327DA019F
:10241000990F311D87FD916000966105710539F4B2
:1024200032602E5F3D9330E32A95E1F708959F3F98
:1024300030F080387105610509F03C5F3C5F3D93E9
:10244000913008F08068911DDF93CF931F930F9315
:10245000FF92EF92192F987F9695E92F9695969572
:10246000E90FFF27E252FF4F99273327EE24FF247D
:10247000A701E70105900894079428F4360FE71E9A
:10248000F81E491F511D660F771F881F991F06945C
:10249000A1F70590079428F4E70EF81E491F561F70
:1024A000C11D770F881F991F661F0694A1F705901D
:1024B000079428F4F80E491F561FC71FD11D880F17
:1024C000991F661F771F0694A1F70590079420F4C3
:1024D000490F561FC71FD81F990F661F771F881FE8
:1024E0000694A9F784911095177041F0D695C79579
:1024F00057954795F794E7941A95C1F7E4E8F0E00B
:1025000068941590159135916591959105907FE2AC
:102510007395E118F10A430B560BC90BD009C0F7AC
:10252000E10CF11E431F561FC91FD01D7EF47033EE
:1025300011F48A95E6CFE894015030F0080F0AF4C0
:102540000027021708F4202F2395022F7A3328F052
:1025500079E37D932A95E9F710C07D932A9589F652
:10256000069497956795379517951794E118F10A92
:10257000430B560BC90BD00998F023957E917395A8
:102580007A3308F070E37C932013B8F77E91706182
:102590007D9330F0839571E37D9370E32A95E1F7A5
:1025A0001124EF90FF900F911F91CF91DF91992708
:1025B00087FD90950895FC010590615070400110D1
:1025C000D8F7809590958E0F9F1F0895FB01DC0131
:1025D0008D91019080190110D9F3990B0895FC0198
:1025E0006150704001900110D8F7809590958E0F42
:1025F0009F1F08957AE0979F902D879F802D910DC2
:10260000112408950F931F93CF93DF93182F092F51
:10261000EB018B8181FD03C08FEF9FEF20C082FF14
:1026200010C04E815F812C813D81421753077CF49D
:10263000E881F9819F012F5F3F4F39832883108301
:1026400006C0E885F985812F0995892B29F72E8108
:102650003F812F5F3F4F3F832E83812F902FDF914C
:10266000CF911F910F910895A0E0B0E0EAE3F3E16C
:102670000C94C60EFE01359661917191AF01809167
:10268000F00B9091F10B0E94C20AE2E00C94E20E72
:102690006091F00B7091F10B0E94021308950F935B
:1026A0001F93CF93DF93E091F00BF091F10B238117
:1026B00021FF1BC0EC0100E010E089916091F00B5C
:1026C0007091F10BDB011896ED91FC91199788231D
:1026D00031F00995892B89F30FEF1FEFEECF8AE0D8
:1026E0000995892B11F4C80102C08FEF9FEFDF918C
:1026F000CF911F910F910895FA01AA27283051F127
:10270000203181F1E8946F936E7F6E5F7F4F8F4F22
:102710009F4FAF4FB1E03ED0B4E03CD0670F781F81
:10272000891F9A1FA11D680F791F8A1F911DA11D66
:102730006A0F711D811D911DA11D20D009F468949F
:102740003F912AE0269F11243019305D3193DEF647
:10275000CF010895462F4770405D4193B3E00FD0FD
:10276000C9F7F6CF462F4F70405D4A3318F0495DE8
:1027700031FD4052419302D0A9F7EACFB4E0A695CB
:102780009795879577956795BA95C9F700976105ED
:10279000710508959B01AC010A2E06945795479543
:1027A00037952795BA95C9F7620F731F841F951F38
:1027B000A01D0895A0E0B0E0E0EEF3E10C94B80EA7
:1027C0008B016115710521F0DB018C9311969C93AF
:1027D000EC015E01BFEFAB1ABB0A7501C8808C2DFE
:1027E00090E00E944115892B11F0E501F2CFEDE256
:1027F000CE1208C07E01F2E0EF0EF11CC980DD248C
:10280000D39409C02BE2C21205C07E0142E0E40E5F
:10281000F11CC980D12CE701219743E050E066E824
:1028200071E0CE010E944915892BD1F4E70122966F
:1028300045E050E061E871E0CE010E944915892B26
:1028400011F4E70127960115110519F0D801CD9370
:10285000DC93D11008C160E070E080E89FE70CC114
:1028600043E050E06EE771E0CE010E944915892BEC
:1028700059F40115110509F4FBC0B2E0EB0EF11C8F
:10288000F801F182E082F4C0F70160E070E0CB0172
:10289000C0E0D0E07F01A0EDAA2EAC0C29E02A1503
:1028A00030F14D2D4260B42E2D2D2870D2FE04C083
:1028B000211125C0219623C021112197A5E0B0E068
:1028C0009B01AC010E94A115660F771F881F991FFD
:1028D0006A0D711D811D911D6839A9E97A078A0762
:1028E000A9E19A0760F0BD2DB660BB2E08C02EEF9F
:1028F000A2120AC0D3FC50C04D2D4860B42E3196B0
:10290000D701CC90DB2CC6CF2C2D2F7D253409F0A0
:1029100043C0A081AD3241F4BD2DB061DB2E7F01FB
:1029200022E0E20EF11C0CC07F01AB3231F04FEF20
:10293000E41AF40A21E030E006C0A2E0EA0EF11C3D
:10294000A18122E030E0A053AA3018F0E21AF30A85
:1029500023C0F70120E030E02038BCE03B075CF406
:10296000A901440F551F440F551F240F351F220F77
:10297000331F2A0F311DAF014F5F5F4F7A01A081D6
:10298000A053AA3010F4FA01E7CFD4FE03C031956A
:1029900021953109C20FD31FD1FE09C001151105C0
:1029A00031F0E1E0EE1AF108D801ED92FC920E94BC
:1029B00061152D2D2370233019F06B017C0106C0A9
:1029C0006B017C01F7FAF094F7F8F09420E030E026
:1029D000A901C701B6010E94520F882309F440C023
:1029E000D7FF06C0D195C195D1090DE911E002C00C
:1029F00005EB11E04801B8E18B1A910890E2A92E8D
:102A0000B12CF8014590559065907490CA15DB057E
:102A10005CF0A3019201C701B6010E9400106B0196
:102A20007C01CA19DB09F2CF04501109B594A794AF
:102A30000815190531F78E2D880F8F2D881F8F3FB0
:102A400049F020E030E0A901C701B6010E94520F11
:102A5000811106C082E290E09093F50B8093F40B15
:102A6000C701B60109C060E070E080E89FEF04C0D4
:102A700060E070E080EC9FE7CDB7DEB7E0E10C945A
:102A8000D40E91115BC0803219F089508550D0F777
:102A90000895FB01DC014150504088F08D91813454
:102AA0001CF08B350CF4805E659161341CF06B3545
:102AB0000CF4605E861B611171F3990B0895881BFD
:102AC000FCCFE89409C097FB3EF4909580957095F3
:102AD00061957F4F8F4F9F4F9923A9F0F92F96E96A
:102AE000BB279395F695879577956795B795F111DF
:102AF000F8CFFAF4BB0F11F460FF1BC06F5F7F4F7C
:102B00008F4F9F4F16C0882311F096E911C077238D
:102B100021F09EE8872F762F05C0662371F096E896
:102B2000862F70E060E02AF09A95660F771F881F65
:102B3000DAF7880F9695879597F90895992788274A
:102B400008950E94AC15A59F900DB49F900DA49F71
:102B5000800D911D11240895A29FB001B39FC00163
:102B6000A39F700D811D1124911DB29F700D811DB9
:0A2B70001124911D0895F894FFCF81
:102B7A000000D20101000100D20102000200D201CC
:102B8A0004000300D20108000400D201100005006D
:102B9A00D20120000600D20140000700D2018000C5
:102BAA000000CC0101000100CC0102000200CC01AE
:102BBA0004000300CC0108000400CC011000050049
:102BCA00CC0120000600CC0140000700CC018000A7
:102BDA000000C60101000100C60102000200C60190
:102BEA0004000300C60108000400C6011000050025
:102BFA00C60120000600C60140000700C601800089
:102C0A000000C00101000100C00102000200C00171
:102C1A0004000300C00108000400C0011000050000
:102C2A00C00120000600C00140000700C00180006A
:102C3A00200022002100230025002400260028006D
:102C4A00270029002B002A0074656D70000000001F
:102C5A00000000000000000000000000BE036563E1
:102C6A00686F000000000000000000000000000083
:102C7A000000C003686561740000000000000000E5
:102C8A000000000000000000D90347000000000017
:102C9A000000000000000000000000000000BF0368
:102CAA0064726F7000000000000000000000000065
:102CBA000000000011057269736500000000000041
:102CCA00000000000000000000005D046765745FFA
:102CDA0073656E73650000000000000000000000CC
:102CEA0005046170726F78000000000000000000A7
:102CFA000000000000008305686F6D650000000099
:102D0A000000000000000000000000007D05736F55
:102D1A00756E640000000000000000000000000062
:102D2A00000016040000000200000000CE020000AD
:102D3A0000000100220664000A000100A00FA00F93
:102D4A000000F60B2000082008006563686F205B0E
:102D5A0025735D205B25735D0A00686561742072C6
:102D6A0065717569726573206F6E6520617267752A
:102D7A006D656E74006F6E006F6666006572726FC5
:102D8A0072210073656E73655F72783D2569007202
:102D9A006973696E672E2E0064726F7070696E6750
:102DAA002E2E002D3D2064656C7461626F7420764E
:102DBA00302E31203D2D00436F6E736F6C652053AA
:102DCA007461727465642E00436F6D6D616E642068
:102DDA006E6F7420666F756E642100733A25690AF6
:022DEA000000E7
:00000001FF
