:100000000C94DD000C94FA000C94FA000C94FA00A5
:100010000C94FA000C94FA000C94FA000C94FA0078
:100020000C94FA000C94FA000C94FA000C94FA0068
:100030000C94FA000C94EF080C94FA000C94FA005B
:100040000C94FA000C94FA000C94FA000C94FA0048
:100050000C947E020C94FA000C94C8010C94FA00E3
:100060000C94FA000C94FA000C94FA000C94FA0028
:100070000C94FA000C94FA000C94FA006E616E0075
:10008000696E660000407A10F35A00A0724E18099B
:100090000010A5D4E80000E87648170000E40B54EF
:1000A000020000CA9A3B000000E1F50500008096BE
:1000B0009800000040420F000000A08601000000F0
:1000C000102700000000E8030000000064000000AA
:1000D00000000A00000000000100000000002C7673
:1000E000D888DC674F0823DFC1DFAE59E1B1B7968E
:1000F000E5E3E453C63AE651997696E8E6C28426EB
:10010000EB898C9B62ED407C6FFCEFBC9C9F40F2C6
:10011000BAA56FA5F490055A2AF75C936B6CF96742
:100120006DC11BFCE0E40D47FEF520E6B500D0ED07
:10013000902E0300943577050080841E080000206F
:100140004E0A000000C80C333333330F986E12830D
:100150001141EF8D2114893BE65516CFFEE6DB18E1
:10016000D1844B381BF77C1D901DA4BBE4242032A6
:1001700084725E228100C9F124ECA1E53D274E4145
:100180004E494E495459494E46CDCCCC3D0AD72311
:100190003C17B7D13877CC2B329595E6241FB14F59
:1001A0000A000020410000C84200401C4620BCBE9E
:1001B0004CCA1B0E5AAEC59D740011241FBECFEF52
:1001C000D0E1DEBFCDBF13E0A0E0B1E0EEEBF9E29D
:1001D00002C005900D92AA3BB107D9F716E0AAEB31
:1001E000B3E001C01D92AA38B107E1F70E94850D66
:1001F0000C94DD140C940000DC011496ED91FC913C
:1002000015972FEF20831296ED91FC911397108292
:100210000895DC011296ED91FC91139710820895D8
:10022000DC011296ED91FC9113978FEF8083089576
:10023000DC011296ED91FC9113978081809580836B
:100240000895DC011296ED91FC9113976083089557
:10025000CF93DF9300D000D000D0CDB7DEB79B01A5
:100260008B839C83E1E0F0E002C0EE0FFF1F6A95F4
:10027000E2F7FE83ED83AC016E2F7E8180E090E09B
:1002800026960FB6F894DEBF0FBECDBFDF91CF919B
:100290000895DC011296ED91FC9113970190F08185
:1002A000E02D208130E00C9002C0369527950A940D
:1002B000E2F7C901817099270895DC011296ED914A
:1002C000FC9113970280F381E02D208114968C918C
:1002D000282B20830895DC011296ED91FC91139751
:1002E0000280F381E02D208114968C9180958223E9
:1002F00080830895672B11F00C945D010C946B01C1
:10030000DC011296ED91FC9113970190F081E02DA4
:1003100014968C9180830895CF93DF93EC0188EE3F
:1003200093E00E94C701CE010E94800188EE93E015
:100330000E94C701CE010E94800188EE93E0DF9108
:10034000CF910C94C701CF93DF93EC010E946B0116
:10035000EA81FB810480F581E02D80819C81892BDD
:100360008083DF91CF910895CF93DF93EC010E94BA
:100370006B01EA81FB810480F581E02D90818C8105
:10038000809589238083DF91CF9108950895089502
:100390001F920F920FB60F9211242F933F934F93FA
:1003A0005F936F937F938F939F93AF93BF93EF93DD
:1003B000FF93E0912706F0912806828193810E94A5
:1003C000BB0381110AC0E0912706F09128068281C3
:1003D00093810E944E038093C6008CE391E00E94BB
:1003E0008001FF91EF91BF91AF919F918F917F918C
:1003F0006F915F914F913F912F910F900FBE0F9092
:100400001F901895CF93DF9385E090E00E94021033
:10041000EC0180E091E00E94E9029983888380E00A
:1004200091E00E94E9029B838A831C828FE0809383
:10043000C4001092C50088ED8093C1007894D093D9
:100440002806C0932706CE01DF91CF910895E1ECF5
:10045000F0E08081886D80830895E1ECF0E0808198
:10046000877280830895E0912706F09128068081A5
:1004700091810E944E038A3011F0811108C0E091F1
:100480002706F091280684818150848380E00895B6
:10049000E0912706F0912806BC01828193810E9499
:1004A0003C038091C00085FF0AC0E0912706F091CF
:1004B0002806828193810E944E038093C60008958E
:1004C000E0912706F091280684810895E09127069F
:1004D000F0912806682F828193810E941D038091EC
:1004E000C00085FF0AC0E0912706F09128068281AE
:1004F00093810E944E038093C60008951F920F922D
:100500000FB60F9211242F933F934F935F936F93E6
:100510007F938F939F93AF93BF93EF93FF938091BC
:10052000C6008093290680912906E0912706F09164
:1005300028068F3759F4808191810E94A303882374
:1005400021F18CEC92E00E9448021FC080912906A4
:100550008D3011F4109229066091290680819181D5
:100560000E941D03809129060E946602809129063F
:1005700081110BC080ED92E00E944802E0912706B5
:10058000F091280684818F5F8483FF91EF91BF9162
:10059000AF919F918F917F916F915F914F913F911B
:1005A0002F910F900FBE0F901F901895CF93C82FCB
:1005B0008A3019F48DE00E9466028C2FCF910C9442
:1005C00066028091C00087FFFCCF8091C60090E05A
:1005D00008950F931F93CF93DF930091BA03109167
:1005E000BB0398012F5F3F4F3093BB032093BA03A7
:1005F000102F002702541C4F1093BD030093BC031F
:10060000C0E0D0E0C817D90731F0F801EC0FFD1FAA
:1006100010822196F7CF88E090E00E940210FC0142
:10062000118300831382128215821482D783C683BA
:10063000DF91CF911F910F910895FC01A081B181AD
:1006400084819581A80FB91F6C932681378184819D
:1006500095810196B9010E94D60D958384834281CC
:1006600053814817590739F4CA010196B9010E940C
:10067000D60D9383828308950F931F93CF93DF93B7
:100680008C01EB016991662321F0C8010E941D03D2
:10069000F9CFDF91CF911F910F910895FC018281D5
:1006A0009381248135818217930771F0A081B181F4
:1006B000A80FB91F2C910196668177810E94D60DF3
:1006C00093838283822F089580E00895FC01CB01FB
:1006D00022813381820F931F668177810E94D60D1C
:1006E0000190F081E02DE80FF91F80810895FC0151
:1006F000CB0122813381820F931F668177810E9413
:10070000D60D0190F081E02DE80FF91F4083089588
:10071000CF93DF93FC01EB012681378182819381A6
:10072000860F971FB9010E94D60D9383828384811F
:1007300095818C0F9D1FB9010E94D60D95838483EE
:10074000DF91CF910895FC018481958122813381CD
:100750002817390771F00197A081B181A80FB91F3F
:100760002C91668177810E94D60D95838483822F98
:10077000089580E00895FC0181E042815381248145
:1007800035814217530709F080E0089508950895D0
:100790008EEC95E09F938F938EEB95E09F938F93D4
:1007A00083ED92E09F938F930E9456120F900F90CB
:1007B0000F900F900F900F90089588E491E00E94A1
:1007C00049019F938F9383EE92E09F938F930E94B2
:1007D00056120F900F900F900F9008954F925F92C6
:1007E0006F927F928F929F92AF92BF92CF92DF9241
:1007F000EF92FF920F931F93CF93DF938EEC95E0D0
:100800000E9429114B01D82FC92F8EED95E00E942F
:1008100029112B013C018EEE95E00E9429117B01EC
:100820008C018EEF95E00E9429115B016C010E9402
:100830007706882329F088E790E00E946A12F7CFB4
:10084000DF92CF92BF92AF921F930F93FF92EF92DE
:100850007F926F925F924F92CF93DF939F928F928E
:100860002FEE32E03F932F930E945612242D352D08
:10087000462D572DFE01682D792D8F2F9C2F0E941C
:10088000EA068DB79EB742960FB6F8949EBF0FBE8C
:100890008DBFDF91CF911F910F91FF90EF90DF906F
:1008A000CF90BF90AF909F908F907F906F905F9010
:1008B0004F900895CF93DF93C0E6DAEE80E391E0A6
:1008C0000E94800123E02A95F1F7000021972097EC
:1008D000A9F78FE392E42FE0815090402040E1F7A8
:1008E00000C00000C0E6DAEE80E391E00E948001E3
:1008F00083E08A95F1F7000021972097A9F79FE3FD
:1009000022E48FE0915020408040E1F700C00000D9
:10091000C0E6DAEE80E391E00E94800193E09A95D0
:10092000F1F7000021972097A9F72FE382E49FE0D9
:10093000215080409040E1F700C00000DF91CF914E
:100940000895CF93DF93E091C202F091C302108229
:100950001182128213821482118616866481E091BC
:100960007606F091770682819381772767FD7095EF
:100970000E947A01E091C202F091C3026185E09188
:100980007806F091790682819381772767FD7095CB
:100990000E947A01E091C202F091C3026685E09163
:1009A0007A06F0917B0682819381772767FD7095A7
:1009B0000E947A01E091C202F091C30280E090E0CF
:1009C000A0E8BFE385839683A783B0878287938758
:1009D000A487B5878787908BA18BB28B8CEF92E031
:1009E0000E94711281E090E09093130680931206AA
:1009F0000E94A20888EA91E00E944901892B41F4F3
:100A0000E091C202F091C30215821682178210860D
:100A10008EEA91E00E944901892B41F4E091C202E3
:100A2000F091C30212861386148615868AE591E03A
:100A30000E944901C091C202D091C302892B21F4C6
:100A40001F86188A198A1A8A6D817E818F819885FE
:100A500020E030E0A9010E949A0E8111CBCF6A8577
:100A60007B858C859D8520E030E0A9010E949A0E4F
:100A70008111C0CF6F85788989899A8920E030E01B
:100A8000A9010E949A0E8111B5CF109213061092FF
:100A90001206DF91CF910C94C908E091C202F09147
:100AA000C302108211821282138281E084838187C3
:100AB00086876481E0917606F09177068281938142
:100AC000772767FD70950E947A01E091C202F0914C
:100AD000C3026185E0917806F09179068281938165
:100AE000772767FD70950E947A01E091C202F0912C
:100AF000C3026685E0917A06F0917B06828193813C
:100B0000772767FD70950E947A01E091C202F0910B
:100B1000C30280E090E0A0E8BFE385839683A783CB
:100B2000B08782879387A487B5878787908BA18BAF
:100B3000B28B85E093E00E94711281E090E0909387
:100B40001306809312060E94A20888E491E00E9496
:100B500049010197D1F710921306109212060C94D6
:100B6000C9080E94A1040C944D058091CE05811105
:100B700003C080E193E01AC06BE273E08EEC95E075
:100B80000E941012892B21F48EE491E00C945D01F7
:100B90006EE273E08EEC95E00E941012892B21F436
:100BA0008EE491E00C946B0182E393E00C9471125B
:100BB00084EB92E0909385068093840689E393E02A
:100BC0000E9471128DE493E00C9471120F931F93A5
:100BD000CF93DF932EEB35E086E02E30380709F017
:100BE00044C000E010E0C0E0D0E00E943302811178
:100BF00005C008ED11E0C0E0D0E012C0803219F469
:100C00000F5F1F4FF0CFF80194E0EE0FFF1F9A9592
:100C1000E1F7EC0FFD1FE254FA4F80832196E5CFF8
:100C20006EEB75E0C8010E9410120A5E1F4F892BFF
:100C300081F486E18C9FF0018D9FF00D1124E85224
:100C4000FE4F0488F589E02DDF91CF911F910F9120
:100C500009942196CA30D10519F78EE593E0DF910A
:100C6000CF911F910F910C94711280E090E0F901E7
:100C7000E80FF91F1082019680319105C1F7205FBE
:100C80003F4FAACF81E793E00E9448020E94600292
:100C90008823E1F30C94E6050E944206FDCF8F9273
:100CA0009F92AF92BF92CF92DF92EF92FF92690133
:100CB0007A019B01AC010E94480F4B015C01A70126
:100CC0009601C701B6010E94480F9B01AC01C50106
:100CD000B4010E94360EFF90EF90DF90CF90BF904E
:100CE000AF909F908F900C94AF0F0895089581E07E
:100CF00020910E0630910F062430310509F080E076
:100D00000895CF9383E793E00E94711280911006BB
:100D100090911106C3E1C89FF001C99FF00D112405
:100D2000E65DF94FF093C302E093C2026481E09163
:100D30007606F091770682819381772767FD70951B
:100D40000E947A018091100690911106C89FF001CF
:100D5000C99FF00D1124E65DF94F6185E091780699
:100D6000F091790682819381772767FD70950E94C3
:100D70007A018091100690911106C89FF001C99FD9
:100D8000F00D1124E65DF94F6685E0917A06F09149
:100D90007B0682819381772767FD70950E947A0197
:100DA00010921C0610921D0610921E0610921F062D
:100DB000109218061092190610921A0610921B062D
:100DC000109214061092150610921606109217062D
:100DD000CF9108954F925F926F927F92AF92BF92A0
:100DE000CF92DF92EF92FF920F931F93CF93DF93F7
:100DF000CDB7DEB728970FB6F894DEBF0FBECDBFD4
:100E00006D837E838F83988729013A01E982FA8274
:100E10000B831C83809110069091110620910E0681
:100E200030910F06820F931F64E070E00E94EA0D7C
:100E30007C0186E793E09F938F930E9456128091E6
:100E400011068F93809110068F938CE793E09F9308
:100E50008F930E945612FF92EF9286E893E09F9341
:100E60008F930E94561280910F068F9380910E06E9
:100E70008F938EE893E09F938F930E945612209158
:100E80002206822F992787FD90959F932F9387E9BC
:100E900093E09F938F930E94561280910E0690913B
:100EA0000F06019690930F0680930E0683E18E9DA8
:100EB000F0018F9DF00D1124E65DF94F8D819E812B
:100EC000AF81B88580839183A283B38311E00FB68D
:100ED000F894DEBF0FBECDBF20E030E0A901C30112
:100EE000B2010E94440F18160CF010E081E0812737
:100EF00093E19E9DF0019F9DF00D1124E65DF94F59
:100F0000848311E020E030E0A90169817A818B813E
:100F10009C810E94440F18160CF010E081E081279C
:100F200093E19E9DF0019F9DF00D1124E65DF94F28
:100F3000818711E020E030E0A901C601B5010E94DF
:100F4000440F18160CF010E081E0812793E19E9D7C
:100F500090019F9D300D1124265D394FF901868740
:100F6000E89477F8458256826782708689819A81F3
:100F7000AB81BC81BF7782879387A487B587D60171
:100F8000C501BF778787908BA18BB28B809122069A
:100F9000811118C00E94810628960FB6F894DEBF12
:100FA0000FBECDBFDF91CF911F910F91FF90EF90BA
:100FB000DF90CF90BF90AF907F906F905F904F90F9
:100FC0000C94A20828960FB6F894DEBF0FBECDBFD2
:100FD000DF91CF911F910F91FF90EF90DF90CF9015
:100FE000BF90AF907F906F905F904F9008958DE984
:100FF00093E00E9471128091100690911106019663
:1010000064E070E00E94EA0D809310069093110650
:1010100020910E0630910F062150310930930F06B2
:1010200020930E063F932F939F938F9383EA93E031
:101030009F938F930E9456120F900F900F900F90D6
:101040000F900F9080910E0690910F0618161906BA
:1010500014F40C9481060C94C908CF92DF92EF929D
:10106000FF920F931F93CF93DF936C017B018A0153
:1010700086E090E00E940210EC01D982C882FB82D7
:10108000EA821D830C83C6010E946B01C7010E9486
:101090005D01C8010E946B01C6010E94A301C70146
:1010A0000E94A301C8010E94A301E0912306F091D0
:1010B0002406EE0FFF1FEA58F94FD183C0838091B9
:1010C000230690912406019690932406809323068C
:1010D000CE01DF91CF911F910F91FF90EF90DF90A4
:1010E000CF900895F89410928000E1E8F0E010822B
:1010F00081E090E0909389008093880080818860EF
:10110000808378940895CF93DF93EC01888199814F
:101110000E945D0188819981DF91CF910C946B01D0
:10112000FC01828193810C947A019093C502809393
:10113000C4028091C4029091C5029093890080936B
:1011400088000895F894E0917606F09177068481FE
:1011500095810E946B0186E391E00E945D01E1E8C8
:10116000F0E0808183608083EFE6F0E08081826040
:1011700080838091C4029091C502909389008093EE
:10118000880081E080932206789481EB93E00C94B0
:101190007112F894E0917606F0917706848195813A
:1011A0000E945D0186E391E00E946B01E1E8F0E0BE
:1011B00080818E7F8083EFE6F0E080818D7F808369
:1011C0008091C4029091C502909389008093880019
:1011D00010922206789485EB93E00C9471121F9282
:1011E0000F920FB60F921124CF92DF92EF92FF92DF
:1011F0002F933F934F935F936F937F938F939F931F
:10120000AF93BF93CF93DF93EF93FF93C091C2024D
:10121000D091C302688179818A819B8120E030E08E
:10122000A9010E94440F18163CF08091120690917B
:101230001306019709F0D5C060911C0670911D0638
:1012400080911E0690911F062D813E814F81588509
:10125000C0901C06D0901D06E0901E06F0901F0660
:101260000E94360E0E949E0EEB01C701B6010E943D
:101270009E0EC617D70741F0E0917606F0917706EB
:10128000808191810E9480016091180670911906F9
:1012900080911A0690911B06E091C202F091C30260
:1012A0002285338544855585C0901806D09019064F
:1012B000E0901A06F0901B060E94360E0E949E0EC9
:1012C000EB01C701B6010E949E0EC617D70741F079
:1012D000E0917806F0917906808191810E948001E9
:1012E000609114067091150680911606909117066C
:1012F000E091C202F091C302278530894189528969
:10130000C0901406D0901506E0901606F0901706CF
:101310000E94360E0E949E0EEB01C701B6010E948C
:101320009E0EC617D70741F0E0917A06F0917B0632
:10133000808191810E94800160911C0670911D0640
:1013400080911E0690911F06C091C202D091C302E7
:101350002D813E814F8158850E94360E60931C0678
:1013600070931D0680931E0690931F0660911806C9
:101370007091190680911A0690911B062A853B856B
:101380004C855D850E94360E609318067093190691
:1013900080931A0690931B066091140670911506AF
:1013A00080911606909117062F85388949895A89A8
:1013B0000E94360E609314067093150680931606ED
:1013C00090931706688179818A819B8120E030E0C3
:1013D00040E85FE30E94350E688379838A839B83AC
:1013E00002C00E94F707FF91EF91DF91CF91BF916B
:1013F000AF919F918F917F916F915F914F913F91AD
:101400002F91FF90EF90DF90CF900F900FBE0F9035
:101410001F901895A3E1B0E0E0E1FAE00C94FE0D16
:101420007C011B016A01FC0117821682838181FF06
:1014300066C3BE016F5F7F4F4B01F7019381F101DE
:1014400093FD859193FF81911F01882309F453C374
:10145000853239F493FD859193FF81911F01853287
:1014600039F4B70190E00E94241256016501E5CFDE
:1014700010E0512C20E02032A0F48B3269F030F4DF
:10148000803259F0833269F420612CC08D3239F0FA
:10149000803339F4216026C02260246023C0286094
:1014A00021C027FD27C030ED380F3A3078F426FFF1
:1014B00006C0FAE01F9F300D1124132F13C06AE0FD
:1014C000569E300D1124532E20620CC08E3221F412
:1014D00026FD11C3206406C08C3611F4206802C0BA
:1014E000883641F4F10193FD859193FF81911F01AD
:1014F0008111C1CF9BEB980F933018F42061805E6F
:1015000006C09BE9980F933008F0AAC12F7E26FFF2
:1015100016E02F73722E853621F4F22FF0647F2EA1
:1015200008C0863621F4622F6068762E02C0111141
:10153000115077FE07C01C3348F444244394410EF5
:1015400027E00BC0183030F4212F06C027E04CE311
:10155000442E03C027E017E0412C560174E0A70E8B
:10156000B11CF6016081718182819381042DA401F7
:101570000E942D116C01098100FF02C003FF06C00B
:1015800071FC07C072FC08C0612C08C03DE2632EEC
:1015900005C02BE2622E02C090E2692E802F8C7073
:1015A00099F1662011F084E001C083E0851510F008
:1015B000512C0BC0581A73FC08C0B70180E290E0B0
:1015C0000E9424125A94C9F7F3CF662029F0B7017C
:1015D000862D90E00E94241203FD03C000E810E075
:1015E00002C00CE710E0F72DF0717F2EF801849116
:1015F000882309F476C271108052B70190E00E94EE
:1016000024120F5F1F4FF2CF77FE0FC04C0C04FF68
:1016100004C08A81813309F44A94141474F5F8E003
:10162000F41578F588E0482E2CC076FC2AC0812F6E
:1016300090E08C159D059CF06CEFC6166FEFD606FA
:1016400074F0772D7068772E0AC0E2E0F0E0EC0FBE
:10165000FD1FE10FF11D8081803319F4115011112C
:10166000F4CF77FE0EC044244394410E812F90E0C6
:10167000C816D9062CF41C1904C04424439401C094
:1016800010E077FE07C01C141D043CF496012F5F88
:101690003F4F05C025E030E002C021E030E0662089
:1016A00011F02F5F3F4F112331F0412F50E04F5F7A
:1016B0005F4F240F351F452D50E02417350714F4D4
:1016C000521A01C0512C872D897049F4552039F0E8
:1016D000B70180E290E00E9424125A94F7CF66206E
:1016E00029F0B701862D90E00E94241273FC09C0F6
:1016F000552039F0B70180E390E00E9424125A94FB
:10170000F7CF77FE5FC09C2D8D2DD7FE02C090E0F5
:1017100080E0692E782E40E050E0C60184199109DE
:101720009D878C87960126193709280D391D812F31
:1017300090E0EE27FF27E81BF90BFF87EE87FFEF0E
:101740006F167F0669F4B7018EE290E02B8B3A8B1F
:10175000488B598B0E942412598948893A892B89D0
:10176000C614D70454F06C857D85661577052CF476
:10177000F901E40FF51F818101C080E371E0671A70
:1017800071084F5F5F4FEE85FF856E167F066CF028
:10179000B70190E02B8B3A8B488B598B0E94241217
:1017A0002B893A8948895989CACF6C147D0439F448
:1017B0009A81963318F4953311F404FF81E3B7014D
:1017C00090E04BC08A81813309F00F7EB70190E031
:1017D0000E942412111105C074FE18C085E490E027
:1017E00017C0B7018EE290E00E94241282E06624C6
:1017F0006394680EF401E80FF11D8081B70190E059
:101800000E942412115041F3862DF1CF85E690E01D
:10181000B7010E942412D7FC05C0C114D10439F4C9
:1018200004FF05C0D194C194D1088DE201C08BE2C0
:10183000B70190E00E94241280E36AE0C616D1044A
:101840002CF08F5FFAE0CF1AD108F7CFB70190E004
:101850000E942412B701C601C0960E94241241C101
:10186000833631F0833779F0833509F058C021C0D1
:10187000560172E0A70EB11CF6018081898301E058
:1018800010E0640114C05601F2E0AF0EB11CF60185
:10189000C080D18026FF03C0612F70E002C06FEFCF
:1018A0007FEFC6012B8B0E9419128C012B892F7799
:1018B00015C05601F2E0AF0EB11CF601C080D18018
:1018C00026FF03C0612F70E002C06FEF7FEFC601FB
:1018D0002B8B0E9405128C012B892068722E23FD10
:1018E0001AC0852D90E008171907A8F4B70180E207
:1018F00090E00E9424125A94F4CFF60177FC85916F
:1019000077FE81916F01B70190E00E94241251107F
:101910005A94015011090115110579F7E2C0843676
:1019200011F0893651F5560127FF09C0F4E0AF0EDA
:10193000B11CF60160817181828193810AC0F2E05D
:10194000AF0EB11CF60160817181882777FD80950B
:10195000982F022F0F7697FF08C09095809570956D
:1019600061957F4F8F4F9F4F00682AE030E0A401C0
:101970000E949E12C82EC8183EC0022F853721F43F
:101980000F7E2AE030E01DC0097F8F3691F018F4F9
:10199000883559F0B0C0803719F0883711F0ABC0E6
:1019A000006104FF09C0046007C024FF08C006608E
:1019B00006C028E030E005C020E130E002C020E1B0
:1019C00032E0560107FF09C0F4E0AF0EB11CF6018A
:1019D000608171818281938108C0F2E0AF0EB11CF9
:1019E000F6016081718180E090E0A4010E949E1266
:1019F000C82EC8180F7706FF0BC0202F2E7FC116E8
:101A000050F404FF0AC002FD08C0202F2E7E05C03E
:101A1000DC2C202F03C0DC2C01C0D12E24FF0DC0F4
:101A2000FE01EC0DF11D8081803311F4297E09C087
:101A300022FF06C0D394D39404C0822F867809F085
:101A4000D39423FD13C020FF06C01C2DD51418F419
:101A5000150D1D19D52CD51468F4B70180E290E05E
:101A60002B8B0E942412D3942B89F5CFD51410F41C
:101A70005D1801C0512C24FF12C0B70180E390E033
:101A80002B8B0E9424122B8922FF17C021FF03C039
:101A900088E590E002C088E790E0B7010CC0822F93
:101AA000867859F021FD02C080E201C08BE227FD5B
:101AB0008DE2B70190E00E942412C11638F4B701FC
:101AC00080E390E00E9424121150F7CFCA94F401F1
:101AD000EC0DF11D8081B70190E00E942412C1102D
:101AE000F5CF552009F4C2CCB70180E290E00E9406
:101AF00024125A94F6CFF7018681978102C08FEFA6
:101B00009FEF6396E2E10C941A0E8CE391E00E9441
:101B1000A30186E391E00E94A3018EE491E00E947C
:101B2000A30184E591E00E94A30180E391E00E947B
:101B3000A30188EA91E00E94B4018EEA91E00E943C
:101B4000B4018AE591E00E94B40188E491E00E942A
:101B5000B4018EE491E00E945D0184E591E00E9471
:101B60005D014CE951E066E971E082EA91E00E9492
:101B70002D084CE951E060E671E080E991E00E94B7
:101B80002D084CE951E06CE671E086E691E00E9498
:101B90002D080E9472080E94C9080E9402020E9439
:101BA000D8050E944C0680E090E00895AA1BBB1B5C
:101BB00051E107C0AA1FBB1FA617B70710F0A61B4D
:101BC000B70B881F991F5A95A9F780959095BC016E
:101BD000CD01089597FB072E16F4009407D077FDEA
:101BE00009D00E94D60D07FC05D03EF49095819552
:101BF0009F4F0895709561957F4F08952F923F9262
:101C00004F925F926F927F928F929F92AF92BF920C
:101C1000CF92DF92EF92FF920F931F93CF93DF93B8
:101C2000CDB7DEB7CA1BDB0B0FB6F894DEBF0FBE15
:101C3000CDBF09942A88398848885F846E847D8462
:101C40008C849B84AA84B984C884DF80EE80FD8064
:101C50000C811B81AA81B981CE0FD11D0FB6F894DA
:101C6000DEBF0FBECDBFED0108955058BB27AA2798
:101C70000ED0D0C0C1D030F0C6D020F031F49F3F9C
:101C800011F41EF4B6C00EF4E095E7FBACC0E92FEA
:101C9000D2D080F3BA17620773078407950718F04C
:101CA00071F49EF5EAC00EF4E0950B2EBA2FA02D2C
:101CB0000B01B90190010C01CA01A0011124FF27F9
:101CC000591B99F0593F50F4503E68F11A16F040F4
:101CD000A22F232F342F4427585FF3CF46953795F3
:101CE0002795A795F0405395C9F77EF41F16BA0BB8
:101CF000620B730B840BBAF09150A1F0FF0FBB1F66
:101D0000661F771F881FC2F70EC0BA0F621F731FAE
:101D1000841F48F4879577956795B795F7959E3F0B
:101D200008F0B3CF9395880F08F09927EE0F979599
:101D30008795089534D008F481E0089504D068941C
:101D4000B1119CC008957FD088F09F5790F0B92FB3
:101D50009927B751A0F0D1F0660F771F881F991F00
:101D60001AF0BA95C9F712C0B13081F086D0B1E04F
:101D7000089583C0672F782F8827B85F39F0B93F5F
:101D8000CCF3869577956795B395D9F73EF4909502
:101D90008095709561957F4F8F4F9F4F0895990F54
:101DA0000008550FAA0BE0E8FEEF16161706E80725
:101DB000F907C0F012161306E407F50798F0621B46
:101DC000730B840B950B39F40A2661F0232B242B1B
:101DD000252B21F408950A2609F4A140A6958FEF3A
:101DE000811D811D089597F99F6780E870E060E08C
:101DF00008959FEF80EC089500240A9416161706A4
:101E000018060906089500240A94121613061406EB
:101E100005060895092E0394000C11F4882352F04E
:101E2000BB0F40F4BF2B11F460FF04C06F5F7F4F06
:101E30008F4F9F4F089557FD9058440F551F59F0ED
:101E40005F3F71F04795880F97FB991F61F09F3FA7
:101E500079F087950895121613061406551FF2CFD0
:101E60004695F1DF08C0161617061806991FF1CF20
:101E700086957105610508940895E894BB27662747
:101E80007727CB0197F908958ADF08F48FEF08953B
:101E90000BD0C0CFB1DF28F0B6DF18F0952309F0E2
:101EA000A2CFA7CF1124EACFC6DFA0F3959FD1F32D
:101EB000950F50E0551F629FF001729FBB27F00DF8
:101EC000B11D639FAA27F00DB11DAA1F649F66274D
:101ED000B00DA11D661F829F2227B00DA11D621F9C
:101EE000739FB00DA11D621F839FA00D611D221F56
:101EF000749F3327A00D611D231F849F600D211D3A
:101F0000822F762F6A2F11249F5750408AF0E1F0DC
:101F100088234AF0EE0FFF1FBB1F661F771F881F25
:101F200091505040A9F79E3F510570F05CCFA6CF6D
:101F30005F3FECF3983EDCF3869577956795B79510
:101F4000F795E7959F5FC1F7FE2B880F911D96953A
:101F5000879597F9089511F40EF44BCF3EC073DFC7
:101F6000D0F39923D9F3CEF39F57550B87FF43D076
:101F70000024A0E640EA900180585695979528F4F1
:101F8000805C660F771F881F20F0261737074807E9
:101F900030F4621B730B840B202931294A2BA69540
:101FA00017940794202531254A2758F7660F771F85
:101FB000881F20F026173707480730F4620B730B91
:101FC000840B200D311D411DA09581F7B901842F8F
:101FD0009158880F9695879508959F3F31F09150BD
:101FE00020F4879577956795B795880F911D9695FD
:101FF000879597F9089591505040660F771F881F75
:10200000D2F70895CF93DF938230910510F482E0E8
:1020100090E0E0918006F091810620E030E0A0E0C1
:10202000B0E0309739F14081518148175907B8F035
:102030004817590771F482819381109729F01396FC
:102040009C938E9312972CC0909381068093800668
:1020500027C02115310531F04217530718F0A901A7
:10206000DB0101C0EF019A01BD01DF010280F381B4
:10207000E02DD7CF21153105F9F0281B390B24307D
:10208000310580F48A819B816115710521F0FB0186
:102090009383828304C09093810680938006FE011F
:1020A000329644C0FE01E20FF31F819391932250B8
:1020B0003109398328833AC020917E0630917F060A
:1020C000232B41F42091C8023091C90230937F063E
:1020D00020937E062091C6023091C702211531055A
:1020E00041F42DB73EB74091CA025091CB02241B58
:1020F000350BE0917E06F0917F06E217F307A0F41E
:102100002E1B3F0B2817390778F0AC014E5F5F4F4D
:102110002417350748F04E0F5F1F50937F064093FA
:102120007E068193919302C0E0E0F0E0CF01DF9161
:10213000CF910895CF93DF93009709F487C0FC01F6
:10214000329713821282C0918006D0918106209727
:1021500081F420813181280F391F80917E06909172
:102160007F068217930779F5F0937F06E0937E064A
:102170006DC0DE0120E030E0AE17BF0750F41296CC
:102180004D915C9113979D014115510509F1DA01BB
:10219000F3CFB383A28340815181840F951F8A17A7
:1021A0009B0771F48D919C911197840F951F029656
:1021B0009183808312968D919C9113979383828350
:1021C0002115310529F4F0938106E09380063EC085
:1021D000D9011396FC93EE9312974D915D91A40F44
:1021E000B51FEA17FB0779F480819181840F951F51
:1021F0000296D90111969C938E93828193811396B6
:102200009C938E931297E0E0F0E08A819B81009787
:1022100019F0FE01EC01F9CFCE0102962881398137
:10222000820F931F20917E0630917F062817390771
:1022300069F4309729F4109281061092800602C04A
:1022400013821282D0937F06C0937E06DF91CF91D6
:102250000895662777270C94FC12283008F027E0B1
:102260003327DA01990F311D87FD916000966105D2
:10227000710539F432602E5F3D9330E32A95E1F722
:1022800008959F3F30F080387105610509F03C5F8B
:102290003C5F3D93913008F08068911DDF93CF93B0
:1022A0001F930F93FF92EF92192F987F9695E92F26
:1022B00096959695E90FFF27E252FF4F992733270E
:1022C000EE24FF24A701E70105900894079428F461
:1022D000360FE71EF81E491F511D660F771F881F16
:1022E000991F0694A1F70590079428F4E70EF81EAD
:1022F000491F561FC11D770F881F991F661F06941F
:10230000A1F70590079428F4F80E491F561FC71F20
:10231000D11D880F991F661F771F0694A1F705909E
:10232000079420F4490F561FC71FD81F990F661F27
:10233000771F881F0694A9F784911095177041F0B4
:10234000D695C79557954795F794E7941A95C1F791
:10235000E4E8F0E0689415901591359165919591B8
:1023600005907FE27395E118F10A430B560BC90BF8
:10237000D009C0F7E10CF11E431F561FC91FD01D25
:102380007EF4703311F48A95E6CFE894015030F072
:10239000080F0AF40027021708F4202F2395022FB4
:1023A0007A3328F079E37D932A95E9F710C07D937D
:1023B0002A9589F6069497956795379517951794FA
:1023C000E118F10A430B560BC90BD00998F023957D
:1023D0007E9173957A3308F070E37C932013B8F7FD
:1023E0007E9170617D9330F0839571E37D9370E30E
:1023F0002A95E1F71124EF90FF900F911F91CF9153
:10240000DF91992787FD90950895FC010590615013
:1024100070400110D8F7809590958E0F9F1F0895FA
:10242000FB01DC018D91019080190110D9F3990B0A
:102430000895FC016150704001900110D8F780951B
:1024400090958E0F9F1F08950F931F93CF93DF9347
:10245000182F092FEB018B8181FD03C08FEF9FEFB8
:1024600020C082FF10C04E815F812C813D814217C8
:1024700053077CF4E881F9819F012F5F3F4F398337
:102480002883108306C0E885F985812F0995892B5B
:1024900029F72E813F812F5F3F4F3F832E83812F6E
:1024A000902FDF91CF911F910F910895A0E0B0E0A0
:1024B000ECE5F2E10C940E0EFE01359661917191FE
:1024C000AF0180918406909185060E940A0AE2E09D
:1024D0000C942A0E60918406709185060E94241245
:1024E00008950F931F93CF93DF93E0918406F091AB
:1024F0008506238121FF1BC0EC0100E010E08991DB
:102500006091840670918506DB011896ED91FC912F
:102510001997882331F00995892B89F30FEF1FEF65
:10252000EECF8AE00995892B11F4C80102C08FEF24
:102530009FEFDF91CF911F910F910895FA01AA2784
:10254000283051F1203181F1E8946F936E7F6E5FF6
:102550007F4F8F4F9F4FAF4FB1E03ED0B4E03CD0A4
:10256000670F781F891F9A1FA11D680F791F8A1F87
:10257000911DA11D6A0F711D811D911DA11D20D0EE
:1025800009F468943F912AE0269F11243019305DA8
:102590003193DEF6CF010895462F4770405D419399
:1025A000B3E00FD0C9F7F6CF462F4F70405D4A33E6
:1025B00018F0495D31FD4052419302D0A9F7EACFAE
:1025C000B4E0A6959795879577956795BA95C9F7DD
:1025D00000976105710508959B01AC010A2E0694D0
:1025E0005795479537952795BA95C9F7620F731F89
:1025F000841F951FA01D0895A0E0B0E0E2E0F3E184
:102600000C94000E8B016115710521F0DB018C9398
:1026100011969C93EC015E01BFEFAB1ABB0A7501EA
:10262000C8808C2D90E00E946314892B11F0E50185
:10263000F2CFEDE2CE1208C07E01F2E0EF0EF11C07
:10264000C980DD24D39409C02BE2C21205C07E01EB
:1026500042E0E40EF11CC980D12CE701219743E050
:1026600050E066E871E0CE010E946B14892BD1F432
:10267000E701229645E050E061E871E0CE010E945A
:102680006B14892B11F4E70127960115110519F038
:10269000D801CD93DC93D11008C160E070E080E8F0
:1026A0009FE70CC143E050E06EE771E0CE010E946D
:1026B0006B14892B59F40115110509F4FBC0B2E024
:1026C000EB0EF11CF801F182E082F4C0F70160E04A
:1026D00070E0CB01C0E0D0E07F01A0EDAA2EAC0CF1
:1026E00029E02A1530F14D2D4260B42E2D2D287091
:1026F000D2FE04C0211125C0219623C021112197AB
:10270000A5E0B0E09B01AC010E94C314660F771FE7
:10271000881F991F6A0D711D811D911D6839A9E9D6
:102720007A078A07A9E19A0760F0BD2DB660BB2E33
:1027300008C02EEFA2120AC0D3FC50C04D2D486035
:10274000B42E3196D701CC90DB2CC6CF2C2D2F7D0B
:10275000253409F043C0A081AD3241F4BD2DB061F4
:10276000DB2E7F0122E0E20EF11C0CC07F01AB32B8
:1027700031F04FEFE41AF40A21E030E006C0A2E0A5
:10278000EA0EF11CA18122E030E0A053AA3018F03B
:10279000E21AF30A23C0F70120E030E02038BCE061
:1027A0003B075CF4A901440F551F440F551F240F2C
:1027B000351F220F331F2A0F311DAF014F5F5F4FAF
:1027C0007A01A081A053AA3010F4FA01E7CFD4FE19
:1027D00003C0319521953109C20FD31FD1FE09C025
:1027E0000115110531F0E1E0EE1AF108D801ED9282
:1027F000FC920E9483142D2D2370233019F06B015D
:102800007C0106C06B017C01F7FAF094F7F8F094B4
:1028100020E030E0A901C701B6010E949A0E88238A
:1028200009F440C0D7FF06C0D195C195D1090DE983
:1028300011E002C005EB11E04801B8E18B1A9108E4
:1028400090E2A92EB12CF8014590559065907490B6
:10285000CA15DB055CF0A3019201C701B6010E9415
:10286000480F6B017C01CA19DB09F2CF0450110932
:10287000B594A7940815190531F78E2D880F8F2D63
:10288000881F8F3F49F020E030E0A901C701B60161
:102890000E949A0E811106C082E290E09093890610
:1028A00080938806C701B60109C060E070E080E847
:1028B0009FEF04C060E070E080EC9FE7CDB7DEB72B
:1028C000E0E10C941C0E91115BC0803219F089502C
:1028D0008550D0F70895FB01DC014150504088F04D
:1028E0008D9181341CF08B350CF4805E65916134E0
:1028F0001CF06B350CF4605E861B611171F3990B53
:102900000895881BFCCFE89409C097FB3EF490958E
:102910008095709561957F4F8F4F9F4F9923A9F0B8
:10292000F92F96E9BB279395F69587957795679547
:10293000B795F111F8CFFAF4BB0F11F460FF1BC08B
:102940006F5F7F4F8F4F9F4F16C0882311F096E91E
:1029500011C0772321F09EE8872F762F05C06623CC
:1029600071F096E8862F70E060E02AF09A95660F85
:10297000771F881FDAF7880F9695879597F908953E
:102980009927882708950E94CE14A59F900DB49F83
:10299000900DA49F800D911D11240895A29FB00158
:1029A000B39FC001A39F700D811D1124911DB29F83
:0E29B000700D811D1124911D0895F894FFCF24
:1029BE000000D20101000100D20102000200D2018A
:1029CE0004000300D20108000400D201100005002B
:1029DE00D20120000600D20140000700D201800083
:1029EE000000CC0101000100CC0102000200CC016C
:1029FE0004000300CC0108000400CC011000050007
:102A0E00CC0120000600CC0140000700CC01800064
:102A1E000000C60101000100C60102000200C6014D
:102A2E0004000300C60108000400C60110000500E2
:102A3E00C60120000600C60140000700C601800046
:102A4E000000C00101000100C00102000200C0012F
:102A5E0004000300C00108000400C00110000500BE
:102A6E00C00120000600C00140000700C001800028
:102A7E00200022002100230025002400260028002B
:102A8E00270029002B002A0074656D7000000000DD
:102A9E00000000000000000000000000C603656397
:102AAE00686F000000000000000000000000000041
:102ABE000000C8036865617400000000000000009B
:102ACE000000000000000000B505470000000000F7
:102ADE000000000000000000000000000000C7031E
:102AEE0064726F7000000000000000000000000023
:102AFE00000000004D0572697365000000000000C3
:102B0E0000000000000000000000A1046765745F73
:102B1E0073656E7365000000000000000000000089
:102B2E00DD036170726F780000000000000000008D
:102B3E00000000000000EE03686F6D6500000000ED
:102B4E00000000000000000000000000B105736FDF
:102B5E00756E640000000000000000000000000020
:102B6E0000005A040000000200000000D60200001F
:102B7E0000002A06280000008A062000082008000F
:102B8E000D0A006563686F205B25735D205B2573FE
:102B9E005D0A0073656E73655F72783D2569002569
:102BAE006C6620256620256620256600726973698D
:102BBE006E672E2E0064726F7070696E672E2E0017
:102BCE0068656174207265717569726573206F6EC8
:102BDE006520617267756D656E74006F6E006F664D
:102BEE0066006572726F7221002D3D2064656C74F3
:102BFE0061626F742076302E31203D2D00436F6E52
:102C0E00736F6C6520537461727465642E00436F2C
:102C1E006D6D616E64206E6F7420666F756E6421CB
:102C2E00003E00646F0071756575650073746172A6
:102C3E00743A25690A00656E643A25690A0073695B
:102C4E007A653A25690A00613A25690A007368694E
:102C5E00667400737274256920737A653A25690A61
:0A2C6E0000656E62006469730000E7
:040000050080061061
:00000001FF
