:100000000C94EC000C9409010C9409010C94090166
:100010000C9409010C9409010C9409010C94090138
:100020000C9409010C9409010C9409010C94090128
:100030000C9409010C945E020C9409010C940901C2
:100040000C9409010C9409010C9409010C94740599
:100050000C9473030C9409010C94DC020C940901B8
:100060000C94B0040C9409010C9409010C9409013E
:100070000C9409010C9409010C940901080000007A
:10008000BE922449123EABAAAA2ABECDCCCC4C3E8D
:1000900000000080BEABAAAAAA3E00000000BF007C
:1000A0000000803F0000000000084178D3BB438778
:1000B000D1133D190E3CC3BD4282AD2B3E68EC828C
:1000C00076BED98FE1A93E4C80EFFFBE01C4FF7F11
:1000D0003F00000000006E616E00696E6600004027
:1000E0007A10F35A00A0724E18090010A5D4E80047
:1000F00000E87648170000E40B54020000CA9A3B5F
:10010000000000E1F50500008096980000004042E4
:100110000F000000A0860100000010270000000072
:10012000E803000000006400000000000A00000076
:1001300000000100000000002C76D888DC674F0822
:1001400023DFC1DFAE59E1B1B796E5E3E453C63A28
:10015000E651997696E8E6C28426EB898C9B62ED9F
:10016000407C6FFCEFBC9C9F40F2BAA56FA5F49059
:10017000055A2AF75C936B6CF9676DC11BFCE0E4D0
:100180000D47FEF520E6B500D0ED902E0300943526
:1001900077050080841E080000204E0A000000C879
:1001A0000C333333330F986E12831141EF8D2114CA
:1001B000893BE65516CFFEE6DB18D1844B381BF79A
:1001C0007C1D901DA4BBE424203284725E22810039
:1001D000C9F124ECA1E53D2711241FBECFEFD0E1EA
:1001E000DEBFCDBF16E0A0E0B1E0E8ECF2E202C075
:1001F00005900D92A636B107D9F71EE0A6E6B6E047
:1002000001C01D92A536B107E1F70E94600B0C9466
:1002100062110C940000DC011496ED91FC9115978D
:100220002FEF30E0318320831296ED91FC911397EC
:10023000118210820895DC011296ED91FC911397C2
:10024000118210820895DC011296ED91FC911397B2
:10025000808191818095918380830895DC0112963D
:10026000ED91FC911397718360830895CF93DF9391
:1002700000D000D000D0CDB7DEB79B018B839C832C
:10028000E1E0F0E002C0EE0FFF1F6A95E2F7FE83A7
:10029000ED83AC016E2F7E8180E090E026960FB654
:1002A000F894DEBF0FBECDBFDF91CF910895DC0182
:1002B0001296ED91FC9113970190F081E02D208131
:1002C00031810C9002C0369527950A94E2F7C90156
:1002D000817099270895DC011296ED91FC91139796
:1002E0000280F381E02D2081318114968D919C91C3
:1002F0001597282B392B318320830895DC01129622
:10030000ED91FC9113970280F381E02D14962D91CD
:100310003C9115972095309580819181822393237C
:10032000918380830895672B11F00C946B010C94DA
:100330007E01DC011296ED91FC9113970280F3810E
:10034000E02D2081318114968D919C91159728275D
:100350003927318320830895CF93DF93EC0188EE12
:1003600093E00E94F001CE010E94990188EE93E093
:100370000E94F001CE010E94990188EE93E0DF9186
:10038000CF910C94F001CF93DF93EC010E947E019A
:10039000EA81FB810480F581E02D808191812C81AF
:1003A0003D81822B932B91838083DF91CF910895A0
:1003B000CF93DF93EC010E947E01EA81FB810480F0
:1003C000F581E02D2C813D812095309580819181B2
:1003D0008223932391838083DF91CF9108950895A1
:1003E0000895CF92DF92EF92FF920F931F93CF93D6
:1003F000DF936C017B018A0186E090E00E94640E2D
:10040000EC01D982C882FB82EA821D830C83C6017B
:100410000E947E01C7010E946B01C8010E947E01FB
:10042000C6010E94C301C7010E94C301C8010E9406
:10043000C3018091680690916906FC01EE0FFF1FD1
:10044000E25BF14FD183C08301969093690680935C
:100450006806CE01DF91CF911F910F91FF90EF9031
:10046000DF90CF900895E1E8F0E08081886080839C
:10047000EFE6F0E080818260808378948091D801FB
:100480009091D9019093890080938800E1E8F0E091
:100490008081836080830895CF93DF93EC0188810E
:1004A00099810E946B0188819981DF91CF910C9491
:1004B0007E01FC01828193810C9493011F920F9223
:1004C0000FB60F9211242F933F934F935F936F9327
:1004D0007F938F939F93AF93BF93EF93FF938091FD
:1004E0006A0690916B06019690936B0680936A065C
:1004F000E0916606F0916706EE0FFF1FE25BF14F99
:100500000190F081E02D808191810E94990180917C
:100510006A0690916B06803D974079F4E0916606FB
:10052000F0916706EE0FFF1FE25BF14F0190F08143
:10053000E02D828193810E94990180916A069091B9
:100540006B06803A9F4039F5E0916606F0916706A8
:10055000EE0FFF1FE25BF14F0190F081E02D8281F1
:1005600093810E9499018091660690916706019699
:10057000909367068093660620916806309169061D
:100580008217930721F41092670610926606109264
:100590006B0610926A06FF91EF91BF91AF919F9108
:1005A0008F917F916F915F914F913F912F910F901C
:1005B0000FBE0F901F9018951F920F920FB60F92BB
:1005C00011242F933F934F935F936F937F938F9358
:1005D0009F93AF93BF93EF93FF93E091560EF091EB
:1005E000570E828193810E94760481110AC0E091A6
:1005F000560EF091570E828193810E9421048093C0
:10060000C600FF91EF91BF91AF919F918F917F9124
:100610006F915F914F913F912F910F900FBE0F906F
:100620001F901895CF93DF9385E090E00E94640EB1
:10063000EC0182E090E00E94CE039983888380E100
:1006400090E00E94CE039B838A831C8289E1809381
:10065000C4001092C50088ED8093C1007894D093B7
:10066000570EC093560ECE01DF91CF910895E091C1
:10067000560EF091570E14820895E091560EF091A7
:10068000570EBC01828193810E940F048091C000AB
:1006900085FF0AC0E091560EF091570E828193813A
:1006A0000E9421048093C6000895E091560EF091B7
:1006B000570E84810895E091560EF091570E682FE1
:1006C000828193810E94F0038091C00085FF0AC05F
:1006D000E091560EF091570E828193810E94210481
:1006E0008093C60008951F920F920FB60F921124A7
:1006F0002F933F934F935F936F937F938F939F932A
:10070000AF93BF93EF93FF938091C6008093580EF1
:100710008091580E8D3011F41092580E6091580E41
:10072000E091560EF091570E808191810E94F00366
:100730008091580E0E945B038091580E81110AC06F
:1007400081E496E00E943D03E091560EF091570E31
:1007500081E08483FF91EF91BF91AF919F918F9141
:100760007F916F915F914F913F912F910F900FBEAD
:100770000F901F901895CF93C82F8A3019F48DE0F1
:100780000E945B038C2FCF910C945B038091C0007F
:1007900087FFFCCF8091C60090E008950F931F93D0
:1007A000CF93DF93EC010E94640E8C01FC018C0F4F
:1007B0009D1FE817F90711F01192FBCF88E090E038
:1007C0000E94640EFC011183008313821282158241
:1007D0001482D783C683DF91CF911F910F91089523
:1007E000FC01A081B18184819581A80FB91F6C9310
:1007F00026813781848195810196B9010E94CF0BB2
:1008000095838483428153814817590739F4CA017B
:100810000196B9010E94CF0B9383828308950F93B1
:100820001F93CF93DF938C01EB016991662321F035
:10083000C8010E94F003F9CFDF91CF911F910F9172
:100840000895FC0182819381248135818217930769
:1008500071F0A081B181A80FB91F2C91019666811A
:1008600077810E94CF0B93838283822F089580E04B
:100870000895FC01CB0122813381820F931F668191
:1008800077810E94CF0B0190F081E02DE80FF91FD6
:1008900080810895FC01CB0122813381820F931F57
:1008A000668177810E94CF0B0190F081E02DE80FE7
:1008B000F91F40830895CF93DF93FC01EB0126815C
:1008C000378182819381860F971FB9010E94CF0BD8
:1008D00093838283848195818C0F9D1FB9010E942F
:1008E000CF0B95838483DF91CF910895FC0181E044
:1008F00042815381248135814217530709F080E0FA
:1009000008958AED91E09093620E8093610E8EE2DD
:1009100096E00E943D0384E496E00C943D0387E555
:1009200096E00E943D030E9455038823E1F389E588
:1009300096E00C943D030E948F04FDCFECE7F0E0BD
:10094000808185648083EAE7F0E08FEA8083ABE70B
:10095000B0E08C9180748C93808180648083089552
:100960001F920F920FB60F9211242F933F938F93E4
:100970009F93EF93FF9380916C0690916D06209169
:10098000780030917900FC01EE0FFF1FE259F94F1A
:10099000318320830196883E23E0920729F09093CB
:1009A0006D0680936C0604C010926D0610926C0662
:1009B000FF91EF919F918F913F912F910F900FBEDB
:1009C0000F901F9018958F929F92AF92BF92CF92E7
:1009D000DF92EF92FF92A12CB12CC12CD12C760189
:1009E000F501EE0FFF1FE259F94F608171818827F1
:1009F00077FD8095982F0E94FD0C9B01AC01C701EB
:100A0000B6010E942F0C6B017C018FEFA81AB80A67
:100A100088EEA81683E0B80619F720E030E04AE730
:100A200054E4C701B6010E94930C20E030E040EA94
:100A300050E40E94CE0D20E030E040E85AE30E94EE
:100A4000CE0D6B017C0120E030EE42E955E40E94BE
:100A5000CE0D4B015C01A701960160E070E080EAD9
:100A600090E40E942E0C9B01AC01C501B4010E94D0
:100A7000930C20E030E543EC57E40E94930C0E9475
:100A80008E0D9B01AC0160E070E080E89FE30E9466
:100A9000930C20E030EE46E755E40E94CE0D9B011A
:100AA000AC0160E070E080E89FE30E94930C2FE0CF
:100AB0003FEC4BE55BE30E942F0C9B01AC0160E037
:100AC00070E080E89FE30E94930C23E333E948E859
:100AD00053E40E942E0CFF90EF90DF90CF90BF90D8
:100AE000AF909F908F9008951F920F920FB60F9224
:100AF00011242F933F934F935F936F937F938F9323
:100B00009F93AF93BF93EF93FF938EB58093580E4F
:100B1000E091590EF0915A0E828193810E947604E1
:100B2000E091590EF0915A0E811106C08281938195
:100B30000E9421048EBD02C081E08483FF91EF9169
:100B4000BF91AF919F918F917F916F915F914F91E5
:100B50003F912F910F900FBE0F901F901895CF933C
:100B6000DF9385E090E00E94640EEC0180E190E06C
:100B70000E94CE039983888380E190E00E94CE0397
:100B80009B838A8381E08C838EE791E00E94C3017E
:100B90008AE891E00E94C30184E891E00E94D801B4
:100BA00088E791E00E94C3018CB580618CBD8CB553
:100BB00083608CBD8CB580688CBD8CB580648CBD29
:100BC000D0935A0EC093590ECE01DF91CF91089564
:100BD000E091590EF0915A0E682F828193810E9404
:100BE000F003E091590EF0915A0E8481882331F080
:100BF0001482828193810E9421048EBD0895FF9208
:100C00000F931F93CF93DF93EC01F62E2E813F813C
:100C10008AE0681769F08DE0681322C0C9016EE0B0
:100C200070E00E94E30B281B390B3F832E8347C0E3
:100C3000273431052CF084E590E09F838E833FC0FC
:100C4000EEE0F0E0C901BF010E94E30B0097B9F1AB
:100C5000BF01681B790B620F731F7F836E832FC0E8
:100C60002435310589F06E817F819B012F5F3F4FD5
:100C70003F832E834F2D8E859F85DF91CF911F91CE
:100C80000F91FF900C944A0486E490E09F838E833A
:100C90006EE070E08E859F850E945B0400E010E0AE
:100CA0006E817F81600F711F40E28E859F850E945B
:100CB0004A040F5F1F4F0E30110591F7D4CFDF911B
:100CC000CF911F910F91FF900895CF93DF93C8EFBD
:100CD000D1E080E00E94E8058FE891E00197F1F70C
:100CE00000C0000021972097A1F7DF91CF910895D0
:100CF0000F931F93CF93DF9300D0CDB7DEB78C0156
:100D0000FC01848595854A8369830E947E01F801F0
:100D1000828593850E947E016981862F80680E946A
:100D2000E8058FE891E00197F1F700C000004A81E3
:100D3000842F80640E94E805EFE8F1E03197F1F735
:100D400000C00000F801848595850E946B01F801C0
:100D5000828593850F900F90DF91CF911F910F9116
:100D60000C946B01CF92DF92EF92FF920F931F933F
:100D7000CF93DF938C017B016A0180E190E00E94B8
:100D8000640EEC010E94AF05998388831B870A8754
:100D9000F986E886DD86CC868EE090E09B838A83A8
:100DA00086E090E09D838C831F821E8280E890E025
:100DB0000E94CE039F878E87C8010E94C301C7018E
:100DC0000E94C301C6010E94C301C6010E947E01A8
:100DD000C7010E946B01C7010E94AC01C8010E94BB
:100DE0007E018FE891E00197F1F700C0000081E2F9
:100DF0000E94E8058FE891E00197F1F700C000003C
:100E000080EA0E94E8058FE891E00197F1F700C0C1
:100E1000000084E00E94E8058FE891E00197F1F777
:100E200000C0000084E10E94E8058FE891E001978E
:100E3000F1F700C0000080E20E94E8058FE891E031
:100E40000197F1F700C000008CE00E94E8058FE8F0
:100E500091E00197F1F700C00000C8010E946B010A
:100E6000CE010E94650640E060E0CE010E94780657
:100E7000C6010E946B01CE01DF91CF911F910F91AE
:100E8000FF90EF90DF90CF900895BF92CF92DF92C6
:100E9000EF92FF920F931F93CF93DF936C0140E08B
:100EA00060E00E947806C0E0D0E08AE0B82EBE0183
:100EB000F601868597850E943904282F332727FD60
:100EC00030952032310514F420E230E0205231090F
:100ED000B29E7001B39EF00C1124C70182519E4F47
:100EE0007C0100E010E0F701E00FF11F80810E941B
:100EF000E805EFE8F1E03197F1F700C000000E5F80
:100F00001F4F0A30110579F780E00E94E8058FE84D
:100F100091E00197F1F700C000002196C435D1059A
:100F200031F6DF91CF911F910F91FF90EF90DF90FD
:100F3000CF90BF900895EF92FF920F931F93CF939E
:100F4000DF9300D0CDB7DEB77C01FC0184859585A9
:100F500069837A830E947E01F701828593850E94CE
:100F60006B016981062F7A81172FF80161918F013A
:100F7000C701662319F00E94FF05F7CF0E944507BD
:100F8000F701848595850F900F90DF91CF911F9188
:100F90000F91FF90EF900C946B01CF93DF93CDB73F
:100FA000DEB79E01275F3F4F4F8158856FE070E0AD
:100FB0008EE39EE00E94D8106EE37EE08D819E81DC
:100FC0000E949B07DF91CF910895A3E1B0E0EBEE83
:100FD000F7E00C94F70B7C011B016A01FC011782FE
:100FE0001682838181FF66C3BE016F5F7F4F4B0115
:100FF000F7019381F10193FD859193FF81911F0189
:10100000882309F453C3853239F493FD859193FF06
:1010100081911F01853239F4B70190E00E94791067
:1010200056016501E5CF10E0512C20E02032A0F4FC
:101030008B3269F030F4803259F0833269F42061E8
:101040002CC08D3239F0803339F4216026C0226003
:10105000246023C0286021C027FD27C030ED380F51
:101060003A3078F426FF06C0FAE01F9F300D1124B5
:10107000132F13C06AE0569E300D1124532E2062A8
:101080000CC08E3221F426FD11C3206406C08C36BC
:1010900011F4206802C0883641F4F10193FD859176
:1010A00093FF81911F018111C1CF9BEB980F93306A
:1010B00018F42061805E06C09BE9980F933008F019
:1010C000AAC12F7E26FF16E02F73722E853621F4DB
:1010D000F22FF0647F2E08C0863621F4622F6068FC
:1010E000762E02C01111115077FE07C01C3348F450
:1010F00044244394410E27E00BC0183030F4212FD4
:1011000006C027E04CE3442E03C027E017E0412C43
:10111000560174E0A70EB11CF601608171818281D5
:101120009381042DA4010E948B0F6C01098100FFA3
:1011300002C003FF06C071FC07C072FC08C0612C2E
:1011400008C03DE2632E05C02BE2622E02C090E291
:10115000692E802F8C7099F1662011F084E001C017
:1011600083E0851510F0512C0BC0581A73FC08C091
:10117000B70180E290E00E9479105A94C9F7F3CF4A
:10118000662029F0B701862D90E00E94791003FDBA
:1011900003C00AED10E002C006ED10E0F72DF0717B
:1011A0007F2EF8018491882309F476C27110805251
:1011B000B70190E00E9479100F5F1F4FF2CF77FECA
:1011C0000FC04C0C04FF04C08A81813309F44A9497
:1011D000141474F5F8E0F41578F588E0482E2CC066
:1011E00076FC2AC0812F90E08C159D059CF06CEF59
:1011F000C6166FEFD60674F0772D7068772E0AC08A
:10120000E2E0F0E0EC0FFD1FE10FF11D8081803383
:1012100019F411501111F4CF77FE0EC044244394F9
:10122000410E812F90E0C816D9062CF41C1904C079
:101230004424439401C010E077FE07C01C141D0431
:101240003CF496012F5F3F4F05C025E030E002C01F
:1012500021E030E0662011F02F5F3F4F112331F085
:10126000412F50E04F5F5F4F240F351F452D50E059
:101270002417350714F4521A01C0512C872D897098
:1012800049F4552039F0B70180E290E00E947910CE
:101290005A94F7CF662029F0B701862D90E00E947E
:1012A000791073FC09C0552039F0B70180E390E054
:1012B0000E9479105A94F7CF77FE5FC09C2D8D2D38
:1012C000D7FE02C090E080E0692E782E40E050E02A
:1012D000C601841991099D878C87960126193709C3
:1012E000280D391D812F90E0EE27FF27E81BF90B11
:1012F000FF87EE87FFEF6F167F0669F4B7018EE276
:1013000090E02B8B3A8B488B598B0E94791059892E
:1013100048893A892B89C614D70454F06C857D8599
:10132000661577052CF4F901E40FF51F818101C0E2
:1013300080E371E0671A71084F5F5F4FEE85FF85AC
:101340006E167F066CF0B70190E02B8B3A8B488BC2
:10135000598B0E9479102B893A8948895989CACFBB
:101360006C147D0439F49A81963318F4953311F492
:1013700004FF81E3B70190E04BC08A81813309F01B
:101380000F7EB70190E00E947910111105C074FE24
:1013900018C085E490E017C0B7018EE290E00E948B
:1013A000791082E066246394680EF401E80FF11D61
:1013B0008081B70190E00E947910115041F3862D91
:1013C000F1CF85E690E0B7010E947910D7FC05C007
:1013D000C114D10439F404FF05C0D194C194D108DB
:1013E0008DE201C08BE2B70190E00E94791080E3AA
:1013F0006AE0C616D1042CF08F5FFAE0CF1AD1084C
:10140000F7CFB70190E00E947910B701C601C096EE
:101410000E94791041C1833631F0833779F08335EA
:1014200009F058C021C0560172E0A70EB11CF601A8
:101430008081898301E010E0640114C05601F2E06C
:10144000AF0EB11CF601C080D18026FF03C0612F12
:1014500070E002C06FEF7FEFC6012B8B0E946E1011
:101460008C012B892F7715C05601F2E0AF0EB11C0D
:10147000F601C080D18026FF03C0612F70E002C05A
:101480006FEF7FEFC6012B8B0E9463108C012B89BD
:101490002068722E23FD1AC0852D90E008171907C9
:1014A000A8F4B70180E290E00E9479105A94F4CF3A
:1014B000F60177FC859177FE81916F01B70190E08D
:1014C0000E94791051105A9401501109011511050B
:1014D00079F7E2C0843611F0893651F5560127FFBD
:1014E00009C0F4E0AF0EB11CF60160817181828108
:1014F00093810AC0F2E0AF0EB11CF60160817181E8
:10150000882777FD8095982F022F0F7697FF08C0C8
:1015100090958095709561957F4F8F4F9F4F006894
:101520002AE030E0A4010E940411C82EC8183EC071
:10153000022F853721F40F7E2AE030E01DC0097F9D
:101540008F3691F018F4883559F0B0C0803719F013
:10155000883711F0ABC0006104FF09C0046007C008
:1015600024FF08C0066006C028E030E005C020E186
:1015700030E002C020E132E0560107FF09C0F4E08C
:10158000AF0EB11CF601608171818281938108C028
:10159000F2E0AF0EB11CF6016081718180E090E055
:1015A000A4010E940411C82EC8180F7706FF0BC0B3
:1015B000202F2E7FC11650F404FF0AC002FD08C080
:1015C000202F2E7E05C0DC2C202F03C0DC2C01C078
:1015D000D12E24FF0DC0FE01EC0DF11D8081803362
:1015E00011F4297E09C022FF06C0D394D39404C00D
:1015F000822F867809F0D39423FD13C020FF06C004
:101600001C2DD51418F4150D1D19D52CD51468F4FE
:10161000B70180E290E02B8B0E947910D3942B8944
:10162000F5CFD51410F45D1801C0512C24FF12C061
:10163000B70180E390E02B8B0E9479102B8922FF69
:1016400017C021FF03C088E590E002C088E790E062
:10165000B7010CC0822F867859F021FD02C080E2CC
:1016600001C08BE227FD8DE2B70190E00E94791066
:10167000C11638F4B70180E390E00E947910115050
:10168000F7CFCA94F401EC0DF11D8081B70190E011
:101690000E947910C110F5CF552009F4C2CCB701D2
:1016A00080E290E00E9479105A94F6CFF70186818B
:1016B000978102C08FEF9FEF6396E2E10C94130CC9
:1016C0000E9412030E9481042FEF81EE94E02150CA
:1016D00080409040E1F700C00000F8940E94AF0500
:1016E00078948EEA95E00E94AB1087EB95E00E941B
:1016F000AB1040E050E060E371E086E391E00E94CF
:10170000B206182F092F40E060E00E94780669ECCD
:1017100075E0812F902F0E949B0769ED75E0812F66
:10172000902F0E949B0769EE75E0812F902F0E94F9
:101730009B0769EF75E0812F902F0E949B070E9405
:101740009E0469E076E0812F902F0E949B078FE72F
:10175000F82EC9E1D6E00E94E3041F92FF929F9306
:101760008F937F936F93DF93CF930F931F930E9479
:10177000CD0789E296E00E94AB109FEF20E782E060
:10178000915020408040E1F700C000008DB79EB727
:101790000A960FB6F8949EBF0FBE8DBFDCCFAA1B72
:1017A000BB1B51E107C0AA1FBB1FA617B70710F04C
:1017B000A61BB70B881F991F5A95A9F7809590957E
:1017C000BC01CD01089597FB072E16F4009407D0B5
:1017D00077FD09D00E94CF0B07FC05D03EF4909511
:1017E00081959F4F0895709561957F4F08952F9231
:1017F0003F924F925F926F927F928F929F92AF92A1
:10180000BF92CF92DF92EF92FF920F931F93CF93ED
:10181000DF93CDB7DEB7CA1BDB0B0FB6F894DEBF84
:101820000FBECDBF09942A88398848885F846E84AA
:101830007D848C849B84AA84B984C884DF80EE80F4
:10184000FD800C811B81AA81B981CE0FD11D0FB6FD
:10185000F894DEBF0FBECDBFED0108955058BB27F1
:10186000AA270ED01CC10DD130F012D120F031F4D6
:101870009F3F11F41EF402C10EF4E095E7FBF8C09F
:10188000E92F1ED180F3BA17620773078407950703
:1018900018F071F49EF536C10EF4E0950B2EBA2FB8
:1018A000A02D0B01B90190010C01CA01A001112466
:1018B000FF27591B99F0593F50F4503E68F11A1612
:1018C000F040A22F232F342F4427585FF3CF4695A3
:1018D00037952795A795F0405395C9F77EF41F16C5
:1018E000BA0B620B730B840BBAF09150A1F0FF0F8F
:1018F000BB1F661F771F881FC2F70EC0BA0F621F7B
:10190000731F841F48F4879577956795B795F7956A
:101910009E3F08F0B3CF9395880F08F09927EE0FFC
:101920009795879508950CD0BAC0B2D040F0A9D051
:1019300030F021F45F3F19F09BC05111E4C09EC00C
:10194000BFD098F39923C9F35523B1F3951B550BD9
:10195000BB27AA2762177307840738F09F5F5F4F82
:10196000220F331F441FAA1FA9F333D00E2E3AF0C3
:10197000E0E830D091505040E695001CCAF729D0DD
:10198000FE2F27D0660F771F881FBB1F261737072C
:101990004807AB07B0E809F0BB0B802DBF01FF275C
:1019A00093585F4F2AF09E3F510568F061C0ABC06D
:1019B0005F3FECF3983EDCF3869577956795B79596
:1019C000F7959F5FC9F7880F911D9695879597F9B1
:1019D0000895E1E0660F771F881FBB1F621773072A
:1019E0008407BA0720F0621B730B840BBA0BEE1F3F
:1019F00088F7E0950895E89409C097FB3EF4909528
:101A00008095709561957F4F8F4F9F4F9923A9F0D7
:101A1000F92F96E9BB279395F69587957795679566
:101A2000B795F111F8CFFAF4BB0F11F460FF1BC0AA
:101A30006F5F7F4F8F4F9F4F16C0882311F096E93D
:101A400011C0772321F09EE8872F762F05C06623EB
:101A500071F096E8862F70E060E02AF09A95660FA4
:101A6000771F881FDAF7880F9695879597F908955D
:101A700097F99F6780E870E060E008959FEF80EC41
:101A8000089500240A9416161706180609060895E4
:101A900000240A9412161306140605060895092E4A
:101AA0000394000C11F4882352F0BB0F40F4BF2BB9
:101AB00011F460FF04C06F5F7F4F8F4F9F4F0895F9
:101AC00057FD9058440F551F59F05F3F71F04795EF
:101AD000880F97FB991F61F09F3F79F087950895D4
:101AE000121613061406551FF2CF4695F1DF08C0F3
:101AF000161617061806991FF1CF86957105610510
:101B000008940895E894BB2766277727CB0197F9B7
:101B100008950EF0A6C0B2CF6894AACFD9DFC8F35B
:101B20009923D1F3C6F3DF93CF931F930F93FF92C3
:101B3000C92FDD2788232AF02197660F771F881F7A
:101B4000DAF720E030E040E85FEB9FE3883920F0EF
:101B5000803E30F021968F7782DEECE7F0E003C024
:101B60007EDEE9EAF0E08BD08B01BE01EC01FB2EBA
:101B70006F5771097595771F880B990B3EDF28E128
:101B800032E741E35FE316D0AF2D9801AE01FF903D
:101B90000F911F91CF91DF9173DE81CF0BD07FCF5B
:101BA00070DF28F075DF18F0952309F061CF66CF5C
:101BB0001124A9CF85DFA0F3959FD1F3950F50E0B5
:101BC000551F629FF001729FBB27F00DB11D639FEF
:101BD000AA27F00DB11DAA1F649F6627B00DA11D95
:101BE000661F829F2227B00DA11D621F739FB00D3B
:101BF000A11D621F839FA00D611D221F749F3327AB
:101C0000A00D611D231F849F600D211D822F762F43
:101C10006A2F11249F5750408AF0E1F088234AF040
:101C2000EE0FFF1FBB1F661F771F881F915050408C
:101C3000A9F79E3F510570F01BCF65CF5F3FECF3D6
:101C4000983EDCF3869577956795B795F795E79578
:101C50009F5FC1F7FE2B880F911D9695879597F989
:101C600008959F3F31F0915020F4879577956795BF
:101C7000B795880F911D9695879597F90895DF93ED
:101C8000CF931F930F93FF92EF92DF927B018C0112
:101C9000689405C0DA2EEF018DDFFE01E894A5916E
:101CA0002591359145915591AEF3EF01E9DDFE01A6
:101CB0009701A801DA9479F7DF90EF90FF900F91E8
:101CC0001F91CF91DF910895CF93DF9382309105DB
:101CD00010F482E090E0E0915D0EF0915E0E20E065
:101CE00030E0A0E0B0E0309739F1408151814817F1
:101CF0005907B8F04817590771F4828193811097FA
:101D000029F013969C938E9312972CC090935E0E9D
:101D100080935D0E27C02115310531F0421753071E
:101D200018F0A901DB0101C0EF019A01BD01DF013B
:101D30000280F381E02DD7CF21153105F9F0281B62
:101D4000390B2430310580F48A819B81611571053E
:101D500021F0FB019383828304C090935E0E8093F5
:101D60005D0EFE01329644C0FE01E20FF31F819327
:101D7000919322503109398328833AC020915B0E18
:101D800030915C0E232B41F42091EA013091EB015C
:101D900030935C0E20935B0E2091E8013091E901B5
:101DA0002115310541F42DB73EB74091EC0150911A
:101DB000ED01241B350BE0915B0EF0915C0EE217F8
:101DC000F307A0F42E1B3F0B2817390778F0AC015E
:101DD0004E5F5F4F2417350748F04E0F5F1F50933B
:101DE0005C0E40935B0E8193919302C0E0E0F0E0C3
:101DF000CF01DF91CF910895CF93DF93009709F43E
:101E000087C0FC01329713821282C0915D0ED0917F
:101E10005E0E209781F420813181280F391F809137
:101E20005B0E90915C0E8217930779F5F0935C0E30
:101E3000E0935B0E6DC0DE0120E030E0AE17BF071F
:101E400050F412964D915C9113979D0141155105E7
:101E500009F1DA01F3CFB383A28340815181840F6A
:101E6000951F8A179B0771F48D919C911197840F90
:101E7000951F02969183808312968D919C91139762
:101E8000938382832115310529F4F0935E0EE0934C
:101E90005D0E3EC0D9011396FC93EE9312974D91BF
:101EA0005D91A40FB51FEA17FB0779F4808191813A
:101EB000840F951F0296D90111969C938E9382816F
:101EC000938113969C938E931297E0E0F0E08A81C1
:101ED0009B81009719F0FE01EC01F9CFCE0102962B
:101EE00028813981820F931F20915B0E30915C0E07
:101EF0002817390769F4309729F410925E0E109272
:101F00005D0E02C013821282D0935C0EC0935B0EF2
:101F1000DF91CF910895283008F027E03327DA01C8
:101F2000990F311D87FD916000966105710539F4A7
:101F300032602E5F3D9330E32A95E1F708959F3F8D
:101F400030F080387105610509F03C5F3C5F3D93DE
:101F5000913008F08068911DDF93CF931F930F930A
:101F6000FF92EF92192F987F9695E92F9695969567
:101F7000E90FFF27E85CFE4F99273327EE24FF2463
:101F8000A701E70105900894079428F4360FE71E8F
:101F9000F81E491F511D660F771F881F991F069451
:101FA000A1F70590079428F4E70EF81E491F561F65
:101FB000C11D770F881F991F661F0694A1F7059012
:101FC000079428F4F80E491F561FC71FD11D880F0C
:101FD000991F661F771F0694A1F70590079420F4B8
:101FE000490F561FC71FD81F990F661F771F881FDD
:101FF0000694A9F784911095177041F0D695C7956E
:1020000057954795F794E7941A95C1F7EEEDF0E0F0
:1020100068941590159135916591959105907FE2A1
:102020007395E118F10A430B560BC90BD009C0F7A1
:10203000E10CF11E431F561FC91FD01D7EF47033E3
:1020400011F48A95E6CFE894015030F0080F0AF4B5
:102050000027021708F4202F2395022F7A3328F047
:1020600079E37D932A95E9F710C07D932A9589F647
:10207000069497956795379517951794E118F10A87
:10208000430B560BC90BD00998F023957E9173959D
:102090007A3308F070E37C932013B8F77E91706177
:1020A0007D9330F0839571E37D9370E32A95E1F79A
:1020B0001124EF90FF900F911F91CF91DF919927FD
:1020C00087FD90950895FC010590615070400110C6
:1020D000D8F7809590958E0F9F1F0895FC01615051
:1020E000704001900110D8F7809590958E0F9F1F3A
:1020F00008950F931F93CF93DF93182F092FEB01B0
:102100008B8181FD03C08FEF9FEF20C082FF10C045
:102110004E815F812C813D81421753077CF4E88119
:10212000F9819F012F5F3F4F39832883108306C0B9
:10213000E885F985812F0995892B29F72E813F8123
:102140002F5F3F4F3F832E83812F902FDF91CF91C1
:102150001F910F9108950F931F93CF93DF93E091F9
:10216000610EF091620E238121FF1BC0EC0100E0A3
:1021700010E089916091610E7091620EDB011896FA
:10218000ED91FC911997882331F00995892B89F3FA
:102190000FEF1FEFEECF8AE00995892B11F4C801EC
:1021A00002C08FEF9FEFDF91CF911F910F910895A4
:1021B000AEE0B0E0EEEDF0E10C94050C8C01CA014C
:1021C00046E04C831A83098377FF02C060E070E821
:1021D000615071097E836D83A901BC01CE01019616
:1021E0000E94E5074D815E8157FD0AC02F81388529
:1021F000421753070CF49A01F801E20FF31F108203
:102200002E96E4E00C94210CFA01AA27283051F113
:10221000203181F1E8946F936E7F6E5F7F4F8F4F17
:102220009F4FAF4FB1E03ED0B4E03CD0670F781F76
:10223000891F9A1FA11D680F791F8A1F911DA11D5B
:102240006A0F711D811D911DA11D20D009F4689494
:102250003F912AE0269F11243019305D3193DEF63C
:10226000CF010895462F4770405D4193B3E00FD0F2
:10227000C9F7F6CF462F4F70405D4A3318F0495DDD
:1022800031FD4052419302D0A9F7EACFB4E0A695C0
:102290009795879577956795BA95C9F700976105E2
:1022A000710508959B01AC010A2E06945795479538
:1022B00037952795BA95C9F7620F731F841F951F2D
:0822C000A01D0895F894FFCF62
:1022C8000000D20101000100D20102000200D20187
:1022D80004000300D20108000400D2011000050028
:1022E800D20120000600D20140000700D201800080
:1022F8000000CC0101000100CC0102000200CC0169
:1023080004000300CC0108000400CC011000050003
:10231800CC0120000600CC0140000700CC01800061
:102328000000C60101000100C60102000200C6014A
:1023380004000300C60108000400C60110000500DF
:10234800C60120000600C60140000700C601800043
:102358000000C00101000100C00102000200C0012C
:1023680004000300C00108000400C00110000500BB
:10237800C00120000600C00140000700C001800025
:102388002000220021002300250024002600280028
:10239800270029002B002A00280000000002000066
:1023A8000000BB03000000000000650E20000000D4
:1023B8000000000000000000000000005F000000B6
:1023C80000000000070000000700000014007F0064
:1023D80014007F00140024002A007F002A00120045
:1023E800230013000800640062003600490055000D
:1023F800220050000000050003000000000000005B
:102408001C002200410000000000410022001C00C6
:102418000000140008003E0008001400080008002E
:102428003E000800080000005000300000000000D6
:1024380008000800080008000800000060006000AC
:1024480000000000200010000800040002003E0008
:102458005100490045003E00000042007F00400056
:10246800000042006100510049004600210041007F
:1024780045004B0031001800140012007F001000C6
:10248800270045004500450039003C004A00490046
:102498004900300001007100090005000300360002
:1024A8004900490049003600060049004900290052
:1024B8001E00000036003600000000000000560034
:1024C800360000000000080014002200410000004F
:1024D800140014001400140014000000410022002D
:1024E8001400080002000100510009000600320033
:1024F8004900790041003E007E00110011001100E2
:102508007E007F0049004900490036003E00410036
:102518004100410022007F004100410022001C00D0
:102528007F0049004900490041007F000900090077
:10253800090001003E004100490049007A007F007F
:102548000800080008007F00000041007F004100EB
:1025580000002000400041003F0001007F0008000B
:102568001400220041007F0040004000400040006D
:102578007F0002000C0002007F007F0004000800BA
:1025880010007F003E004100410041003E007F00F6
:1025980009000900090006003E0041005100210021
:1025A8005E007F0009001900290046004600490026
:1025B800490049003100010001007F0001000100CD
:1025C8003F004000400040003F001F002000400046
:1025D80020001F003F004000380040003F0063001B
:1025E80014000800140063000700080070000800C9
:1025F80007006100510049004500430000007F00CA
:102608004100410000000200040008001000200002
:102618000000410041007F000000040002000100AA
:10262800020004004000400040004000400000005C
:10263800010002000400000020005400540054006F
:1026480078007F0048004400440038003800440007
:1026580044004400200038004400440048007F0043
:102668003800540054005400180008007E00090087
:10267800010002000C005200520052003E007F0090
:102688000800040004007800000044007D004000B9
:1026980000002000400044003D0000007F001000C2
:1026A800280044000000000041007F0040000000B6
:1026B8007C0004001800040078007C000800040076
:1026C80004007800380044004400440038007C00CE
:1026D8001400140014000800080014001400180066
:1026E8007C007C0008000400040008004800540036
:1026F80054005400200004003F0044004000200023
:102708003C004000400020007C001C0020004000ED
:1027180020001C003C004000300040003C00440009
:1027280028001000280044000C0050005000500001
:102738003C004400640054004C00440000000800C1
:10274800360041000000000000007F00000000008B
:1027580000004100360008000000100008000800D2
:102768001000080000000600060000000000727556
:102778006E6E696E672E00456E746572696E6720AD
:10278800636D64206D6F6465002D3D2064656C7415
:1027980061626F74203D2D0A0075617274202020DB
:1027A8002020205B4F4B5D0A007370692020202099
:1027B8002020205B4F4B5D0A006C636420202020A2
:1027C8002020205B4F4B5D0A0074656D7020726598
:1027D8007320205B4F4B5D0A0074656D703A2025AD
:1027E800302E32662563430D0070696E67002D3DFB
:1027F8002064656C7461626F742076302E31203DE0
:102808002D0D0A00436F6E736F6C652053746172EF
:102818007465642E0D0A003E00476F74207374754A
:0628280066660D0A0000C7
:00000001FF
