:100000000C940A010C9427010C9427010C942701ED
:100010000C9427010C9427010C9427010C942701C0
:100020000C9427010C9427010C9427010C942701B0
:100030000C9427010C94A4020C9427010C94270122
:100040000C9427010C9427010C9427010C94BD06F5
:100050000C949D040C9427010C94E9030C94270143
:100060000C94F9050C9427010C9427010C9427019A
:100070000C9427010C9427010C9427010800000020
:10008000BE922449123EABAAAA2ABECDCCCC4C3E8D
:1000900000000080BEABAAAAAA3E00000000BF007C
:1000A0000000803F0000000000084178D3BB438778
:1000B000D1133D190E3CC3BD4282AD2B3E68EC828C
:1000C00076BED98FE1A93E4C80EFFFBE01C4FF7F11
:1000D0003F00000000006E616E00696E6600004027
:1000E0007A10F35A00A0724E18090010A5D4E80047
:1000F00000E87648170000E40B54020000CA9A3B5F
:10010000000000E1F50500008096980000004042E4
:100110000F000000A0860100000010270000000072
:10012000E803000000006400000000000A00000076
:1001300000000100000000002C76D888DC674F0822
:1001400023DFC1DFAE59E1B1B796E5E3E453C63A28
:10015000E651997696E8E6C28426EB898C9B62ED9F
:10016000407C6FFCEFBC9C9F40F2BAA56FA5F49059
:10017000055A2AF75C936B6CF9676DC11BFCE0E4D0
:100180000D47FEF520E6B500D0ED902E0300943526
:1001900077050080841E080000204E0A000000C879
:1001A0000C333333330F986E12831141EF8D2114CA
:1001B000893BE65516CFFEE6DB18D1844B381BF79A
:1001C0007C1D901DA4BBE424203284725E22810039
:1001D000C9F124ECA1E53D274E414E494E49545901
:1001E000494E46CDCCCC3D0AD7233C17B7D1387702
:1001F000CC2B329595E6241FB14F0A000020410018
:1002000000C84200401C4620BCBE4CCA1B0E5AAE61
:10021000C59D740011241FBECFEFD0E1DEBFCDBF5E
:1002200017E0A0E0B1E0EAEFF6E302C005900D921E
:10023000AA33B107D9F710E1AAE3B7E001C01D92D4
:10024000A735B107E1F70E9473130C947B1B0C9444
:100250000000DC011496ED91FC9115972FEF20839F
:100260001296ED91FC91139710820895DC0112967D
:10027000ED91FC91139710820895DC011296ED9197
:10028000FC9113978FEF80830895DC011296ED9116
:10029000FC9113978081809580830895DC011296EC
:1002A000ED91FC91139760830895CF93DF9300D075
:1002B00000D000D0CDB7DEB79B018B839C83E1E0FB
:1002C000F0E002C0EE0FFF1F6A95E2F7FE83ED83B8
:1002D000AC016E2F7E8180E090E026960FB6F894F8
:1002E000DEBF0FBECDBFDF91CF910895DC01129626
:1002F000ED91FC9113970190F081E02D208130E089
:100300000C9002C0369527950A94E2F7C9018170D6
:1003100099270895DC011296ED91FC9113970280C4
:10032000F381E02D208114968C91282B2083089551
:10033000DC011296ED91FC9113970280F381E02D80
:10034000208114968C918095822380830895672B59
:1003500011F00C948A010C949801DC011296ED9135
:10036000FC9113970190F081E02D14968C9180837D
:100370000895CF93DF93EC0188EE93E00E94F4019F
:10038000CE010E94AD0188EE93E00E94F401CE01FF
:100390000E94AD0188EE93E0DF91CF910C94F401BF
:1003A000CF93DF93EC010E949801EA81FB810480E6
:1003B000F581E02D80819C81892B8083DF91CF9115
:1003C0000895CF93DF93EC010E949801EA81FB81AD
:1003D0000480F581E02D90818C8180958923808334
:1003E000DF91CF91089508950895CF92DF92EF9213
:1003F000FF920F931F93CF93DF936C017B018A01D0
:1004000086E090E00E94B816EC01D982C882FB8297
:10041000EA821D830C83C6010E949801C7010E94D5
:100420008A01C8010E949801C6010E94D001C7013B
:100430000E94D001C8010E94D001E0913C07F091D8
:100440003D07EE0FFF1FE25CFF4ED183C08380911A
:100450003C0790913D07019690933D0780933C07A0
:10046000CE01DF91CF911F910F91FF90EF90DF9020
:10047000CF900895F89410928000E1E8F0E01082A7
:1004800081E090E09093890080938800808188606B
:10049000808378940895CF93DF93EC0188819981CC
:1004A0000E948A0188819981DF91CF910C949801F3
:1004B000FC01828193810C94A7019093D9018093D0
:1004C000D8018091D8019091D901909389008093AF
:1004D00088000895E0913E10F0913F10848195814D
:1004E0000E94980186E391E00E948A01E1E8F0E031
:1004F000808181608083EFE6F0E08081826080838C
:1005000081E090E090938900809388000895E091C5
:100510003E10F0913F10848195810E948A0186E30C
:1005200091E00E949801E1E8F0E080818E7F808375
:10053000EFE6F0E080818D7F808381E090E0909312
:1005400089008093880008951F920F920FB60F9232
:1005500011242F933F934F935F936F937F938F93C8
:100560009F93AF93BF93EF93FF9360910A107091A5
:100570000B1080910C1090910D1020E030E0A9013B
:100580000E94D91518163CF0809104109091051026
:10059000019709F00BC160911610709117108091AE
:1005A00018109091191020E030E040E85FE30E94BD
:1005B0002614609316107093171080931810909360
:1005C0001910609112107091131080911410909175
:1005D000151020E030E040E85FE30E9426146093AD
:1005E0001210709313108093141090931510609153
:1005F0000E1070910F10809110109091111020E04A
:1006000030E040E85FE30E94261460930E10709380
:100610000F1080931010909311106091161070912C
:10062000171080911810909119102091221030917C
:10063000231040912410509125100E94D91587FD58
:1006400020C060912210709123108091241090910D
:10065000251020E030E040E85FEB0E948A148823F8
:1006600081F0E0913E10F0913F10808191810E94D5
:10067000AD011092161010921710109218101092CF
:1006800019106091121070911310809114109091B4
:10069000151020911E1030911F1040912010509184
:1006A00021100E94D91587FD20C060911E10709105
:1006B0001F10809120109091211020E030E040E840
:1006C0005FEB0E948A14882381F0E0914010F09142
:1006D0004110808191810E94AD0110921210109200
:1006E0001310109214101092151060910E1070914A
:1006F0000F10809110109091111020911A103091CC
:100700001B1040911C1050911D100E94D91587FD9F
:1007100020C060911A1070911B1080911C10909154
:100720001D1020E030E040E85FEB0E948A1488232F
:1007300081F0E0914210F0914310808191810E94FC
:10074000AD0110920E1010920F1010921010109216
:10075000111060910610709107108091081090910F
:10076000091020E030E040E85FE30E942614609327
:1007700006107093071080930810909309106091F1
:100780000A1070910B1080910C1090910D1020E0C8
:1007900030E040E85FE30E94251460930A107093F4
:1007A0000B1080930C1090930D1002C00E948702D2
:1007B000FF91EF91BF91AF919F918F917F916F9139
:1007C0005F914F913F912F910F900FBE0F901F900F
:1007D00018951F920F920FB60F9211242F933F93EB
:1007E0004F935F936F937F938F939F93AF93BF9339
:1007F000EF93FF93E0914610F0914710828193812F
:100800000E94DC0581110AC0E0914610F09147106A
:10081000828193810E946F058093C6008CE391E0F2
:100820000E94AD01FF91EF91BF91AF919F918F9188
:100830007F916F915F914F913F912F910F900FBEDC
:100840000F901F901895CF93DF9385E090E00E9462
:10085000B816EC0180E490E00E940B059983888330
:1008600080E490E00E940B059B838A831C828FE0CA
:100870008093C4001092C50088ED8093C1007894E5
:10088000D0934710C0934610CE01DF91CF910895C9
:10089000E1ECF0E08081886D80830895E1ECF0E088
:1008A0008081877280830895E0914610F09147100F
:1008B000808191810E946F058A3011F0811106C0FC
:1008C000E0914610F0914710148280E00895E09185
:1008D0004610F0914710BC01828193810E945D0512
:1008E0008091C00085FF0AC0E0914610F09147104A
:1008F000828193810E946F058093C6000895E091E4
:100900004610F091471084810895E0914610F091CF
:100910004710682F828193810E943E058091C0001C
:1009200085FF0AC0E0914610F091471082819381C3
:100930000E946F058093C60008951F920F920FB614
:100940000F9211242F933F934F935F936F937F9355
:100950008F939F93AF93BF93EF93FF938091C600C4
:100960008093481080914810E0914610F091471014
:100970008F3759F4808191810E94C405882339F111
:100980008AE896E00E94670422C0809148108D306A
:1009900011F41092481060914810808191810E945A
:1009A0003E05809148100E94850480914810811175
:1009B0000AC08EE896E00E946704E0914610F0912C
:1009C000471081E0848386E391E00E94AD01FF91AE
:1009D000EF91BF91AF919F918F917F916F915F91B7
:1009E0004F913F912F910F900FBE0F901F90189530
:1009F000CF93C82F8A3019F48DE00E9485048C2F84
:100A0000CF910C9485048091C00087FFFCCF80912A
:100A1000C60090E008950F931F93CF93DF9300914A
:100A200040071091410798012F5F3F4F30934107D6
:100A30002093400726E0000F111F2A95E1F70E5B77
:100A4000184FC0E0D0E0C817D90731F0F801EC0F1B
:100A5000FD1F10822196F7CF88E090E00E94B81623
:100A6000FC01118300831382128215821482D783C2
:100A7000C683DF91CF911F910F910895FC01A08152
:100A8000B18184819581A80FB91F6C93268137812C
:100A9000848195810196B9010E94C6139583848350
:100AA000428153814817590739F4CA010196B901A7
:100AB0000E94C6139383828308950F931F93CF934D
:100AC000DF938C01EB016991662321F0C8010E943C
:100AD0003E05F9CFDF91CF911F910F910895FC0151
:100AE00082819381248135818217930771F0A081DF
:100AF000B181A80FB91F2C910196668177810E9460
:100B0000C61393838283822F089580E00895FC01A9
:100B1000CB0122813381820F931F668177810E94EE
:100B2000C6130190F081E02DE80FF91F8081089530
:100B3000FC01CB0122813381820F931F6681778173
:100B40000E94C6130190F081E02DE80FF91F408349
:100B50000895CF93DF93FC01EB01268137818281D9
:100B60009381860F971FB9010E94C61393838283D6
:100B7000848195818C0F9D1FB9010E94C6139583B6
:100B80008483DF91CF910895FC0184819581228136
:100B900033812817390771F00197A081B181A80F1F
:100BA000B91F2C91668177810E94C6139583848337
:100BB000822F089580E00895FC0181E042815381F5
:100BC000248135814217530709F080E00895ECE74E
:100BD000F0E0808185648083EAE7F0E08FEA80833B
:100BE000ABE7B0E08C9180748C93808180648083CB
:100BF00008951F920F920FB60F9211242F933F93D7
:100C00008F939F93EF93FF938091C2079091C307B7
:100C10002091780030917900FC01EE0FFF1FEC531A
:100C2000F84F318320830196883E23E0920729F014
:100C30009093C3078093C20704C01092C307109219
:100C4000C207FF91EF919F918F913F912F910F904C
:100C50000FBE0F901F9018958F929F92AF92BF92E8
:100C6000CF92DF92EF92FF92A12CB12CC12CD12C0C
:100C70007601F501EE0FFF1FEC53F84F6081718193
:100C8000882777FD8095982F0E9429159B01AC013C
:100C9000C701B6010E9426146B017C018FEFA81AD0
:100CA000B80A88EEA81683E0B80619F720E030E00D
:100CB0004AE754E4C701B6010E948E1420E030E0F8
:100CC00040EA50E40E94221620E030E040E85AE377
:100CD0000E9422166B017C0120E030EE42E955E4CF
:100CE0000E9422164B015C01A701960160E070E0B2
:100CF00080EA90E40E9425149B01AC01C501B40177
:100D00000E948E1420E030E543EC57E40E948E14DC
:100D10000E94E2159B01AC0160E070E080E89FE377
:100D20000E948E1420E030EE46E755E40E94221621
:100D30009B01AC0160E070E080E89FE30E948E14AC
:100D40002FE03FEC4BE55BE30E9426149B01AC01D6
:100D500060E070E080E89FE30E948E1423E333E9B3
:100D600048E853E40E942514FF90EF90DF90CF9065
:100D7000BF90AF909F908F9008951F920F920FB6E3
:100D80000F9211242F933F934F935F936F937F9311
:100D90008F939F93AF93BF93EF93FF938EB5809301
:100DA0004810E0914910F0914A10828193810E948D
:100DB000DC05E0914910F0914A10811106C0828152
:100DC00093810E946F058EBD02C081E08483FF91F4
:100DD000EF91BF91AF919F918F917F916F915F91B3
:100DE0004F913F912F910F900FBE0F901F9018952C
:100DF000CF93DF9385E090E00E94B816EC0180E18C
:100E000090E00E940B059983888380E190E00E9426
:100E10000B059B838A8381E08C838EE791E00E949F
:100E2000D0018AE891E00E94D00184E891E00E941C
:100E3000E10188E791E00E94D0018CB580618CBD12
:100E40008CB583608CBD8CB580688CBD8CB580649E
:100E50008CBDD0934A10C0934910CE01DF91CF9141
:100E60000895E0914910F0914A10682F8281938192
:100E70000E943E05E0914910F0914A108481882338
:100E800031F01482828193810E946F058EBD089596
:100E9000FF920F931F93CF93DF93EC01F62E2E81D9
:100EA0003F818AE0681769F08DE0681322C0C901AC
:100EB0006EE070E00E94DA13281B390B3F832E830B
:100EC00047C0273431052CF084E590E09F838E8362
:100ED0003FC0EEE0F0E0C901BF010E94DA130097C5
:100EE000B9F1BF01681B790B620F731F7F836E839B
:100EF0002FC02435310589F06E817F819B012F5FE2
:100F00003F4F3F832E834F2D8E859F85DF91CF915D
:100F10001F910F91FF900C94980586E490E09F83B9
:100F20008E836EE070E08E859F850E94A90500E0AB
:100F300010E06E817F81600F711F40E28E859F857A
:100F40000E9498050F5F1F4F0E30110591F7D4CF07
:100F5000DF91CF911F910F91FF900895CF93DF9371
:100F6000C8EFD1E080E00E94310789EF90E001975F
:100F7000F1F700C0000021972097A1F7DF91CF91F2
:100F800008950F931F93CF93DF9300D0CDB7DEB7B3
:100F90008C01FC01848595854A8369830E949801B0
:100FA000F801828593850E9498016981862F806867
:100FB0000E94310789EF90E00197F1F700C000002F
:100FC0004A81842F80640E943107E9EFF0E0319775
:100FD000F1F700C00000F801848595850E948A0120
:100FE000F801828593850F900F90DF91CF911F912B
:100FF0000F910C948A01CF92DF92EF92FF920F93A0
:101000001F93CF93DF938C017B016A0180E190E015
:101010000E94B816EC010E94F806998388831B870A
:101020000A87F986E886DD86CC868EE090E09B8391
:101030008A8386E090E09D838C831F821E8280E8F5
:1010400090E00E940B059F878E87C8010E94D00107
:10105000C7010E94D001C6010E94D001C6010E94B2
:101060009801C7010E948A01C7010E94B901C80105
:101070000E94980189EF90E00197F1F700C000000D
:1010800081E20E94310789EF90E00197F1F700C0FB
:10109000000080EA0E94310789EF90E00197F1F7A4
:1010A00000C0000084E00E94310789EF90E00197C2
:1010B000F1F700C0000084E10E94310789EF90E061
:1010C0000197F1F700C0000080E20E94310789EF2C
:1010D00090E00197F1F700C000008CE00E9431071A
:1010E00089EF90E00197F1F700C00000C8010E946D
:1010F0008A01CE010E94AE0740E060E0CE010E946E
:10110000C107C6010E948A01CE01DF91CF911F91D4
:101110000F91FF90EF90DF90CF900895BF92CF9204
:10112000DF92EF92FF920F931F93CF93DF936C01A7
:1011300040E060E00E94C107C0E0D0E08AE0B82E45
:10114000BE01F601868597850E948705282F3327E3
:1011500027FD30952032310514F420E230E0205292
:101160003109B29E7001B39EF00C1124C701865361
:101170009D4F7C0100E010E0F701E00FF11F80813E
:101180000E943107E9EFF0E03197F1F700C000006D
:101190000E5F1F4F0A30110579F780E00E9431077A
:1011A00089EF90E00197F1F700C000002196C43567
:1011B000D10531F6DF91CF911F910F91FF90EF9004
:1011C000DF90CF90BF900895EF92FF920F931F93FF
:1011D000CF93DF9300D0CDB7DEB77C01FC018485CF
:1011E000958569837A830E949801F70182859385AA
:1011F0000E948A016981062F7A81172FF801619177
:101200008F01C701662319F00E944807F7CF0E949B
:101210008E08F701848595850F900F90DF91CF910F
:101220001F910F91FF90EF900C948A01CF93DF9361
:10123000CDB7DEB79E01275F3F4F4F8158856FE1E5
:1012400070E084E99FE00E944D1964E97FE08D81A0
:101250009E810E94E408DF91CF9108950E942C06A0
:101260009F938F937F936F9381E996E09F938F93E2
:101270000E940C190F900F900F900F900F900F90ED
:10128000089584EC9FE09F938F9384EB9FE09F935E
:101290008F938DE996E09F938F930E940C190F9086
:1012A0000F900F900F900F900F90089584EC9FE097
:1012B0000E94DF1760933A1070933B1080933C10AC
:1012C00090933D1084ED9FE00E94DF1760933610ED
:1012D00070933710809338109093391084EE9FE00C
:1012E0000E94DF1760933210709333108093341094
:1012F000909335100C94140D88E491E00E947601CF
:101300009F938F938DEA96E09F938F930E940C1981
:101310000F900F900F900F9008954F925F926F92E1
:101320007F928F929F92AF92BF92CF92DF92EF9275
:10133000FF920F931F93CF93DF93CDB7DEB728971C
:101340000FB6F894DEBF0FBECDBF84EC9FE00E94C5
:10135000DF176B017C0184ED9FE00E94DF172B01FA
:101360003C0184EE9FE00E94DF174B015C0184EF9B
:101370009FE00E94DF1769837A838B839C838CE9CB
:1013800091E00E94980120E030E0A901C301B20180
:101390000E94D915E0913E10F0913F1018162CF4E0
:1013A000828193810E94980104C0828193810E946E
:1013B0008A0120E030E0A901C501B4010E94D915DD
:1013C000E0914010F091411018162CF48281938125
:1013D0000E94980104C0828193810E948A0120E0CA
:1013E00030E0A90169817A818B819C810E94D915A5
:1013F000E0914210F091431018162CF482819381F1
:101400000E94980104C0828193810E948A01E8941D
:1014100077F8D501C401BF778D839E83AF83B887EA
:1014200089819A81AB81BC81BF7789839A83AB83A1
:10143000BC83109216101092171010921810109270
:101440001910109212101092131010921410109282
:10145000151010920E1010920F1010921010109282
:1014600011106091161070911710809118109091C2
:1014700019108090161090901710A0901810B0902E
:101480001910A30192010E9426140E94F6148B01E8
:10149000C501B4010E94F6140617170741F0E09148
:1014A0003E10F0913F10808191810E94AD016091CA
:1014B000121070911310809114109091151080905B
:1014C000121090901310A0901410B09015102D8150
:1014D0003E814F8158850E9426140E94F6148B018C
:1014E000C501B4010E94F6140617170741F0E091F8
:1014F0004010F0914110808191810E94AD01609176
:101500000E1070910F10809110109091111080901A
:101510000E1090900F10A0901010B0901110298113
:101520003A814B815C810E9426140E94F6148B0143
:10153000C501B4010E94F6140617170741F0E091A7
:101540004210F0914310808191810E94AD01609121
:101550001610709117108091181090911910A30116
:1015600092010E94261460931610709317108093B6
:1015700018109093191060911210709113108091AF
:101580001410909115102D813E814F8158850E9435
:10159000261460931210709313108093141090937C
:1015A000151060910E1070910F1080911010909195
:1015B000111029813A814B815C810E94261460932D
:1015C0000E1070930F10809310109093111020E064
:1015D00030E040E85FE3C701B6010E9425146B01CB
:1015E0007C0120E030E0A9010E948A1418160CF456
:1015F00038CF8CE991E028960FB6F894DEBF0FBE85
:10160000CDBFDF91CF911F910F91FF90EF90DF90B1
:10161000CF90BF90AF909F908F907F906F905F9092
:101620004F900C948A01CF93DF93C0E6DAEE80E30B
:1016300091E00E94AD0123E02A95F1F70000219787
:101640002097A9F78FE392E42FE08150904020404B
:10165000E1F700C00000C0E6DAEE80E391E00E940E
:10166000AD0183E08A95F1F7000021972097A9F753
:101670009FE322E48FE0915020408040E1F700C0DA
:101680000000C0E6DAEE80E391E00E94AD0193E055
:101690009A95F1F7000021972097A9F72FE382E4AC
:1016A0009FE0215080409040E1F700C00000DF91B2
:1016B000CF910895EF92FF920F931F93CF93DF93F3
:1016C00086E991E00E94980180E691E00E949801ED
:1016D0008CE691E00E9498018CE991E00E949801CB
:1016E0001092061010920710109208101092091014
:1016F00089EB96E00E942019EE24E394F12C01E09E
:1017000010E0C1E0D0E06091061070910710809168
:1017100008109091091020E030E040E85FE30E945B
:10172000261460930610709307108093081090930E
:101730000910C130D10541F4E0913E10F0913F1005
:10174000808191810E94AD010130110541F4E09149
:101750004010F0914110808191810E94AD0181E0A3
:10176000E816F10441F4E0914210F09143108081B9
:1017700091810E94AD0188EA91E00E947601892B57
:1017800011F4CFEFDFEF8EEA91E00E947601892B12
:1017900011F40FEF1FEF8AE591E00E947601892B8B
:1017A00019F4EE24EA94FE2CCF3F8FEFD80741F4D2
:1017B0000F3F8FEF180721F48FEFE816F80621F09E
:1017C00084E18A95F1F79FCF8091061090910710E0
:1017D000A0910810B0910910BF93AF939F938F937E
:1017E00082EC96E09F938F930E940C190F900F90BC
:1017F0000F900F900F900F908CE991E0DF91CF91B7
:101800001F910F91FF90EF900C948A0186E991E06F
:101810000E948A0180E691E00E948A018CE691E0B4
:101820000E948A018CE991E00E94980110920610B2
:101830001092071010920810109209108CEC96E08C
:101840000E94201960910610709107108091081075
:101850009091091020E030E040E85FE30E942614F8
:1018600060930610709307108093081090930910EE
:10187000E0913E10F0913F10808191810E94AD0176
:10188000E0914010F0914110808191810E94AD0162
:10189000E0914210F0914310808191810E94AD014E
:1018A00088E491E00E947601019721F084E18A9515
:1018B000F1F7C8CF8091061090910710A091081001
:1018C000B0910910BF93AF939F938F9382EC96E0F2
:1018D0009F938F930E940C190F900F900F900F9071
:1018E0000F900F908CE991E00C948A010E945A0BA2
:1018F0000C94060C8091C40F811103C087ED96E013
:101900001AC062EF76E084EC9FE00E94C618892B33
:1019100021F48EE491E00C948A0165EF76E084EC8A
:101920009FE00E94C618892B21F48EE491E00C946C
:10193000980189EF96E00C94201986EB92E0909341
:1019400052108093511080E097E00E94201984E1AA
:1019500097E00C9420190F931F93CF93DF9324EB00
:101960003FE080E12430380709F044C000E010E097
:10197000C0E0D0E00E945404811105C00AED11E0DE
:10198000C0E0D0E012C0803219F40F5F1F4FF0CFDB
:10199000F80124E0EE0FFF1F2A95E1F7EC0FFD1F81
:1019A000EC54F04F80832196E5CF64EB7FE0C801D3
:1019B0000E94C6180A5E1F4F892B81F486E18C9F16
:1019C000F0018D9FF00D1124E652FE4F0488F58939
:1019D000E02DDF91CF911F910F9109942196CA308C
:1019E000D10519F785E297E0DF91CF911F910F9113
:1019F0000C94201980E090E0F901E80FF91F1082A3
:101A0000019680319105C1F7205F3F4FAACF88E34F
:101A100097E00E9467040E947F048823E1F30C94FE
:101A2000AB0C0E94070DFDCF4F925F926F927F9299
:101A30008F929F92AF92BF92CF92DF92EF92FF92DE
:101A40000F931F93CF93DF9360913A1070913B10E7
:101A500080913C1090913D1020912E1030912F10CC
:101A600040913010509131100E9425142B013C01FF
:101A70006091361070913710809138109091391024
:101A800020912A1030912B1040912C1050912D1044
:101A90000E9425144B015C0160913210709133104B
:101AA000809134109091351020912610309127109C
:101AB00040912810509129100E9425146B017C013F
:101AC00080913A1090913B10A0913C10B0913D1044
:101AD00080932E1090932F10A0933010B09331105C
:101AE0008091361090913710A0913810B091391034
:101AF00080932A1090932B10A0932C10B0932D104C
:101B00008091321090913310A0913410B091351023
:101B10008093261090932710A0932810B09329103B
:101B200020E030E0A901C301B2010E94D915E09183
:101B30003E10F0913F1018162CF4828193810E9480
:101B4000980104C0828193810E948A0120E030E0E4
:101B5000A901C501B4010E94D915E0914010F0918E
:101B6000411018162CF4828193810E94980104C0C0
:101B7000828193810E948A0120E030E0A901C7019F
:101B8000B6010E94D915E0914210F0914310181649
:101B90002CF4828193810E94980104C082819381F8
:101BA0000E948A01109216101092171010921810AD
:101BB000109219101092121010921310109214100B
:101BC0001092151010920E1010920F10109210100B
:101BD00010921110C301B2010E94F614EB0177FFBD
:101BE00004C0CC27DD27C61BD70BC501B4010E945A
:101BF000F6148B0177FF04C000271127061B170B73
:101C0000C017D1070CF494C0C701B6010E94F614A6
:101C10009B0177FF04C022273327261B370BC217EF
:101C2000D3070CF485C080E090E0A0E8B2E4809394
:101C3000221090932310A0932410B093251020E03D
:101C400030E0A901C501B4010E948A14882329F15A
:101C500020E030E040E852E4C301B2010E942216C5
:101C6000A50194010E948E140E94F6149B0177FF37
:101C700004C022273327261B370BB901882777FD9D
:101C80008095982F0E94291560931E1070931F1045
:101C900080932010909321100CC080E090E0A0E889
:101CA000BFEB80931E1090931F10A0932010B09351
:101CB000211020E030E0A901C701B6010E948A147A
:101CC000882329F120E030E040E852E4C301B2016A
:101CD0000E942216A70196010E948E140E94F614FB
:101CE0009B0177FF04C022273327261B370BB9013E
:101CF000882777FD8095982F0E94291560931A10E8
:101D000070931B1080931C1090931D100CC080E0EA
:101D100090E0A0E8BFEB80931A1090931B10A09363
:101D20001C10B0931D10A3019201C301B2012FC179
:101D30000C171D070CF494C0C701B6010E94F614DD
:101D40009B0177FF04C022273327261B370B02177E
:101D500013070CF485C080E090E0A0E8B2E4809323
:101D60001E1090931F10A0932010B093211020E01C
:101D700030E0A901C301B2010E948A14882329F12D
:101D800020E030E040E852E4C501B4010E94221690
:101D9000A30192010E948E140E94F6149B0177FF0A
:101DA00004C022273327261B370BB901882777FD6C
:101DB0008095982F0E94291560932210709323100C
:101DC00080932410909325100CC080E090E0A0E850
:101DD000BFEB8093221090932310A0932410B09314
:101DE000251020E030E0A901C701B6010E948A1445
:101DF000882329F120E030E040E852E4C501B40135
:101E00000E942216A70196010E948E140E94F614C9
:101E10009B0177FF04C022273327261B370BB9010C
:101E2000882777FD8095982F0E94291560931A10B6
:101E300070931B1080931C1090931D100CC080E0B9
:101E400090E0A0E8BFEB80931A1090931B10A09332
:101E50001C10B0931D10A5019401C501B40197C0D9
:101E6000C701B6010E94F6149B0177FF04C0222728
:101E70003327261B370B2C173D070CF4A8C020175F
:101E800031070CF4A4C080E090E0A0E8B2E48093B5
:101E90001A1090931B10A0931C10B0931D1020E0FB
:101EA00030E0A901C301B2010E948A14882329F1FC
:101EB00020E030E040E852E4C701B6010E9422165B
:101EC000A30192010E948E140E94F6149B0177FFD9
:101ED00004C022273327261B370BB901882777FD3B
:101EE0008095982F0E9429156093221070932310DB
:101EF00080932410909325100CC080E090E0A0E81F
:101F0000BFEB8093221090932310A0932410B093E2
:101F1000251020E030E0A901C501B4010E948A1417
:101F2000882329F120E030E040E852E4C701B601FF
:101F30000E942216A50194010E948E140E94F6149C
:101F40009B0177FF04C022273327261B370BB901DB
:101F5000882777FD8095982F0E94291560931E1081
:101F600070931F1080932010909321100CC080E07C
:101F700090E0A0E8BFEB80931E1090931F10A093F9
:101F80002010B0932110A7019601C701B6010E944D
:101F9000261420E030E040E852E40E9422160E941D
:101FA000F6149B0177FF04C022273327261B370B2B
:101FB000B901882777FD8095982F0E942915609395
:101FC0000A1070930B1080930C1090930D10DF91FA
:101FD000CF911F910F91FF90EF90DF90CF90BF9026
:101FE000AF909F908F907F906F905F904F900895EB
:101FF000A3E1B0E0EEEFFFE00C94EE137C011B01D7
:102000006A01FC0117821682838181FF66C3BE01CB
:102010006F5F7F4F4B01F7019381F10193FD859134
:1020200093FF81911F01882309F453C3853239F44A
:1020300093FD859193FF81911F01853239F4B7019A
:1020400090E00E94DA1856016501E5CF10E0512CAE
:1020500020E02032A0F48B3269F030F4803259F065
:10206000833269F420612CC08D3239F0803339F429
:10207000216026C02260246023C0286021C027FD83
:1020800027C030ED380F3A3078F426FF06C0FAE06A
:102090001F9F300D1124132F13C06AE0569E300D80
:1020A0001124532E20620CC08E3221F426FD11C360
:1020B000206406C08C3611F4206802C0883641F4D2
:1020C000F10193FD859193FF81911F018111C1CF92
:1020D0009BEB980F933018F42061805E06C09BE95B
:1020E000980F933008F0AAC12F7E26FF16E02F73B9
:1020F000722E853621F4F22FF0647F2E08C08636CA
:1021000021F4622F6068762E02C01111115077FE03
:1021100007C01C3348F444244394410E27E00BC00D
:10212000183030F4212F06C027E04CE3442E03C0C2
:1021300027E017E0412C560174E0A70EB11CF60110
:102140006081718182819381042DA4010E94E31733
:102150006C01098100FF02C003FF06C071FC07C0CB
:1021600072FC08C0612C08C03DE2632E05C02BE262
:10217000622E02C090E2692E802F8C7099F1662049
:1021800011F084E001C083E0851510F0512C0BC0E4
:10219000581A73FC08C0B70180E290E00E94DA1878
:1021A0005A94C9F7F3CF662029F0B701862D90E045
:1021B0000E94DA1803FD03C00AED10E002C006ED2C
:1021C00010E0F72DF0717F2EF8018491882309F437
:1021D00076C271108052B70190E00E94DA180F5F4A
:1021E0001F4FF2CF77FE0FC04C0C04FF04C08A8152
:1021F000813309F44A94141474F5F8E0F41578F571
:1022000088E0482E2CC076FC2AC0812F90E08C15E7
:102210009D059CF06CEFC6166FEFD60674F0772D17
:102220007068772E0AC0E2E0F0E0EC0FFD1FE10FCE
:10223000F11D8081803319F411501111F4CF77FE14
:102240000EC044244394410E812F90E0C816D90655
:102250002CF41C1904C04424439401C010E077FE00
:1022600007C01C141D043CF496012F5F3F4F05C0AE
:1022700025E030E002C021E030E0662011F02F5F61
:102280003F4F112331F0412F50E04F5F5F4F240F3C
:10229000351F452D50E02417350714F4521A01C09C
:1022A000512C872D897049F4552039F0B70180E20F
:1022B00090E00E94DA185A94F7CF662029F0B7010F
:1022C000862D90E00E94DA1873FC09C0552039F081
:1022D000B70180E390E00E94DA185A94F7CF77FEB6
:1022E0005FC09C2D8D2DD7FE02C090E080E0692E4E
:1022F000782E40E050E0C601841991099D878C87B3
:10230000960126193709280D391D812F90E0EE27F7
:10231000FF27E81BF90BFF87EE87FFEF6F167F069D
:1023200069F4B7018EE290E02B8B3A8B488B598B86
:102330000E94DA18598948893A892B89C614D7042A
:1023400054F06C857D85661577052CF4F901E40F52
:10235000F51F818101C080E371E0671A71084F5F4A
:102360005F4FEE85FF856E167F066CF0B70190E03B
:102370002B8B3A8B488B598B0E94DA182B893A8920
:1023800048895989CACF6C147D0439F49A819633EF
:1023900018F4953311F404FF81E3B70190E04BC0CA
:1023A0008A81813309F00F7EB70190E00E94DA182C
:1023B000111105C074FE18C085E490E017C0B70184
:1023C0008EE290E00E94DA1882E066246394680E40
:1023D000F401E80FF11D8081B70190E00E94DA1846
:1023E000115041F3862DF1CF85E690E0B7010E94B0
:1023F000DA18D7FC05C0C114D10439F404FF05C0B4
:10240000D194C194D1088DE201C08BE2B70190E074
:102410000E94DA1880E36AE0C616D1042CF08F5FC0
:10242000FAE0CF1AD108F7CFB70190E00E94DA188E
:10243000B701C601C0960E94DA1841C1833631F057
:10244000833779F0833509F058C021C0560172E016
:10245000A70EB11CF6018081898301E010E06401C0
:1024600014C05601F2E0AF0EB11CF601C080D1805D
:1024700026FF03C0612F70E002C06FEF7FEFC6013F
:102480002B8B0E94CF188C012B892F7715C05601FA
:10249000F2E0AF0EB11CF601C080D18026FF03C070
:1024A000612F70E002C06FEF7FEFC6012B8B0E949F
:1024B000BB188C012B892068722E23FD1AC0852D34
:1024C00090E008171907A8F4B70180E290E00E9495
:1024D000DA185A94F4CFF60177FC859177FE819152
:1024E0006F01B70190E00E94DA1851105A94015020
:1024F00011090115110579F7E2C0843611F089360A
:1025000051F5560127FF09C0F4E0AF0EB11CF601EA
:1025100060817181828193810AC0F2E0AF0EB11CAB
:10252000F60160817181882777FD8095982F022FB1
:102530000F7697FF08C090958095709561957F4FB5
:102540008F4F9F4F00682AE030E0A4010E94791964
:10255000C82EC8183EC0022F853721F40F7E2AE00E
:1025600030E01DC0097F8F3691F018F4883559F09E
:10257000B0C0803719F0883711F0ABC0006104FF9C
:1025800009C0046007C024FF08C0066006C028E038
:1025900030E005C020E130E002C020E132E0560129
:1025A00007FF09C0F4E0AF0EB11CF6016081718134
:1025B0008281938108C0F2E0AF0EB11CF601608108
:1025C000718180E090E0A4010E947919C82EC8189A
:1025D0000F7706FF0BC0202F2E7FC11650F404FF8B
:1025E0000AC002FD08C0202F2E7E05C0DC2C202F43
:1025F00003C0DC2C01C0D12E24FF0DC0FE01EC0D68
:10260000F11D8081803311F4297E09C022FF06C0AC
:10261000D394D39404C0822F867809F0D39423FDF9
:1026200013C020FF06C01C2DD51418F4150D1D195C
:10263000D52CD51468F4B70180E290E02B8B0E9472
:10264000DA18D3942B89F5CFD51410F45D1801C096
:10265000512C24FF12C0B70180E390E02B8B0E9425
:10266000DA182B8922FF17C021FF03C088E590E00C
:1026700002C088E790E0B7010CC0822F867859F03D
:1026800021FD02C080E201C08BE227FD8DE2B7018F
:1026900090E00E94DA18C11638F4B70180E390E0A8
:1026A0000E94DA181150F7CFCA94F401EC0DF11D15
:1026B0008081B70190E00E94DA18C110F5CF552053
:1026C00009F4C2CCB70180E290E00E94DA185A9473
:1026D000F6CFF7018681978102C08FEF9FEF639657
:1026E000E2E10C940A148CE391E00E94D00186E3AD
:1026F00091E00E94D0018EE491E00E94D00184E537
:1027000091E00E94D00180E391E00E94D00188EA2C
:1027100091E00E94E1018EEA91E00E94E1018AE5E8
:1027200091E00E94E10188E491E00E94E1018EE4E1
:1027300091E00E948A0184E591E00E948A014CE9BF
:1027400051E066E971E082EA91E00E94F5014CE90E
:1027500051E060E671E080E991E00E94F5014CE90A
:1027600051E06CE671E086E691E00E94F5010E947E
:102770003A020E9487020E9423040E949D0C0E943C
:10278000E7050E94110D80E090E00895AA1BBB1B95
:1027900051E107C0AA1FBB1FA617B70710F0A61B61
:1027A000B70B881F991F5A95A9F780959095BC0182
:1027B000CD01089597FB072E16F4009407D077FDFE
:1027C00009D00E94C61307FC05D03EF49095819570
:1027D0009F4F0895709561957F4F08952F923F9276
:1027E0004F925F926F927F928F929F92AF92BF9221
:1027F000CF92DF92EF92FF920F931F93CF93DF93CD
:10280000CDB7DEB7CA1BDB0B0FB6F894DEBF0FBE29
:10281000CDBF09942A88398848885F846E847D8476
:102820008C849B84AA84B984C884DF80EE80FD8078
:102830000C811B81AA81B981CE0FD11D0FB6F894EE
:10284000DEBF0FBECDBFED0108955058BB27AA27AC
:102850000ED075C166D130F06BD120F031F49F3FBE
:1028600011F41EF45BC10EF4E095E7FB51C1E92FB2
:1028700077D180F3BA17620773078407950718F0BA
:1028800071F49EF58FC10EF4E0950B2EBA2FA02D9A
:102890000B01B90190010C01CA01A0011124FF270D
:1028A000591B99F0593F50F4503E68F11A16F04008
:1028B000A22F232F342F4427585FF3CF4695379507
:1028C0002795A795F0405395C9F77EF41F16BA0BCC
:1028D000620B730B840BBAF09150A1F0FF0FBB1F7A
:1028E000661F771F881FC2F70EC0BA0F621F731FC3
:1028F000841F48F4879577956795B795F7959E3F20
:1029000008F0B3CF9395880F08F09927EE0F9795AD
:1029100087950895D9D008F481E008950CD00FC1AF
:1029200007D140F0FED030F021F45F3F19F0F0C045
:10293000511139C1F3C014D198F39923C9F3552328
:10294000B1F3951B550BBB27AA27621773078407A2
:1029500038F09F5F5F4F220F331F441FAA1FA9F358
:1029600033D00E2E3AF0E0E830D091505040E6954A
:10297000001CCAF729D0FE2F27D0660F771F881FAB
:10298000BB1F261737074807AB07B0E809F0BB0B9A
:10299000802DBF01FF2793585F4F2AF09E3F5105BE
:1029A00068F0B6C000C15F3FECF3983EDCF386955B
:1029B00077956795B795F7959F5FC9F7880F911D34
:1029C0009695879597F90895E1E0660F771F881F20
:1029D000BB1F621773078407BA0720F0621B730BD3
:1029E000840BBA0BEE1F88F7E095089504D0689425
:1029F000B111D9C00895BCD088F09F5790F0B92F7D
:102A00009927B751A0F0D1F0660F771F881F991F43
:102A10001AF0BA95C9F712C0B13081F0C3D0B1E055
:102A20000895C0C0672F782F8827B85F39F0B93F65
:102A3000CCF3869577956795B395D9F73EF4909545
:102A40008095709561957F4F8F4F9F4F0895E894C3
:102A500009C097FB3EF490958095709561957F4FE6
:102A60008F4F9F4F9923A9F0F92F96E9BB27939594
:102A7000F695879577956795B795F111F8CFFAF4A4
:102A8000BB0F11F460FF1BC06F5F7F4F8F4F9F4FD5
:102A900016C0882311F096E911C0772321F09EE833
:102AA000872F762F05C0662371F096E8862F70E099
:102AB00060E02AF09A95660F771F881FDAF7880F73
:102AC0009695879597F90895990F0008550FAA0BC9
:102AD000E0E8FEEF16161706E807F907C0F0121631
:102AE0001306E407F50798F0621B730B840B950B34
:102AF00039F40A2661F0232B242B252B21F4089589
:102B00000A2609F4A140A6958FEF811D811D089525
:102B100097F99F6780E870E060E008959FEF80EC90
:102B2000089500240A941616170618060906089533
:102B300000240A9412161306140605060895092E99
:102B40000394000C11F4882352F0BB0F40F4BF2B08
:102B500011F460FF04C06F5F7F4F8F4F9F4F089548
:102B600057FD9058440F551F59F05F3F71F047953E
:102B7000880F97FB991F61F09F3F79F08795089523
:102B8000121613061406551FF2CF4695F1DF08C042
:102B9000161617061806991FF1CF8695710561055F
:102BA00008940895E894BB2766277727CB0197F907
:102BB00008958ADF08F48FEF08950EF0A6C0AECF17
:102BC0006894A6CFD5DFC8F39923D1F3C6F3DF937A
:102BD000CF931F930F93FF92C92FDD2788232AF0ED
:102BE0002197660F771F881FDAF720E030E040E872
:102BF0005FEB9FE3883920F0803E30F021968F779D
:102C000025DEECE7F0E003C021DEE9EAF0E08BD05E
:102C10008B01BE01EC01FB2E6F5771097595771F73
:102C2000880B990B16DF28E132E741E35FE316D00A
:102C3000AF2D9801AE01FF900F911F91CF91DF91C1
:102C400016DE7DCF0BD07BCF6CDF28F071DF18F064
:102C5000952309F05DCF62CF1124A5CF81DFA0F3CA
:102C6000959FD1F3950F50E0551F629FF001729F21
:102C7000BB27F00DB11D639FAA27F00DB11DAA1F40
:102C8000649F6627B00DA11D661F829F2227B00D8D
:102C9000A11D621F739FB00DA11D621F839FA00D18
:102CA000611D221F749F3327A00D611D231F849F68
:102CB000600D211D822F762F6A2F11249F575040BF
:102CC0008AF0E1F088234AF0EE0FFF1FBB1F661F5A
:102CD000771F881F91505040A9F79E3F510570F013
:102CE00017CF61CF5F3FECF3983EDCF38695779585
:102CF0006795B795F795E7959F5FC1F7FE2B880F0E
:102D0000911D9695879597F908959F3F31F09150C1
:102D100020F4879577956795B795880F911D9695BF
:102D2000879597F90895DF93CF931F930F93FF92A1
:102D3000EF92DF927B018C01689405C0DA2EEF01DF
:102D40008DDFFE01E894A59125913591459155912E
:102D5000AEF3EF018CDDFE019701A801DA9479F75B
:102D6000DF90EF90FF900F911F91CF91DF91089529
:102D7000CF93DF938230910510F482E090E0E091F0
:102D80004D10F0914E1020E030E0A0E0B0E0309720
:102D900039F14081518148175907B8F04817590750
:102DA00071F482819381109729F013969C938E93EE
:102DB00012972CC090934E1080934D1027C0211570
:102DC000310531F04217530718F0A901DB0101C0AA
:102DD000EF019A01BD01DF010280F381E02DD7CF21
:102DE00021153105F9F0281B390B2430310580F409
:102DF0008A819B816115710521F0FB019383828398
:102E000004C090934E1080934D10FE01329644C042
:102E1000FE01E20FF31F8193919322503109398310
:102E200028833AC020914B1030914C10232B41F451
:102E30002091C6023091C70230934C1020934B1062
:102E40002091C4023091C5022115310541F42DB7FE
:102E50003EB74091C8025091C902241B350BE09146
:102E60004B10F0914C10E217F307A0F42E1B3F0B10
:102E70002817390778F0AC014E5F5F4F24173507EC
:102E800048F04E0F5F1F50934C1040934B108193AE
:102E9000919302C0E0E0F0E0CF01DF91CF9108957F
:102EA000CF93DF93009709F487C0FC013297138218
:102EB0001282C0914D10D0914E10209781F4208144
:102EC0003181280F391F80914B1090914C1082173F
:102ED000930779F5F0934C10E0934B106DC0DE0131
:102EE00020E030E0AE17BF0750F412964D915C9190
:102EF00013979D014115510509F1DA01F3CFB38311
:102F0000A28340815181840F951F8A179B0771F41A
:102F10008D919C911197840F951F029691838083C8
:102F200012968D919C91139793838283211531057D
:102F300029F4F0934E10E0934D103EC0D901139642
:102F4000FC93EE9312974D915D91A40FB51FEA1774
:102F5000FB0779F480819181840F951F0296D90136
:102F600011969C938E938281938113969C938E935A
:102F70001297E0E0F0E08A819B81009719F0FE0152
:102F8000EC01F9CFCE01029628813981820F931F7F
:102F900020914B1030914C102817390769F4309765
:102FA00029F410924E1010924D1002C0138212821A
:102FB000D0934C10C0934B10DF91CF9108956627AA
:102FC00077270C94D719283008F027E03327DA0147
:102FD000990F311D87FD916000966105710539F4E7
:102FE00032602E5F3D9330E32A95E1F708959F3FCD
:102FF00030F080387105610509F03C5F3C5F3D931E
:10300000913008F08068911DDF93CF931F930F9349
:10301000FF92EF92192F987F9695E92F96959695A6
:10302000E90FFF27E85CFE4F99273327EE24FF24A2
:10303000A701E70105900894079428F4360FE71ECE
:10304000F81E491F511D660F771F881F991F069490
:10305000A1F70590079428F4E70EF81E491F561FA4
:10306000C11D770F881F991F661F0694A1F7059051
:10307000079428F4F80E491F561FC71FD11D880F4B
:10308000991F661F771F0694A1F70590079420F4F7
:10309000490F561FC71FD81F990F661F771F881F1C
:1030A0000694A9F784911095177041F0D695C795AD
:1030B00057954795F794E7941A95C1F7EEEDF0E030
:1030C00068941590159135916591959105907FE2E1
:1030D0007395E118F10A430B560BC90BD009C0F7E1
:1030E000E10CF11E431F561FC91FD01D7EF4703323
:1030F00011F48A95E6CFE894015030F0080F0AF4F5
:103100000027021708F4202F2395022F7A3328F086
:1031100079E37D932A95E9F710C07D932A9589F686
:10312000069497956795379517951794E118F10AC6
:10313000430B560BC90BD00998F023957E917395DC
:103140007A3308F070E37C932013B8F77E917061B6
:103150007D9330F0839571E37D9370E32A95E1F7D9
:103160001124EF90FF900F911F91CF91DF9199273C
:1031700087FD90950895FC01059061507040011005
:10318000D8F7809590958E0F9F1F0895FB01DC0165
:103190008D91019080190110D9F3990B0895FC01CC
:1031A0006150704001900110D8F7809590958E0F76
:1031B0009F1F08950F931F93CF93DF93182F092F0D
:1031C000EB018B8181FD03C08FEF9FEF20C082FF59
:1031D00010C04E815F812C813D81421753077CF4E2
:1031E000E881F9819F012F5F3F4F39832883108346
:1031F00006C0E885F985812F0995892B29F72E814D
:103200003F812F5F3F4F3F832E83812F902FDF9190
:10321000CF911F910F910895A0E0B0E0E2E1F9E1B4
:103220000C94FE13FE01359661917191AF0180916E
:103230005110909152100E94F80FE2E00C941A1471
:103240000F931F93CF93DF93E0915110F0915210A1
:10325000238121FF1BC0EC0100E010E08991609107
:10326000511070915210DB011896ED91FC91199755
:10327000882331F00995892B89F30FEF1FEFEECFEB
:103280008AE00995892B11F4C80102C08FEF9FEFE6
:10329000DF91CF911F910F910895AEE0B0E0E3E58B
:1032A000F9E10C94FC138C01CA0146E04C831A83AB
:1032B000098377FF02C060E070E8615071097E8386
:1032C0006D83A901BC01CE0101960E94F80F4D81CA
:1032D0005E8157FD0AC02F813885421753070CF4D1
:1032E0009A01F801E20FF31F10822E96E4E00C948D
:1032F0001814FA01AA27283051F1203181F1E894FD
:103300006F936E7F6E5F7F4F8F4F9F4FAF4FB1E0D8
:103310003ED0B4E03CD0670F781F891F9A1FA11DD3
:10332000680F791F8A1F911DA11D6A0F711D811DD4
:10333000911DA11D20D009F468943F912AE0269F99
:1033400011243019305D3193DEF6CF010895462FF8
:103350004770405D4193B3E00FD0C9F7F6CF462FD9
:103360004F70405D4A3318F0495D31FD4052419342
:1033700002D0A9F7EACFB4E0A695979587957795FF
:103380006795BA95C9F700976105710508959B0186
:10339000AC010A2E06945795479537952795BA950F
:1033A000C9F7620F731F841F951FA01D0895A0E029
:1033B000B0E0EDEDF9E10C94F0138B0161157105AE
:1033C00021F0DB018C9311969C93EC015E01BFEF21
:1033D000AB1ABB0A7501C8808C2D90E00E943E1B81
:1033E000892B11F0E501F2CFEDE2CE1208C07E018B
:1033F000F2E0EF0EF11CC980DD24D39409C02BE26A
:10340000C21205C07E0142E0E40EF11CC980D12C3D
:10341000E701219743E050E060EE71E0CE010E94A9
:10342000461B892BD1F4E701229645E050E06BED75
:1034300071E0CE010E94461B892B11F4E70127960B
:103440000115110519F0D801CD93DC93D11008C1F5
:1034500060E070E080E89FE70CC143E050E068ED79
:1034600071E0CE010E94461B892B59F4011511050C
:1034700009F4FBC0B2E0EB0EF11CF801F182E0822E
:10348000F4C0F70160E070E0CB01C0E0D0E07F0164
:10349000A0EDAA2EAC0C29E02A1530F14D2D42608A
:1034A000B42E2D2D2870D2FE04C0211125C02196E6
:1034B00023C021112197A5E0B0E09B01AC010E943F
:1034C000611B660F771F881F991F6A0D711D811D73
:1034D000911D6839A9E97A078A07A9E19A0760F07E
:1034E000BD2DB660BB2E08C02EEFA2120AC0D3FCC1
:1034F00050C04D2D4860B42E3196D701CC90DB2CB6
:10350000C6CF2C2D2F7D253409F043C0A081AD32CC
:1035100041F4BD2DB061DB2E7F0122E0E20EF11CF3
:103520000CC07F01AB3231F04FEFE41AF40A21E016
:1035300030E006C0A2E0EA0EF11CA18122E030E0FA
:10354000A053AA3018F0E21AF30A23C0F70120E0D2
:1035500030E02038BCE03B075CF4A901440F551F64
:10356000440F551F240F351F220F331F2A0F311D03
:10357000AF014F5F5F4F7A01A081A053AA3010F4D2
:10358000FA01E7CFD4FE03C0319521953109C20F6E
:10359000D31FD1FE09C00115110531F0E1E0EE1A8B
:1035A000F108D801ED92FC920E9427152D2D237071
:1035B000233019F06B017C0106C06B017C01F7FA26
:1035C000F094F7F8F09420E030E0A901C701B601CB
:1035D0000E948A14882309F440C0D7FF06C0D19501
:1035E000C195D10907EF11E002C00FE012E04801D8
:1035F000B8E18B1A910890E2A92EB12CF801459000
:10360000559065907490CA15DB055CF0A30192019A
:10361000C701B6010E9422166B017C01CA19DB09A1
:10362000F2CF04501109B594A7940815190531F784
:103630008E2D880F8F2D881F8F3F49F020E030E0BE
:10364000A901C701B6010E948A14811106C082E255
:1036500090E09093561080935510C701B60109C0B1
:1036600060E070E080E89FEF04C060E070E080EC14
:103670009FE7CDB7DEB7E0E10C940C1491111EC0AA
:10368000803219F089508550D0F70895FB01DC0194
:103690004150504088F08D9181341CF08B350CF4F2
:1036A000805E659161341CF06B350CF4605E861BA6
:1036B000611171F3990B0895881BFCCF9927882716
:1036C00008950E946C1BA59F900DB49F900DA49F20
:1036D000800D911D11240895A29FB001B39FC001D8
:1036E000A39F700D811D1124911DB29F700D811D2E
:0A36F0001124911D0895F894FFCFF6
:1036FA000000D20101000100D20102000200D20141
:10370A0004000300D20108000400D20110000500E1
:10371A00D20120000600D20140000700D201800039
:10372A000000CC0101000100CC0102000200CC0122
:10373A0004000300CC0108000400CC0110000500BD
:10374A00CC0120000600CC0140000700CC0180001B
:10375A000000C60101000100C60102000200C60104
:10376A0004000300C60108000400C6011000050099
:10377A00C60120000600C60140000700C6018000FD
:10378A000000C00101000100C00102000200C001E6
:10379A0004000300C00108000400C0011000050075
:1037AA00C00120000600C00140000700C0018000DF
:1037BA0020002200210023002500240026002800E2
:1037CA00270029002B002A00280074656D7000006C
:1037DA0000000000000000000000000000002E09A8
:1037EA006563686F00000000000000000000000030
:1037FA0000000000410968656174000000000000D3
:10380A00000000000000000000007A0C47000000E1
:10381A00000000000000000000000000000000009E
:10382A00560964726F70000000000000000000007A
:10383A00000000000000060C7269736500000000B9
:10384A000000000000000000000000005A0B67653D
:10385A00745F73656E73650000000000000000006D
:10386A0000007C096170726F78000000000000009F
:10387A0000000000000000008D09686F6D650000FF
:10388A000000000000000000000000000000760CAC
:10389A00736F756E640000000000000000000000F5
:1038AA0000000000130B0000000200000000F804F2
:1038BA000000000000005710200000000000000077
:1038CA0000000000000000005F000000000000008F
:1038DA00070000000700000014007F0014007F00AA
:1038EA00140024002A007F002A001200230013007B
:1038FA0008006400620036004900550022005000AA
:10390A000000050003000000000000001C00220067
:10391A00410000000000410022001C0000001400C9
:10392A0008003E0008001400080008003E000800D5
:10393A0008000000500030000000000008000800E5
:10394A000800080008000000600060000000000095
:10395A00200010000800040002003E005100490047
:10396A0045003E00000042007F0040000000420087
:10397A0061005100490046002100410045004B000A
:10398A0031001800140012007F00100027004500C3
:10399A004500450039003C004A0049004900300012
:1039AA0001007100090005000300360049004900C2
:1039BA004900360006004900490029001E0000009F
:1039CA0036003600000000000000560036000000F5
:1039DA000000080014002200410000001400140036
:1039EA001400140014000000410022001400080012
:1039FA000200010051000900060032004900790066
:103A0A0041003E007E001100110011007E007F007F
:103A1A0049004900490036003E004100410041008A
:103A2A0022007F004100410022001C007F00490063
:103A3A004900490041007F0009000900090001000E
:103A4A003E004100490049007A007F000800080052
:103A5A0008007F00000041007F00410000002000B4
:103A6A00400041003F0001007F00080014002200CE
:103A7A0041007F0040004000400040007F000200FB
:103A8A000C0002007F007F000400080010007F0085
:103A9A003E004100410041003E007F00090009004C
:103AAA00090006003E004100510021005E007F002F
:103ABA00090019002900460046004900490049004A
:103ACA003100010001007F00010001003F004000B9
:103ADA00400040003F001F002000400020001F005F
:103AEA003F004000380040003F0063001400080017
:103AFA001400630007000800700008000700610056
:103B0A00510049004500430000007F004100410088
:103B1A00000002000400080010002000000041001C
:103B2A0041007F00000004000200010002000400BE
:103B3A004000400040004000400000000100020038
:103B4A0004000000200054005400540078007F0054
:103B5A00480044004400380038004400440044004F
:103B6A00200038004400440048007F003800540018
:103B7A0054005400180008007E00090001000200E9
:103B8A000C005200520052003E007F000800040060
:103B9A0004007800000044007D004000000020007E
:103BAA00400044003D0000007F001000280044004F
:103BBA000000000041007F00400000007C0004007B
:103BCA001800040078007C00080004000400780053
:103BDA00380044004400440038007C0014001400FB
:103BEA001400080008001400140018007C007C006F
:103BFA00080004000400080048005400540054005F
:103C0A00200004003F004400400020003C00400027
:103C1A00400020007C001C002000400020001C0006
:103C2A003C004000300040003C00440028001000E6
:103C3A00280044000C005000500050003C00440092
:103C4A00640054004C0044000000080036004100A3
:103C5A000000000000007F0000000000000041009A
:103C6A0036000800000010000800080010000800D4
:103C7A0000000600060000000000082008000D0AE7
:103C8A000074656D703D25302E32660A00656368E2
:103C9A006F205B25735D205B25735D0A0073656E7B
:103CAA0073655F72783D256900726973696E672E64
:103CBA002E00646973703A2025670A0064726F7077
:103CCA0070696E672E2E0068656174207265717561
:103CDA0069726573206F6E6520617267756D656EB6
:103CEA0074006F6E006F6666006572726F722100F3
:103CFA002D3D2064656C7461626F742076302E31BC
:103D0A00203D2D00436F6E736F6C65205374617292
:103D1A007465642E00436F6D6D616E64206E6F74FE
:0A3D2A0020666F756E6421003E00F4
:00000001FF
